{
  "contractName": "GolfClubGameplay",
  "abi": [
    {
      "anonymous": false,
      "inputs": [
        {
          "indexed": true,
          "internalType": "address",
          "name": "previousOwner",
          "type": "address"
        },
        {
          "indexed": true,
          "internalType": "address",
          "name": "newOwner",
          "type": "address"
        }
      ],
      "name": "OwnershipTransferred",
      "type": "event"
    },
    {
      "anonymous": false,
      "inputs": [
        {
          "indexed": false,
          "internalType": "address",
          "name": "_owner",
          "type": "address"
        },
        {
          "indexed": false,
          "internalType": "uint256",
          "name": "prizeId",
          "type": "uint256"
        }
      ],
      "name": "RoulletPrize",
      "type": "event"
    },
    {
      "anonymous": false,
      "inputs": [
        {
          "indexed": false,
          "internalType": "uint256",
          "name": "_golfClubId",
          "type": "uint256"
        },
        {
          "indexed": false,
          "internalType": "uint256",
          "name": "_matchResult",
          "type": "uint256"
        },
        {
          "indexed": false,
          "internalType": "uint256",
          "name": "_roundId",
          "type": "uint256"
        },
        {
          "indexed": false,
          "internalType": "address",
          "name": "_owner",
          "type": "address"
        }
      ],
      "name": "RoundPlayed",
      "type": "event"
    },
    {
      "inputs": [
        {
          "internalType": "address",
          "name": "",
          "type": "address"
        }
      ],
      "name": "claimBalance",
      "outputs": [
        {
          "internalType": "uint256",
          "name": "",
          "type": "uint256"
        }
      ],
      "stateMutability": "view",
      "type": "function"
    },
    {
      "inputs": [],
      "name": "claimNFT",
      "outputs": [],
      "stateMutability": "nonpayable",
      "type": "function"
    },
    {
      "inputs": [
        {
          "internalType": "address",
          "name": "",
          "type": "address"
        }
      ],
      "name": "claimNFTBalance",
      "outputs": [
        {
          "internalType": "uint256",
          "name": "",
          "type": "uint256"
        }
      ],
      "stateMutability": "view",
      "type": "function"
    },
    {
      "inputs": [
        {
          "internalType": "uint256",
          "name": "_golfClubId",
          "type": "uint256"
        }
      ],
      "name": "claimResetCooldown",
      "outputs": [],
      "stateMutability": "nonpayable",
      "type": "function"
    },
    {
      "inputs": [
        {
          "internalType": "uint256",
          "name": "_golfClubId",
          "type": "uint256"
        }
      ],
      "name": "claimResetDurability",
      "outputs": [],
      "stateMutability": "nonpayable",
      "type": "function"
    },
    {
      "inputs": [],
      "name": "claimRewards",
      "outputs": [],
      "stateMutability": "nonpayable",
      "type": "function"
    },
    {
      "inputs": [
        {
          "internalType": "uint256",
          "name": "_golfClubId",
          "type": "uint256"
        }
      ],
      "name": "claimUpgrade",
      "outputs": [],
      "stateMutability": "nonpayable",
      "type": "function"
    },
    {
      "inputs": [
        {
          "internalType": "uint256",
          "name": "",
          "type": "uint256"
        }
      ],
      "name": "durabilityDropRate",
      "outputs": [
        {
          "internalType": "uint8",
          "name": "",
          "type": "uint8"
        }
      ],
      "stateMutability": "view",
      "type": "function"
    },
    {
      "inputs": [
        {
          "internalType": "address",
          "name": "",
          "type": "address"
        }
      ],
      "name": "energyBalance",
      "outputs": [
        {
          "internalType": "uint256",
          "name": "",
          "type": "uint256"
        }
      ],
      "stateMutability": "view",
      "type": "function"
    },
    {
      "inputs": [],
      "name": "getGolfClubContractAddress",
      "outputs": [
        {
          "internalType": "address",
          "name": "",
          "type": "address"
        }
      ],
      "stateMutability": "view",
      "type": "function"
    },
    {
      "inputs": [
        {
          "internalType": "uint256",
          "name": "_golfClubId",
          "type": "uint256"
        }
      ],
      "name": "getStats",
      "outputs": [
        {
          "components": [
            {
              "internalType": "uint256",
              "name": "readyTime",
              "type": "uint256"
            },
            {
              "internalType": "uint16",
              "name": "durability",
              "type": "uint16"
            }
          ],
          "internalType": "struct GolfClubRewards.Stats",
          "name": "",
          "type": "tuple"
        }
      ],
      "stateMutability": "view",
      "type": "function"
    },
    {
      "inputs": [],
      "name": "getToken",
      "outputs": [
        {
          "internalType": "contract GolfClubNFT",
          "name": "",
          "type": "address"
        }
      ],
      "stateMutability": "view",
      "type": "function"
    },
    {
      "inputs": [
        {
          "internalType": "uint256",
          "name": "",
          "type": "uint256"
        }
      ],
      "name": "golfClubStats",
      "outputs": [
        {
          "internalType": "uint256",
          "name": "readyTime",
          "type": "uint256"
        },
        {
          "internalType": "uint16",
          "name": "durability",
          "type": "uint16"
        }
      ],
      "stateMutability": "view",
      "type": "function"
    },
    {
      "inputs": [
        {
          "internalType": "uint256",
          "name": "",
          "type": "uint256"
        }
      ],
      "name": "havePlayed",
      "outputs": [
        {
          "internalType": "bool",
          "name": "",
          "type": "bool"
        }
      ],
      "stateMutability": "view",
      "type": "function"
    },
    {
      "inputs": [],
      "name": "isOwner",
      "outputs": [
        {
          "internalType": "bool",
          "name": "",
          "type": "bool"
        }
      ],
      "stateMutability": "view",
      "type": "function"
    },
    {
      "inputs": [],
      "name": "owner",
      "outputs": [
        {
          "internalType": "address",
          "name": "",
          "type": "address"
        }
      ],
      "stateMutability": "view",
      "type": "function"
    },
    {
      "inputs": [
        {
          "internalType": "address",
          "name": "",
          "type": "address"
        },
        {
          "internalType": "uint256",
          "name": "",
          "type": "uint256"
        }
      ],
      "name": "playerRounds",
      "outputs": [
        {
          "internalType": "uint256",
          "name": "id",
          "type": "uint256"
        },
        {
          "internalType": "uint16",
          "name": "bonusPerkType",
          "type": "uint16"
        },
        {
          "internalType": "uint16",
          "name": "hole",
          "type": "uint16"
        },
        {
          "internalType": "bool",
          "name": "victory",
          "type": "bool"
        }
      ],
      "stateMutability": "view",
      "type": "function"
    },
    {
      "inputs": [],
      "name": "renounceOwnership",
      "outputs": [],
      "stateMutability": "nonpayable",
      "type": "function"
    },
    {
      "inputs": [
        {
          "internalType": "address",
          "name": "",
          "type": "address"
        }
      ],
      "name": "repairBalance",
      "outputs": [
        {
          "internalType": "uint256",
          "name": "",
          "type": "uint256"
        }
      ],
      "stateMutability": "view",
      "type": "function"
    },
    {
      "inputs": [
        {
          "internalType": "uint256",
          "name": "",
          "type": "uint256"
        }
      ],
      "name": "roulettePrizePercentages",
      "outputs": [
        {
          "internalType": "uint8",
          "name": "",
          "type": "uint8"
        }
      ],
      "stateMutability": "view",
      "type": "function"
    },
    {
      "inputs": [
        {
          "internalType": "address payable",
          "name": "_to",
          "type": "address"
        },
        {
          "internalType": "uint256",
          "name": "_amount",
          "type": "uint256"
        }
      ],
      "name": "sendEthFromContract",
      "outputs": [],
      "stateMutability": "nonpayable",
      "type": "function"
    },
    {
      "inputs": [],
      "name": "sendEthToContract",
      "outputs": [],
      "stateMutability": "payable",
      "type": "function"
    },
    {
      "inputs": [
        {
          "internalType": "address",
          "name": "_contractAddress",
          "type": "address"
        }
      ],
      "name": "setGolfClubContract",
      "outputs": [],
      "stateMutability": "nonpayable",
      "type": "function"
    },
    {
      "inputs": [],
      "name": "testBalance",
      "outputs": [],
      "stateMutability": "nonpayable",
      "type": "function"
    },
    {
      "inputs": [
        {
          "internalType": "address",
          "name": "",
          "type": "address"
        }
      ],
      "name": "totalRounds",
      "outputs": [
        {
          "internalType": "uint256",
          "name": "",
          "type": "uint256"
        }
      ],
      "stateMutability": "view",
      "type": "function"
    },
    {
      "inputs": [
        {
          "internalType": "address",
          "name": "newOwner",
          "type": "address"
        }
      ],
      "name": "transferOwnership",
      "outputs": [],
      "stateMutability": "nonpayable",
      "type": "function"
    },
    {
      "inputs": [
        {
          "internalType": "address",
          "name": "",
          "type": "address"
        }
      ],
      "name": "upgradeBalance",
      "outputs": [
        {
          "internalType": "uint256",
          "name": "",
          "type": "uint256"
        }
      ],
      "stateMutability": "view",
      "type": "function"
    },
    {
      "inputs": [
        {
          "internalType": "address",
          "name": "",
          "type": "address"
        }
      ],
      "name": "victories",
      "outputs": [
        {
          "internalType": "uint256",
          "name": "",
          "type": "uint256"
        }
      ],
      "stateMutability": "view",
      "type": "function"
    },
    {
      "inputs": [
        {
          "internalType": "uint256",
          "name": "",
          "type": "uint256"
        }
      ],
      "name": "victoryProbability",
      "outputs": [
        {
          "internalType": "uint8",
          "name": "",
          "type": "uint8"
        }
      ],
      "stateMutability": "view",
      "type": "function"
    },
    {
      "inputs": [],
      "name": "findGame",
      "outputs": [],
      "stateMutability": "payable",
      "type": "function"
    },
    {
      "inputs": [
        {
          "internalType": "uint256",
          "name": "_golfClubId",
          "type": "uint256"
        }
      ],
      "name": "playRound",
      "outputs": [],
      "stateMutability": "nonpayable",
      "type": "function"
    },
    {
      "inputs": [
        {
          "internalType": "uint256",
          "name": "_golfClubId",
          "type": "uint256"
        }
      ],
      "name": "secondsToPlay",
      "outputs": [
        {
          "internalType": "uint256",
          "name": "",
          "type": "uint256"
        }
      ],
      "stateMutability": "view",
      "type": "function"
    }
  ],
  "bytecode": "0x6080604052670de0b6b3a764000060015566354a6ba7a180006002556000600555670214e8348c4f00006006556103e8600760006101000a81548161ffff021916908361ffff1602179055506040518060c00160405280600060ff168152602001601060ff168152602001602060ff168152602001603060ff168152602001604060ff168152602001605060ff168152506008906006620000a29291906200024f565b5066354a6ba7a18000614e2e5562015180614e2f556001614e30556000614e31556012614e3260006101000a81548161ffff021916908361ffff1602179055506040518060a00160405280603760ff168152602001603c60ff168152602001604360ff168152602001604e60ff168152602001605a60ff16815250614e3390600562000130929190620002fd565b506040518060a00160405280600660ff168152602001600560ff168152602001600460ff168152602001600360ff168152602001600260ff16815250614e349060056200017f929190620002fd565b503480156200018d57600080fd5b50336000806101000a81548173ffffffffffffffffffffffffffffffffffffffff021916908373ffffffffffffffffffffffffffffffffffffffff16021790555060008054906101000a900473ffffffffffffffffffffffffffffffffffffffff1673ffffffffffffffffffffffffffffffffffffffff16600073ffffffffffffffffffffffffffffffffffffffff167f8be0079c531659141344cd1fd0a4f28419497f9722a3daafe3b4186f6b6457e060405160405180910390a3620003ca565b82805482825590600052602060002090601f01602090048101928215620002ea5791602002820160005b83821115620002b957835183826101000a81548160ff021916908360ff160217905550926020019260010160208160000104928301926001030262000279565b8015620002e85782816101000a81549060ff0219169055600101602081600001049283019260010302620002b9565b505b509050620002f99190620003ab565b5090565b82805482825590600052602060002090601f01602090048101928215620003985791602002820160005b838211156200036757835183826101000a81548160ff021916908360ff160217905550926020019260010160208160000104928301926001030262000327565b8015620003965782816101000a81549060ff021916905560010160208160000104928301926001030262000367565b505b509050620003a79190620003ab565b5090565b5b80821115620003c6576000816000905550600101620003ac565b5090565b61429880620003da6000396000f3fe6080604052600436106101e35760003560e01c80637b30396511610102578063becccfbc11610095578063ed7653e711610064578063ed7653e714610714578063edede60114610751578063f2fde38b14610768578063f37621e214610791576101e3565b8063becccfbc14610679578063c61e5ec2146106a2578063d544577d146106df578063dcc75ca5146106e9576101e3565b8063a147d432116100d1578063a147d43214610585578063a2b5351b146105c2578063a7ed8a52146105ff578063b633e4cd1461063c576101e3565b80637b303965146104b55780638da5cb5b146104f25780638f32d59b1461051d5780639fbf8ec314610548576101e3565b80634bc547731161017a5780636816a725116101495780636816a72514610442578063713f5e4d1461046b578063715018a61461047557806375b2f1a91461048c576101e3565b80634bc547731461038857806359346523146103c5578063611f64a614610402578063672756ad1461042b576101e3565b806321df0da7116101b657806321df0da7146102c95780632768a49f146102f4578063372500ab146103345780633ceb40351461034b576101e3565b8063019e485e146101e85780630839511a146102115780630b9f8a1f1461024e5780631351d0cd1461028c575b600080fd5b3480156101f457600080fd5b5061020f600480360381019061020a919061300e565b6107ba565b005b34801561021d57600080fd5b5061023860048036038101906102339190613099565b610d94565b60405161024591906130d5565b60405180910390f35b34801561025a57600080fd5b506102756004803603810190610270919061300e565b610dad565b60405161028392919061310d565b60405180910390f35b34801561029857600080fd5b506102b360048036038101906102ae9190613099565b610de6565b6040516102c091906130d5565b60405180910390f35b3480156102d557600080fd5b506102de610dff565b6040516102eb9190613195565b60405180910390f35b34801561030057600080fd5b5061031b600480360381019061031691906131b0565b610e29565b60405161032b949392919061320b565b60405180910390f35b34801561034057600080fd5b50610349610ea0565b005b34801561035757600080fd5b50610372600480360381019061036d9190613099565b610f7c565b60405161037f91906130d5565b60405180910390f35b34801561039457600080fd5b506103af60048036038101906103aa919061300e565b610f95565b6040516103bc919061326c565b60405180910390f35b3480156103d157600080fd5b506103ec60048036038101906103e7919061300e565b610fc9565b6040516103f99190613287565b60405180910390f35b34801561040e57600080fd5b5061042960048036038101906104249190613099565b610fea565b005b34801561043757600080fd5b5061044061103f565b005b34801561044e57600080fd5b506104696004803603810190610464919061300e565b6111ce565b005b61047361144e565b005b34801561048157600080fd5b5061048a61145f565b005b34801561049857600080fd5b506104b360048036038101906104ae919061300e565b61152e565b005b3480156104c157600080fd5b506104dc60048036038101906104d7919061300e565b6117bb565b6040516104e991906132ef565b60405180910390f35b3480156104fe57600080fd5b50610507611877565b6040516105149190613319565b60405180910390f35b34801561052957600080fd5b506105326118a0565b60405161053f9190613287565b60405180910390f35b34801561055457600080fd5b5061056f600480360381019061056a919061300e565b6118f7565b60405161057c91906130d5565b60405180910390f35b34801561059157600080fd5b506105ac60048036038101906105a79190613099565b61194b565b6040516105b991906130d5565b60405180910390f35b3480156105ce57600080fd5b506105e960048036038101906105e4919061300e565b611964565b6040516105f6919061326c565b60405180910390f35b34801561060b57600080fd5b5061062660048036038101906106219190613099565b611999565b60405161063391906130d5565b60405180910390f35b34801561064857600080fd5b50610663600480360381019061065e9190613099565b6119b2565b60405161067091906130d5565b60405180910390f35b34801561068557600080fd5b506106a0600480360381019061069b9190613372565b6119ca565b005b3480156106ae57600080fd5b506106c960048036038101906106c4919061300e565b611a26565b6040516106d6919061326c565b60405180910390f35b6106e7611a5b565b005b3480156106f557600080fd5b506106fe611d69565b60405161070b9190613319565b60405180910390f35b34801561072057600080fd5b5061073b60048036038101906107369190613099565b611d93565b60405161074891906130d5565b60405180910390f35b34801561075d57600080fd5b50610766611dac565b005b34801561077457600080fd5b5061078f600480360381019061078a9190613099565b611f21565b005b34801561079d57600080fd5b506107b860048036038101906107b3919061300e565b611f3e565b005b806107c3610dff565b73ffffffffffffffffffffffffffffffffffffffff16636352211e826040518263ffffffff1660e01b81526004016107fb91906130d5565b602060405180830381865afa158015610818573d6000803e3d6000fd5b505050506040513d601f19601f8201168201806040525081019061083c91906133c7565b73ffffffffffffffffffffffffffffffffffffffff163373ffffffffffffffffffffffffffffffffffffffff16146108a9576040517f08c379a00000000000000000000000000000000000000000000000000000000081526004016108a090613451565b60405180910390fd5b8160006108b4610dff565b73ffffffffffffffffffffffffffffffffffffffff1663db07dbb6836040518263ffffffff1660e01b81526004016108ec91906130d5565b600060405180830381865afa158015610909573d6000803e3d6000fd5b505050506040513d6000823e3d601f19601f820116820180604052508101906109329190613684565b50965050505050505042610945836117bb565b60000151111561098a576040517f08c379a0000000000000000000000000000000000000000000000000000000008152600401610981906137c8565b60405180910390fd5b614e348160ff16815481106109a2576109a16137e8565b5b90600052602060002090602091828204019190069054906101000a900460ff1660ff166109ce836117bb565b6020015161ffff161015610a17576040517f08c379a0000000000000000000000000000000000000000000000000000000008152600401610a0e90613889565b60405180910390fd5b6000614e3760003373ffffffffffffffffffffffffffffffffffffffff1673ffffffffffffffffffffffffffffffffffffffff16815260200190815260200160002080549050118015610b1e575060001515614e3760003373ffffffffffffffffffffffffffffffffffffffff1673ffffffffffffffffffffffffffffffffffffffff168152602001908152602001600020614e3560003373ffffffffffffffffffffffffffffffffffffffff1673ffffffffffffffffffffffffffffffffffffffff1681526020019081526020016000205481548110610afb57610afa6137e8565b5b906000526020600020906002020160010160049054906101000a900460ff161515145b610b5d576040517f08c379a0000000000000000000000000000000000000000000000000000000008152600401610b549061391b565b60405180910390fd5b6000614e3760003373ffffffffffffffffffffffffffffffffffffffff1673ffffffffffffffffffffffffffffffffffffffff168152602001908152602001600020614e3560003373ffffffffffffffffffffffffffffffffffffffff1673ffffffffffffffffffffffffffffffffffffffff1681526020019081526020016000205481548110610bf157610bf06137e8565b5b9060005260206000209060020201604051806080016040529081600082015481526020016001820160009054906101000a900461ffff1661ffff1661ffff1681526020016001820160029054906101000a900461ffff1661ffff1661ffff1681526020016001820160049054906101000a900460ff16151515158152505090506000610c7d8683612217565b90506001811415610d0e57610c90610dff565b73ffffffffffffffffffffffffffffffffffffffff166249f6d5876040518263ffffffff1660e01b8152600401610cc791906130d5565b600060405180830381600087803b158015610ce157600080fd5b505af1158015610cf5573d6000803e3d6000fd5b50505050610d01612355565b610d096123ee565b610d81565b610d16610dff565b73ffffffffffffffffffffffffffffffffffffffff1663b4079732876040518263ffffffff1660e01b8152600401610d4e91906130d5565b600060405180830381600087803b158015610d6857600080fd5b505af1158015610d7c573d6000803e3d6000fd5b505050505b610d8c868284612544565b505050505050565b614e296020528060005260406000206000915090505481565b6009816127108110610dbe57600080fd5b600202016000915090508060000154908060010160009054906101000a900461ffff16905082565b614e2a6020528060005260406000206000915090505481565b6000600460009054906101000a900473ffffffffffffffffffffffffffffffffffffffff16905090565b614e376020528160005260406000208181548110610e4657600080fd5b9060005260206000209060020201600091509150508060000154908060010160009054906101000a900461ffff16908060010160029054906101000a900461ffff16908060010160049054906101000a900460ff16905084565b6000600360003373ffffffffffffffffffffffffffffffffffffffff1673ffffffffffffffffffffffffffffffffffffffff1681526020019081526020016000205411610eec57600080fd5b610f3533600360003373ffffffffffffffffffffffffffffffffffffffff1673ffffffffffffffffffffffffffffffffffffffff1681526020019081526020016000205461276e565b6000600360003373ffffffffffffffffffffffffffffffffffffffff1673ffffffffffffffffffffffffffffffffffffffff16815260200190815260200160002081905550565b614e366020528060005260406000206000915090505481565b60088181548110610fa557600080fd5b9060005260206000209060209182820401919006915054906101000a900460ff1681565b614e2d6020528060005260406000206000915054906101000a900460ff1681565b610ff26118a0565b610ffb57600080fd5b80600460006101000a81548173ffffffffffffffffffffffffffffffffffffffff021916908373ffffffffffffffffffffffffffffffffffffffff16021790555050565b6000614e2a60003373ffffffffffffffffffffffffffffffffffffffff1673ffffffffffffffffffffffffffffffffffffffff16815260200190815260200160002054116110c2576040517f08c379a00000000000000000000000000000000000000000000000000000000081526004016110b9906139ad565b60405180910390fd5b6111166001614e2a60003373ffffffffffffffffffffffffffffffffffffffff1673ffffffffffffffffffffffffffffffffffffffff168152602001908152602001600020546127b990919063ffffffff16565b614e2a60003373ffffffffffffffffffffffffffffffffffffffff1673ffffffffffffffffffffffffffffffffffffffff16815260200190815260200160002081905550611162610dff565b73ffffffffffffffffffffffffffffffffffffffff16636e2cded0336040518263ffffffff1660e01b815260040161119a9190613319565b600060405180830381600087803b1580156111b457600080fd5b505af11580156111c8573d6000803e3d6000fd5b50505050565b806111d7610dff565b73ffffffffffffffffffffffffffffffffffffffff16636352211e826040518263ffffffff1660e01b815260040161120f91906130d5565b602060405180830381865afa15801561122c573d6000803e3d6000fd5b505050506040513d601f19601f8201168201806040525081019061125091906133c7565b73ffffffffffffffffffffffffffffffffffffffff163373ffffffffffffffffffffffffffffffffffffffff16146112bd576040517f08c379a00000000000000000000000000000000000000000000000000000000081526004016112b490613451565b60405180910390fd5b6000614e2960003373ffffffffffffffffffffffffffffffffffffffff1673ffffffffffffffffffffffffffffffffffffffff1681526020019081526020016000205411611340576040517f08c379a000000000000000000000000000000000000000000000000000000000815260040161133790613a3f565b60405180910390fd5b6113946001614e2960003373ffffffffffffffffffffffffffffffffffffffff1673ffffffffffffffffffffffffffffffffffffffff168152602001908152602001600020546127b990919063ffffffff16565b614e2960003373ffffffffffffffffffffffffffffffffffffffff1673ffffffffffffffffffffffffffffffffffffffff168152602001908152602001600020819055506113e0610dff565b73ffffffffffffffffffffffffffffffffffffffff1663c6f2df1a836040518263ffffffff1660e01b815260040161141891906130d5565b600060405180830381600087803b15801561143257600080fd5b505af1158015611446573d6000803e3d6000fd5b505050505050565b60015434101561145d57600080fd5b565b6114676118a0565b61147057600080fd5b600073ffffffffffffffffffffffffffffffffffffffff1660008054906101000a900473ffffffffffffffffffffffffffffffffffffffff1673ffffffffffffffffffffffffffffffffffffffff167f8be0079c531659141344cd1fd0a4f28419497f9722a3daafe3b4186f6b6457e060405160405180910390a360008060006101000a81548173ffffffffffffffffffffffffffffffffffffffff021916908373ffffffffffffffffffffffffffffffffffffffff160217905550565b80611537610dff565b73ffffffffffffffffffffffffffffffffffffffff16636352211e826040518263ffffffff1660e01b815260040161156f91906130d5565b602060405180830381865afa15801561158c573d6000803e3d6000fd5b505050506040513d601f19601f820116820180604052508101906115b091906133c7565b73ffffffffffffffffffffffffffffffffffffffff163373ffffffffffffffffffffffffffffffffffffffff161461161d576040517f08c379a000000000000000000000000000000000000000000000000000000000815260040161161490613451565b60405180910390fd5b6000614e2b60003373ffffffffffffffffffffffffffffffffffffffff1673ffffffffffffffffffffffffffffffffffffffff16815260200190815260200160002054116116a0576040517f08c379a000000000000000000000000000000000000000000000000000000000815260040161169790613ad1565b60405180910390fd5b60098261271081106116b5576116b46137e8565b5b600202016000015442106116fe576040517f08c379a00000000000000000000000000000000000000000000000000000000081526004016116f590613b63565b60405180910390fd5b6117526001614e2b60003373ffffffffffffffffffffffffffffffffffffffff1673ffffffffffffffffffffffffffffffffffffffff168152602001908152602001600020546127b990919063ffffffff16565b614e2b60003373ffffffffffffffffffffffffffffffffffffffff1673ffffffffffffffffffffffffffffffffffffffff168152602001908152602001600020819055504260098361271081106117ac576117ab6137e8565b5b60020201600001819055505050565b6117c3612fa6565b60001515614e2d600084815260200190815260200160002060009054906101000a900460ff1615151415611821576040518060400160405280428152602001600760009054906101000a900461ffff1661ffff168152509050611872565b6009826127108110611836576118356137e8565b5b60020201604051806040016040529081600082015481526020016001820160009054906101000a900461ffff1661ffff1661ffff168152505090505b919050565b60008060009054906101000a900473ffffffffffffffffffffffffffffffffffffffff16905090565b60008060009054906101000a900473ffffffffffffffffffffffffffffffffffffffff1673ffffffffffffffffffffffffffffffffffffffff163373ffffffffffffffffffffffffffffffffffffffff1614905090565b6000611902826117bb565b6000015142106119155760009050611946565b600042600984612710811061192d5761192c6137e8565b5b600202016000015461193f9190613bb2565b9050809150505b919050565b614e2c6020528060005260406000206000915090505481565b614e33818154811061197557600080fd5b9060005260206000209060209182820401919006915054906101000a900460ff1681565b614e356020528060005260406000206000915090505481565b60036020528060005260406000206000915090505481565b6119d26118a0565b6119db57600080fd5b8173ffffffffffffffffffffffffffffffffffffffff166108fc829081150290604051600060405180830381858888f19350505050158015611a21573d6000803e3d6000fd5b505050565b614e348181548110611a3757600080fd5b9060005260206000209060209182820401919006915054906101000a900460ff1681565b614e2e543414611aa0576040517f08c379a0000000000000000000000000000000000000000000000000000000008152600401611a9790613c32565b60405180910390fd5b60005b614e3260009054906101000a900461ffff1661ffff168161ffff161015611cba57611ada60016005546127e090919063ffffffff16565b6005819055506000611aea610dff565b73ffffffffffffffffffffffffffffffffffffffff1663beb0f1336005546040518263ffffffff1660e01b8152600401611b2491906130d5565b602060405180830381865afa158015611b41573d6000803e3d6000fd5b505050506040513d601f19601f82011682018060405250810190611b659190613c52565b9050614e3760003373ffffffffffffffffffffffffffffffffffffffff1673ffffffffffffffffffffffffffffffffffffffff1681526020019081526020016000206040518060800160405280614e315481526020018361ffff168152602001611bdd60018661ffff1661280c90919063ffffffff16565b61ffff1681526020016000151581525090806001815401808255809150506001900390600052602060002090600202016000909190919091506000820151816000015560208201518160010160006101000a81548161ffff021916908361ffff16021790555060408201518160010160026101000a81548161ffff021916908361ffff16021790555060608201518160010160046101000a81548160ff0219169083151502179055505050611c9f6001614e31546127e090919063ffffffff16565b614e3181905550508080611cb290613c7f565b915050611aa3565b50611d23614e3260009054906101000a900461ffff1661ffff16614e3660003373ffffffffffffffffffffffffffffffffffffffff1673ffffffffffffffffffffffffffffffffffffffff168152602001908152602001600020546127e090919063ffffffff16565b614e3660003373ffffffffffffffffffffffffffffffffffffffff1673ffffffffffffffffffffffffffffffffffffffff16815260200190815260200160002081905550565b6000600460009054906101000a900473ffffffffffffffffffffffffffffffffffffffff16905090565b614e2b6020528060005260406000206000915090505481565b611db46118a0565b611dbd57600080fd5b6103e8614e2b60003373ffffffffffffffffffffffffffffffffffffffff1673ffffffffffffffffffffffffffffffffffffffff168152602001908152602001600020819055506103e8614e2c60003373ffffffffffffffffffffffffffffffffffffffff1673ffffffffffffffffffffffffffffffffffffffff168152602001908152602001600020819055506103e8614e2960003373ffffffffffffffffffffffffffffffffffffffff1673ffffffffffffffffffffffffffffffffffffffff168152602001908152602001600020819055506103e8614e2a60003373ffffffffffffffffffffffffffffffffffffffff1673ffffffffffffffffffffffffffffffffffffffff168152602001908152602001600020819055506103e8600360003373ffffffffffffffffffffffffffffffffffffffff1673ffffffffffffffffffffffffffffffffffffffff16815260200190815260200160002081905550565b611f296118a0565b611f3257600080fd5b611f3b81612840565b50565b80611f47610dff565b73ffffffffffffffffffffffffffffffffffffffff16636352211e826040518263ffffffff1660e01b8152600401611f7f91906130d5565b602060405180830381865afa158015611f9c573d6000803e3d6000fd5b505050506040513d601f19601f82011682018060405250810190611fc091906133c7565b73ffffffffffffffffffffffffffffffffffffffff163373ffffffffffffffffffffffffffffffffffffffff161461202d576040517f08c379a000000000000000000000000000000000000000000000000000000000815260040161202490613451565b60405180910390fd5b6000614e2c60003373ffffffffffffffffffffffffffffffffffffffff1673ffffffffffffffffffffffffffffffffffffffff16815260200190815260200160002054116120b0576040517f08c379a00000000000000000000000000000000000000000000000000000000081526004016120a790613d1c565b60405180910390fd5b60098261271081106120c5576120c46137e8565b5b6002020160010160009054906101000a900461ffff1661ffff16600760009054906101000a900461ffff1661ffff1611612134576040517f08c379a000000000000000000000000000000000000000000000000000000000815260040161212b90613dae565b60405180910390fd5b6121886001614e2c60003373ffffffffffffffffffffffffffffffffffffffff1673ffffffffffffffffffffffffffffffffffffffff168152602001908152602001600020546127b990919063ffffffff16565b614e2c60003373ffffffffffffffffffffffffffffffffffffffff1673ffffffffffffffffffffffffffffffffffffffff16815260200190815260200160002081905550600760009054906101000a900461ffff1660098361271081106121f2576121f16137e8565b5b6002020160010160006101000a81548161ffff021916908361ffff1602179055505050565b6000806122246064612937565b905060008080612232610dff565b73ffffffffffffffffffffffffffffffffffffffff1663db07dbb6886040518263ffffffff1660e01b815260040161226a91906130d5565b600060405180830381865afa158015612287573d6000803e3d6000fd5b505050506040513d6000823e3d601f19601f820116820180604052508101906122b09190613684565b509650965050505050508161ffff16866020015161ffff1614156122e6576122e4614e3054846127e090919063ffffffff16565b505b600083614e338360ff1681548110612301576123006137e8565b5b90600052602060002090602091828204019190069054906101000a900460ff1660ff1661232e9190613dce565b90508481106123455760019550505050505061234f565b6000955050505050505b92915050565b6123a9600254600360003373ffffffffffffffffffffffffffffffffffffffff1673ffffffffffffffffffffffffffffffffffffffff168152602001908152602001600020546127e090919063ffffffff16565b600360003373ffffffffffffffffffffffffffffffffffffffff1673ffffffffffffffffffffffffffffffffffffffff16815260200190815260200160002081905550565b6001614e3760003373ffffffffffffffffffffffffffffffffffffffff1673ffffffffffffffffffffffffffffffffffffffff168152602001908152602001600020614e3560003373ffffffffffffffffffffffffffffffffffffffff1673ffffffffffffffffffffffffffffffffffffffff1681526020019081526020016000205481548110612482576124816137e8565b5b906000526020600020906002020160010160046101000a81548160ff0219169083151502179055506124fe6001614e3560003373ffffffffffffffffffffffffffffffffffffffff1673ffffffffffffffffffffffffffffffffffffffff168152602001908152602001600020546127e090919063ffffffff16565b614e3560003373ffffffffffffffffffffffffffffffffffffffff1673ffffffffffffffffffffffffffffffffffffffff16815260200190815260200160002081905550565b60001515614e2d600085815260200190815260200160002060009054906101000a900460ff1615151415612612576040518060400160405280428152602001600760009054906101000a900461ffff1661ffff1681525060098461271081106125b0576125af6137e8565b5b600202016000820151816000015560208201518160010160006101000a81548161ffff021916908361ffff1602179055509050506001614e2d600085815260200190815260200160002060006101000a81548160ff0219169083151502179055505b600061261c610dff565b73ffffffffffffffffffffffffffffffffffffffff1663db07dbb6856040518263ffffffff1660e01b815260040161265491906130d5565b600060405180830381865afa158015612671573d6000803e3d6000fd5b505050506040513d6000823e3d601f19601f8201168201806040525081019061269a9190613684565b5096505050505050506126e484614e348360ff16815481106126bf576126be6137e8565b5b90600052602060002090602091828204019190069054906101000a900460ff16612997565b6126ed84612a15565b7fd2b6b22444768b00d18e4a1c242dc398d49e330c1bae790cad9dcd86da2e20c384848460000151336040516127269493929190613e24565b60405180910390a160018314801561275a5750614e3260009054906101000a900461ffff1661ffff16826040015161ffff16145b1561276857612767612a4d565b5b50505050565b8173ffffffffffffffffffffffffffffffffffffffff166108fc829081150290604051600060405180830381858888f193505050501580156127b4573d6000803e3d6000fd5b505050565b6000828211156127cc576127cb613e69565b5b81836127d89190613bb2565b905092915050565b60008082846127ef9190613dce565b90508381101561280257612801613e69565b5b8091505092915050565b600080828461281b9190613e98565b90508361ffff168161ffff16101561283657612835613e69565b5b8091505092915050565b600073ffffffffffffffffffffffffffffffffffffffff168173ffffffffffffffffffffffffffffffffffffffff16141561287a57600080fd5b8073ffffffffffffffffffffffffffffffffffffffff1660008054906101000a900473ffffffffffffffffffffffffffffffffffffffff1673ffffffffffffffffffffffffffffffffffffffff167f8be0079c531659141344cd1fd0a4f28419497f9722a3daafe3b4186f6b6457e060405160405180910390a3806000806101000a81548173ffffffffffffffffffffffffffffffffffffffff021916908373ffffffffffffffffffffffffffffffffffffffff16021790555050565b600061294f60016005546127e090919063ffffffff16565b60058190555081423360055460405160200161296d93929190613f39565b6040516020818303038152906040528051906020012060001c6129909190613fa5565b9050919050565b6129db8160ff1660098461271081106129b3576129b26137e8565b5b6002020160010160009054906101000a900461ffff1661ffff16612f7790919063ffffffff16565b60098361271081106129f0576129ef6137e8565b5b6002020160010160006101000a81548161ffff021916908361ffff1602179055505050565b42614e2f54612a249190613dce565b63ffffffff166009826127108110612a3f57612a3e6137e8565b5b600202016000018190555050565b6000612a596064612937565b90506008600581548110612a7057612a6f6137e8565b5b90600052602060002090602091828204019190069054906101000a900460ff1660ff168110612b7157612aed6001614e2960003373ffffffffffffffffffffffffffffffffffffffff1673ffffffffffffffffffffffffffffffffffffffff168152602001908152602001600020546127e090919063ffffffff16565b614e2960003373ffffffffffffffffffffffffffffffffffffffff1673ffffffffffffffffffffffffffffffffffffffff168152602001908152602001600020819055507f6fddb25bb38c47b7bfe9cd004ed00e6df440d5d1473cc67ad6bcdad8a99014ee336005604051612b63929190614011565b60405180910390a150612f75565b6008600481548110612b8657612b856137e8565b5b90600052602060002090602091828204019190069054906101000a900460ff1660ff168110612c8757612c036001614e2a60003373ffffffffffffffffffffffffffffffffffffffff1673ffffffffffffffffffffffffffffffffffffffff168152602001908152602001600020546127e090919063ffffffff16565b614e2a60003373ffffffffffffffffffffffffffffffffffffffff1673ffffffffffffffffffffffffffffffffffffffff168152602001908152602001600020819055507f6fddb25bb38c47b7bfe9cd004ed00e6df440d5d1473cc67ad6bcdad8a99014ee336004604051612c79929190614075565b60405180910390a150612f75565b6008600381548110612c9c57612c9b6137e8565b5b90600052602060002090602091828204019190069054906101000a900460ff1660ff168110612d0d57612ccd612355565b7f6fddb25bb38c47b7bfe9cd004ed00e6df440d5d1473cc67ad6bcdad8a99014ee336003604051612cff9291906140d9565b60405180910390a150612f75565b6008600281548110612d2257612d216137e8565b5b90600052602060002090602091828204019190069054906101000a900460ff1660ff168110612e2357612d9f6001614e2b60003373ffffffffffffffffffffffffffffffffffffffff1673ffffffffffffffffffffffffffffffffffffffff168152602001908152602001600020546127e090919063ffffffff16565b614e2b60003373ffffffffffffffffffffffffffffffffffffffff1673ffffffffffffffffffffffffffffffffffffffff168152602001908152602001600020819055507f6fddb25bb38c47b7bfe9cd004ed00e6df440d5d1473cc67ad6bcdad8a99014ee336002604051612e1592919061413d565b60405180910390a150612f75565b6008600181548110612e3857612e376137e8565b5b90600052602060002090602091828204019190069054906101000a900460ff1660ff168110612f3957612eb56001614e2c60003373ffffffffffffffffffffffffffffffffffffffff1673ffffffffffffffffffffffffffffffffffffffff168152602001908152602001600020546127e090919063ffffffff16565b614e2c60003373ffffffffffffffffffffffffffffffffffffffff1673ffffffffffffffffffffffffffffffffffffffff168152602001908152602001600020819055507f6fddb25bb38c47b7bfe9cd004ed00e6df440d5d1473cc67ad6bcdad8a99014ee336001604051612f2b9291906141a1565b60405180910390a150612f75565b7f6fddb25bb38c47b7bfe9cd004ed00e6df440d5d1473cc67ad6bcdad8a99014ee336000604051612f6b929190614205565b60405180910390a1505b565b60008261ffff168261ffff161115612f9257612f91613e69565b5b8183612f9e919061422e565b905092915050565b604051806040016040528060008152602001600061ffff1681525090565b6000604051905090565b600080fd5b600080fd5b6000819050919050565b612feb81612fd8565b8114612ff657600080fd5b50565b60008135905061300881612fe2565b92915050565b60006020828403121561302457613023612fce565b5b600061303284828501612ff9565b91505092915050565b600073ffffffffffffffffffffffffffffffffffffffff82169050919050565b60006130668261303b565b9050919050565b6130768161305b565b811461308157600080fd5b50565b6000813590506130938161306d565b92915050565b6000602082840312156130af576130ae612fce565b5b60006130bd84828501613084565b91505092915050565b6130cf81612fd8565b82525050565b60006020820190506130ea60008301846130c6565b92915050565b600061ffff82169050919050565b613107816130f0565b82525050565b600060408201905061312260008301856130c6565b61312f60208301846130fe565b9392505050565b6000819050919050565b600061315b6131566131518461303b565b613136565b61303b565b9050919050565b600061316d82613140565b9050919050565b600061317f82613162565b9050919050565b61318f81613174565b82525050565b60006020820190506131aa6000830184613186565b92915050565b600080604083850312156131c7576131c6612fce565b5b60006131d585828601613084565b92505060206131e685828601612ff9565b9150509250929050565b60008115159050919050565b613205816131f0565b82525050565b600060808201905061322060008301876130c6565b61322d60208301866130fe565b61323a60408301856130fe565b61324760608301846131fc565b95945050505050565b600060ff82169050919050565b61326681613250565b82525050565b6000602082019050613281600083018461325d565b92915050565b600060208201905061329c60008301846131fc565b92915050565b6132ab81612fd8565b82525050565b6132ba816130f0565b82525050565b6040820160008201516132d660008501826132a2565b5060208201516132e960208501826132b1565b50505050565b600060408201905061330460008301846132c0565b92915050565b6133138161305b565b82525050565b600060208201905061332e600083018461330a565b92915050565b600061333f8261303b565b9050919050565b61334f81613334565b811461335a57600080fd5b50565b60008135905061336c81613346565b92915050565b6000806040838503121561338957613388612fce565b5b60006133978582860161335d565b92505060206133a885828601612ff9565b9150509250929050565b6000815190506133c18161306d565b92915050565b6000602082840312156133dd576133dc612fce565b5b60006133eb848285016133b2565b91505092915050565b600082825260208201905092915050565b7f4e6f7420746865204e4654206f776e65722e0000000000000000000000000000600082015250565b600061343b6012836133f4565b915061344682613405565b602082019050919050565b6000602082019050818103600083015261346a8161342e565b9050919050565b60008151905061348081612fe2565b92915050565b600063ffffffff82169050919050565b61349f81613486565b81146134aa57600080fd5b50565b6000815190506134bc81613496565b92915050565b6134cb816130f0565b81146134d657600080fd5b50565b6000815190506134e8816134c2565b92915050565b6134f781613250565b811461350257600080fd5b50565b600081519050613514816134ee565b92915050565b600080fd5b600080fd5b6000601f19601f8301169050919050565b7f4e487b7100000000000000000000000000000000000000000000000000000000600052604160045260246000fd5b61356d82613524565b810181811067ffffffffffffffff8211171561358c5761358b613535565b5b80604052505050565b600061359f612fc4565b90506135ab8282613564565b919050565b600067ffffffffffffffff8211156135cb576135ca613535565b5b6135d482613524565b9050602081019050919050565b60005b838110156135ff5780820151818401526020810190506135e4565b8381111561360e576000848401525b50505050565b6000613627613622846135b0565b613595565b9050828152602081018484840111156136435761364261351f565b5b61364e8482856135e1565b509392505050565b600082601f83011261366b5761366a61351a565b5b815161367b848260208601613614565b91505092915050565b600080600080600080600080610100898b0312156136a5576136a4612fce565b5b60006136b38b828c01613471565b98505060206136c48b828c01613471565b97505060406136d58b828c016134ad565b96505060606136e68b828c016134d9565b95505060806136f78b828c016134d9565b94505060a06137088b828c016134d9565b93505060c06137198b828c01613505565b92505060e089015167ffffffffffffffff81111561373a57613739612fd3565b5b6137468b828c01613656565b9150509295985092959890939650565b7f5468697320676f6c6620636c7562206973206e6f7420726561647920746f207060008201527f6c6179207965742e000000000000000000000000000000000000000000000000602082015250565b60006137b26028836133f4565b91506137bd82613756565b604082019050919050565b600060208201905081810360008301526137e1816137a5565b9050919050565b7f4e487b7100000000000000000000000000000000000000000000000000000000600052603260045260246000fd5b7f5468697320676f6c6620636c7562206e6565647320746f20626520726570616960008201527f7265640000000000000000000000000000000000000000000000000000000000602082015250565b60006138736023836133f4565b915061387e82613817565b604082019050919050565b600060208201905081810360008301526138a281613866565b9050919050565b7f596f75206e65656420746f2066696e642061206e65772067616d65206669727360008201527f74206265666f726520706c6179696e672e000000000000000000000000000000602082015250565b60006139056031836133f4565b9150613910826138a9565b604082019050919050565b60006020820190508181036000830152613934816138f8565b9050919050565b7f596f7520646f6e2774206861766520616e79204e465420636c61696d2061766160008201527f696c61626c652100000000000000000000000000000000000000000000000000602082015250565b60006139976027836133f4565b91506139a28261393b565b604082019050919050565b600060208201905081810360008301526139c68161398a565b9050919050565b7f596f7520646f6e2774206861766520616e79205570677261646520636c61696d60008201527f206176616c6961626c6521000000000000000000000000000000000000000000602082015250565b6000613a29602b836133f4565b9150613a34826139cd565b604082019050919050565b60006020820190508181036000830152613a5881613a1c565b9050919050565b7f596f7520646f6e2774206861766520616e7920656e6572677920636c61696d2060008201527f6176616c6961626c652100000000000000000000000000000000000000000000602082015250565b6000613abb602a836133f4565b9150613ac682613a5f565b604082019050919050565b60006020820190508181036000830152613aea81613aae565b9050919050565b7f476f6c6620436c756220697320616c72656164792066756c6c2063686172676560008201527f6421000000000000000000000000000000000000000000000000000000000000602082015250565b6000613b4d6022836133f4565b9150613b5882613af1565b604082019050919050565b60006020820190508181036000830152613b7c81613b40565b9050919050565b7f4e487b7100000000000000000000000000000000000000000000000000000000600052601160045260246000fd5b6000613bbd82612fd8565b9150613bc883612fd8565b925082821015613bdb57613bda613b83565b5b828203905092915050565b7f56616c75652073656e74206973206e6f7420636f72726563742e000000000000600082015250565b6000613c1c601a836133f4565b9150613c2782613be6565b602082019050919050565b60006020820190508181036000830152613c4b81613c0f565b9050919050565b600060208284031215613c6857613c67612fce565b5b6000613c76848285016134d9565b91505092915050565b6000613c8a826130f0565b915061ffff821415613c9f57613c9e613b83565b5b600182019050919050565b7f596f7520646f6e2774206861766520616e7920726570616972206b697420617660008201527f616c6961626c6521000000000000000000000000000000000000000000000000602082015250565b6000613d066028836133f4565b9150613d1182613caa565b604082019050919050565b60006020820190508181036000830152613d3581613cf9565b9050919050565b7f476f6c6620436c756220697320616c72656164792066756c6c2064757261626960008201527f6c69747921000000000000000000000000000000000000000000000000000000602082015250565b6000613d986025836133f4565b9150613da382613d3c565b604082019050919050565b60006020820190508181036000830152613dc781613d8b565b9050919050565b6000613dd982612fd8565b9150613de483612fd8565b9250827fffffffffffffffffffffffffffffffffffffffffffffffffffffffffffffffff03821115613e1957613e18613b83565b5b828201905092915050565b6000608082019050613e3960008301876130c6565b613e4660208301866130c6565b613e5360408301856130c6565b613e60606083018461330a565b95945050505050565b7f4e487b7100000000000000000000000000000000000000000000000000000000600052600160045260246000fd5b6000613ea3826130f0565b9150613eae836130f0565b92508261ffff03821115613ec557613ec4613b83565b5b828201905092915050565b6000819050919050565b613eeb613ee682612fd8565b613ed0565b82525050565b60008160601b9050919050565b6000613f0982613ef1565b9050919050565b6000613f1b82613efe565b9050919050565b613f33613f2e8261305b565b613f10565b82525050565b6000613f458286613eda565b602082019150613f558285613f22565b601482019150613f658284613eda565b602082019150819050949350505050565b7f4e487b7100000000000000000000000000000000000000000000000000000000600052601260045260246000fd5b6000613fb082612fd8565b9150613fbb83612fd8565b925082613fcb57613fca613f76565b5b828206905092915050565b6000819050919050565b6000613ffb613ff6613ff184613fd6565b613136565b612fd8565b9050919050565b61400b81613fe0565b82525050565b6000604082019050614026600083018561330a565b6140336020830184614002565b9392505050565b6000819050919050565b600061405f61405a6140558461403a565b613136565b612fd8565b9050919050565b61406f81614044565b82525050565b600060408201905061408a600083018561330a565b6140976020830184614066565b9392505050565b6000819050919050565b60006140c36140be6140b98461409e565b613136565b612fd8565b9050919050565b6140d3816140a8565b82525050565b60006040820190506140ee600083018561330a565b6140fb60208301846140ca565b9392505050565b6000819050919050565b600061412761412261411d84614102565b613136565b612fd8565b9050919050565b6141378161410c565b82525050565b6000604082019050614152600083018561330a565b61415f602083018461412e565b9392505050565b6000819050919050565b600061418b61418661418184614166565b613136565b612fd8565b9050919050565b61419b81614170565b82525050565b60006040820190506141b6600083018561330a565b6141c36020830184614192565b9392505050565b6000819050919050565b60006141ef6141ea6141e5846141ca565b613136565b612fd8565b9050919050565b6141ff816141d4565b82525050565b600060408201905061421a600083018561330a565b61422760208301846141f6565b9392505050565b6000614239826130f0565b9150614244836130f0565b92508282101561425757614256613b83565b5b82820390509291505056fea2646970667358221220a2035aa8c66fe3aa3d02825ed916ab5d7fe519d0b00d1f8069a010647e5dfa8f64736f6c634300080b0033",
  "immutableReferences": {},
  "source": "pragma solidity ^0.8.0;\n\nimport \"./2_GolfClubRewards.sol\";\n\ncontract GolfClubGameplay is GolfClubRewards {\n    using SafeMath for uint256;\n    using SafeMath32 for uint32;\n    using SafeMath16 for uint16;\n\n    event RoundPlayed(\n        uint256 _golfClubId,\n        uint256 _matchResult,\n        uint256 _roundId,\n        address _owner\n    );\n\n    uint256 gameFee = 0.015 ether;\n    uint256 golfClubCooldownTime = 1 days;\n    uint256 bonusForPerk = 1;\n    uint256 nextRoundId = 0;\n    uint16 roundsPerGame = 18;\n    //uint8[] public victoryProbability = [45, 50, 57, 68, 80]; // Common, Uncommon, Rare, Epic, Legendary\n    uint8[] public victoryProbability = [55, 60, 67, 78, 90]; // Common, Uncommon, Rare, Epic, Legendary\n    uint8[] public durabilityDropRate = [6, 5, 4, 3, 2]; // Common, Uncommon, Rare, Epic, Legendary\n\n    struct Round {\n        uint256 id;\n        uint16 bonusPerkType;\n        uint16 hole;\n        bool victory;\n    }\n\n    mapping(address => uint256) public victories;\n    mapping(address => uint256) public totalRounds;\n    mapping(address => Round[]) public playerRounds;\n\n    modifier canPlayWithGolfClub(uint256 _golfClubId) {\n        (, , , , , , uint8 _rarity, ) = getToken().golf_clubs(_golfClubId);\n        require(\n            getStats(_golfClubId).readyTime <= block.timestamp,\n            \"This golf club is not ready to play yet.\"\n        );\n        require(\n            getStats(_golfClubId).durability >= durabilityDropRate[_rarity],\n            \"This golf club needs to be repaired\"\n        );\n        _;\n    }\n\n    function _triggerCooldown(uint256 _golfClubId) private {\n        golfClubStats[_golfClubId].readyTime = uint32(\n            golfClubCooldownTime + block.timestamp\n        );\n    }\n\n    function _decreaseDurability(uint256 _golfClubId, uint8 dropDurability)\n        private\n    {\n        golfClubStats[_golfClubId].durability = golfClubStats[_golfClubId]\n            .durability\n            .sub(dropDurability);\n    }\n\n    function _getMatchResult(uint256 _golfClubId, Round memory _round)\n        private\n        returns (uint256)\n    {\n        uint256 rand = _randMod(100);\n        uint256 _bonus = 0;\n\n        (, , , , , uint16 _playType, uint8 _rarity, ) = getToken().golf_clubs(\n            _golfClubId\n        );\n\n        if (_round.bonusPerkType == _playType) _bonus.add(bonusForPerk);\n        uint256 finalResult = victoryProbability[_rarity] + _bonus;\n\n        if (finalResult >= rand) return 1;\n        return 0;\n    }\n\n    function addRoundWin() private {\n        playerRounds[msg.sender][victories[msg.sender]].victory = true;\n        victories[msg.sender] = victories[msg.sender].add(1);\n    }\n\n    function afterEachGame(\n        uint256 _golfClubId,\n        uint256 _matchResult,\n        Round memory _currentRound\n    ) private {\n        if (havePlayed[_golfClubId] == false) {\n            golfClubStats[_golfClubId] = Stats(block.timestamp, maxDurability);\n            havePlayed[_golfClubId] = true;\n        }\n        (, , , , , , uint8 _rarity, ) = getToken().golf_clubs(_golfClubId);\n        _decreaseDurability(_golfClubId, durabilityDropRate[_rarity]); // Decrease current durability\n        _triggerCooldown(_golfClubId); // 24h cooldown\n\n        emit RoundPlayed(\n            _golfClubId,\n            _matchResult,\n            _currentRound.id,\n            msg.sender\n        ); // Send event to frontend, filterable by _owner = msg.sender\n\n        if (_matchResult == 1 && _currentRound.hole == roundsPerGame)\n            randomRoulletPrize();\n    }\n\n    function findGame() external payable {\n        require(msg.value == gameFee, \"Value sent is not correct.\");\n        for (uint16 i = 0; i < roundsPerGame; i++) {\n            randNonce = randNonce.add(1);\n            uint16 _playType = getToken().getRandGolfClubType(randNonce);\n            playerRounds[msg.sender].push(\n                Round(nextRoundId, _playType, i.add(1), false)\n            );\n            nextRoundId = nextRoundId.add(1);\n        }\n        totalRounds[msg.sender] = totalRounds[msg.sender].add(roundsPerGame);\n    }\n\n    function playRound(uint256 _golfClubId)\n        external\n        onlyOwnerOf(_golfClubId)\n        canPlayWithGolfClub(_golfClubId)\n    {\n        require(\n            playerRounds[msg.sender].length > 0 &&\n                playerRounds[msg.sender][victories[msg.sender]].victory ==\n                false,\n            \"You need to find a new game first before playing.\"\n        );\n        Round memory _currentRound = playerRounds[msg.sender][\n            victories[msg.sender]\n        ];\n        uint256 matchResult = _getMatchResult(_golfClubId, _currentRound);\n        if (matchResult == 1) {\n            getToken().addGolfClubWin(_golfClubId);\n            addPaymentToClaimBalance();\n            addRoundWin();\n        } else {\n            getToken().addGolfClubLoss(_golfClubId);\n        }\n        afterEachGame(_golfClubId, matchResult, _currentRound);\n    }\n\n    function secondsToPlay(uint256 _golfClubId) public view returns (uint256) {\n        if (block.timestamp >= getStats(_golfClubId).readyTime) return 0;\n        uint256 diff = (golfClubStats[_golfClubId].readyTime - block.timestamp);\n        return diff;\n    }\n}\n",
  "sourcePath": "/home/roger/Documents/albatross-mvp/truffle/contracts/2_GolfClubGameplay.sol",
  "compiler": {
    "name": "solc",
    "version": "0.8.11+commit.d7f03943.Emscripten.clang"
  },
  "schemaVersion": "3.4.4",
  "updatedAt": "2022-02-01T03:34:24.625Z",
  "devdoc": {
    "kind": "dev",
    "methods": {
      "isOwner()": {
        "returns": {
          "_0": "true if `msg.sender` is the owner of the contract."
        }
      },
      "owner()": {
        "returns": {
          "_0": "the address of the owner."
        }
      },
      "renounceOwnership()": {
        "details": "Allows the current owner to relinquish control of the contract."
      },
      "transferOwnership(address)": {
        "details": "Allows the current owner to transfer control of the contract to a newOwner.",
        "params": {
          "newOwner": "The address to transfer ownership to."
        }
      }
    },
    "version": 1
  },
  "userdoc": {
    "kind": "user",
    "methods": {
      "renounceOwnership()": {
        "notice": "Renouncing to ownership will leave the contract without an owner. It will not be possible to call the functions with the `onlyOwner` modifier anymore."
      }
    },
    "version": 1
  }
}