{
  "contractName": "GolfClubRewards",
  "abi": [
    {
      "anonymous": false,
      "inputs": [
        {
          "indexed": true,
          "internalType": "address",
          "name": "previousOwner",
          "type": "address"
        },
        {
          "indexed": true,
          "internalType": "address",
          "name": "newOwner",
          "type": "address"
        }
      ],
      "name": "OwnershipTransferred",
      "type": "event"
    },
    {
      "anonymous": false,
      "inputs": [
        {
          "indexed": false,
          "internalType": "address",
          "name": "_owner",
          "type": "address"
        },
        {
          "indexed": false,
          "internalType": "uint256",
          "name": "prizeId",
          "type": "uint256"
        }
      ],
      "name": "RoulletPrize",
      "type": "event"
    },
    {
      "inputs": [
        {
          "internalType": "address",
          "name": "",
          "type": "address"
        }
      ],
      "name": "claimBalance",
      "outputs": [
        {
          "internalType": "uint256",
          "name": "",
          "type": "uint256"
        }
      ],
      "stateMutability": "view",
      "type": "function"
    },
    {
      "inputs": [
        {
          "internalType": "address",
          "name": "",
          "type": "address"
        }
      ],
      "name": "claimNFTBalance",
      "outputs": [
        {
          "internalType": "uint256",
          "name": "",
          "type": "uint256"
        }
      ],
      "stateMutability": "view",
      "type": "function"
    },
    {
      "inputs": [],
      "name": "claimRewards",
      "outputs": [],
      "stateMutability": "nonpayable",
      "type": "function"
    },
    {
      "inputs": [
        {
          "internalType": "address",
          "name": "",
          "type": "address"
        }
      ],
      "name": "energyBalance",
      "outputs": [
        {
          "internalType": "uint256",
          "name": "",
          "type": "uint256"
        }
      ],
      "stateMutability": "view",
      "type": "function"
    },
    {
      "inputs": [
        {
          "internalType": "uint256",
          "name": "",
          "type": "uint256"
        }
      ],
      "name": "golfClubStats",
      "outputs": [
        {
          "internalType": "uint256",
          "name": "readyTime",
          "type": "uint256"
        },
        {
          "internalType": "uint16",
          "name": "durability",
          "type": "uint16"
        }
      ],
      "stateMutability": "view",
      "type": "function"
    },
    {
      "inputs": [
        {
          "internalType": "uint256",
          "name": "",
          "type": "uint256"
        }
      ],
      "name": "havePlayed",
      "outputs": [
        {
          "internalType": "bool",
          "name": "",
          "type": "bool"
        }
      ],
      "stateMutability": "view",
      "type": "function"
    },
    {
      "inputs": [],
      "name": "isOwner",
      "outputs": [
        {
          "internalType": "bool",
          "name": "",
          "type": "bool"
        }
      ],
      "stateMutability": "view",
      "type": "function"
    },
    {
      "inputs": [],
      "name": "owner",
      "outputs": [
        {
          "internalType": "address",
          "name": "",
          "type": "address"
        }
      ],
      "stateMutability": "view",
      "type": "function"
    },
    {
      "inputs": [],
      "name": "renounceOwnership",
      "outputs": [],
      "stateMutability": "nonpayable",
      "type": "function"
    },
    {
      "inputs": [
        {
          "internalType": "address",
          "name": "",
          "type": "address"
        }
      ],
      "name": "repairBalance",
      "outputs": [
        {
          "internalType": "uint256",
          "name": "",
          "type": "uint256"
        }
      ],
      "stateMutability": "view",
      "type": "function"
    },
    {
      "inputs": [
        {
          "internalType": "uint256",
          "name": "",
          "type": "uint256"
        }
      ],
      "name": "roulettePrizePercentages",
      "outputs": [
        {
          "internalType": "uint8",
          "name": "",
          "type": "uint8"
        }
      ],
      "stateMutability": "view",
      "type": "function"
    },
    {
      "inputs": [
        {
          "internalType": "address payable",
          "name": "_to",
          "type": "address"
        },
        {
          "internalType": "uint256",
          "name": "_amount",
          "type": "uint256"
        }
      ],
      "name": "sendEthFromContract",
      "outputs": [],
      "stateMutability": "nonpayable",
      "type": "function"
    },
    {
      "inputs": [],
      "name": "sendEthToContract",
      "outputs": [],
      "stateMutability": "payable",
      "type": "function"
    },
    {
      "inputs": [
        {
          "internalType": "address",
          "name": "newOwner",
          "type": "address"
        }
      ],
      "name": "transferOwnership",
      "outputs": [],
      "stateMutability": "nonpayable",
      "type": "function"
    },
    {
      "inputs": [
        {
          "internalType": "address",
          "name": "",
          "type": "address"
        }
      ],
      "name": "upgradeBalance",
      "outputs": [
        {
          "internalType": "uint256",
          "name": "",
          "type": "uint256"
        }
      ],
      "stateMutability": "view",
      "type": "function"
    },
    {
      "inputs": [
        {
          "internalType": "address",
          "name": "_contractAddress",
          "type": "address"
        }
      ],
      "name": "setGolfClubContract",
      "outputs": [],
      "stateMutability": "nonpayable",
      "type": "function"
    },
    {
      "inputs": [],
      "name": "getGolfClubContractAddress",
      "outputs": [
        {
          "internalType": "address",
          "name": "",
          "type": "address"
        }
      ],
      "stateMutability": "view",
      "type": "function"
    },
    {
      "inputs": [],
      "name": "getToken",
      "outputs": [
        {
          "internalType": "contract GolfClubNFT",
          "name": "",
          "type": "address"
        }
      ],
      "stateMutability": "view",
      "type": "function"
    },
    {
      "inputs": [
        {
          "internalType": "uint256",
          "name": "_golfClubId",
          "type": "uint256"
        }
      ],
      "name": "getStats",
      "outputs": [
        {
          "components": [
            {
              "internalType": "uint256",
              "name": "readyTime",
              "type": "uint256"
            },
            {
              "internalType": "uint16",
              "name": "durability",
              "type": "uint16"
            }
          ],
          "internalType": "struct GolfClubRewards.Stats",
          "name": "",
          "type": "tuple"
        }
      ],
      "stateMutability": "view",
      "type": "function"
    },
    {
      "inputs": [],
      "name": "claimNFT",
      "outputs": [],
      "stateMutability": "nonpayable",
      "type": "function"
    },
    {
      "inputs": [
        {
          "internalType": "uint256",
          "name": "_golfClubId",
          "type": "uint256"
        }
      ],
      "name": "claimUpgrade",
      "outputs": [],
      "stateMutability": "nonpayable",
      "type": "function"
    },
    {
      "inputs": [
        {
          "internalType": "uint256",
          "name": "_golfClubId",
          "type": "uint256"
        }
      ],
      "name": "claimResetCooldown",
      "outputs": [],
      "stateMutability": "nonpayable",
      "type": "function"
    },
    {
      "inputs": [
        {
          "internalType": "uint256",
          "name": "_golfClubId",
          "type": "uint256"
        }
      ],
      "name": "claimResetDurability",
      "outputs": [],
      "stateMutability": "nonpayable",
      "type": "function"
    },
    {
      "inputs": [],
      "name": "testBalance",
      "outputs": [],
      "stateMutability": "nonpayable",
      "type": "function"
    }
  ],
  "bytecode": "0x6080604052670de0b6b3a764000060015566354a6ba7a180006002556000600555670214e8348c4f00006006556103e8600760006101000a81548161ffff021916908361ffff1602179055506040518060c00160405280600060ff168152602001601060ff168152602001602060ff168152602001603060ff168152602001604060ff168152602001605060ff168152506008906006620000a292919062000172565b50348015620000b057600080fd5b50336000806101000a81548173ffffffffffffffffffffffffffffffffffffffff021916908373ffffffffffffffffffffffffffffffffffffffff16021790555060008054906101000a900473ffffffffffffffffffffffffffffffffffffffff1673ffffffffffffffffffffffffffffffffffffffff16600073ffffffffffffffffffffffffffffffffffffffff167f8be0079c531659141344cd1fd0a4f28419497f9722a3daafe3b4186f6b6457e060405160405180910390a36200023f565b82805482825590600052602060002090601f016020900481019282156200020d5791602002820160005b83821115620001dc57835183826101000a81548160ff021916908360ff16021790555092602001926001016020816000010492830192600103026200019c565b80156200020b5782816101000a81549060ff0219169055600101602081600001049283019260010302620001dc565b505b5090506200021c919062000220565b5090565b5b808211156200023b57600081600090555060010162000221565b5090565b611f8f806200024f6000396000f3fe60806040526004361061014b5760003560e01c806375b2f1a9116100b6578063becccfbc1161006f578063becccfbc14610484578063dcc75ca5146104ad578063ed7653e7146104d8578063edede60114610515578063f2fde38b1461052c578063f37621e2146105555761014b565b806375b2f1a91461034e5780637b303965146103775780638da5cb5b146103b45780638f32d59b146103df578063a147d4321461040a578063b633e4cd146104475761014b565b806359346523116101085780635934652314610287578063611f64a6146102c4578063672756ad146102ed5780636816a72514610304578063713f5e4d1461032d578063715018a6146103375761014b565b80630839511a146101505780630b9f8a1f1461018d5780631351d0cd146101cb57806321df0da714610208578063372500ab146102335780634bc547731461024a575b600080fd5b34801561015c57600080fd5b5061017760048036038101906101729190611776565b61057e565b60405161018491906117bc565b60405180910390f35b34801561019957600080fd5b506101b460048036038101906101af9190611803565b610597565b6040516101c292919061184d565b60405180910390f35b3480156101d757600080fd5b506101f260048036038101906101ed9190611776565b6105d0565b6040516101ff91906117bc565b60405180910390f35b34801561021457600080fd5b5061021d6105e9565b60405161022a91906118d5565b60405180910390f35b34801561023f57600080fd5b50610248610613565b005b34801561025657600080fd5b50610271600480360381019061026c9190611803565b6106ef565b60405161027e919061190c565b60405180910390f35b34801561029357600080fd5b506102ae60048036038101906102a99190611803565b610723565b6040516102bb9190611942565b60405180910390f35b3480156102d057600080fd5b506102eb60048036038101906102e69190611776565b610744565b005b3480156102f957600080fd5b50610302610799565b005b34801561031057600080fd5b5061032b60048036038101906103269190611803565b610928565b005b610335610ba8565b005b34801561034357600080fd5b5061034c610bb9565b005b34801561035a57600080fd5b5061037560048036038101906103709190611803565b610c88565b005b34801561038357600080fd5b5061039e60048036038101906103999190611803565b610f15565b6040516103ab91906119aa565b60405180910390f35b3480156103c057600080fd5b506103c9610fd1565b6040516103d691906119d4565b60405180910390f35b3480156103eb57600080fd5b506103f4610ffa565b6040516104019190611942565b60405180910390f35b34801561041657600080fd5b50610431600480360381019061042c9190611776565b611051565b60405161043e91906117bc565b60405180910390f35b34801561045357600080fd5b5061046e60048036038101906104699190611776565b61106a565b60405161047b91906117bc565b60405180910390f35b34801561049057600080fd5b506104ab60048036038101906104a69190611a2d565b611082565b005b3480156104b957600080fd5b506104c26110de565b6040516104cf91906119d4565b60405180910390f35b3480156104e457600080fd5b506104ff60048036038101906104fa9190611776565b611108565b60405161050c91906117bc565b60405180910390f35b34801561052157600080fd5b5061052a611121565b005b34801561053857600080fd5b50610553600480360381019061054e9190611776565b611296565b005b34801561056157600080fd5b5061057c60048036038101906105779190611803565b6112b3565b005b614e296020528060005260406000206000915090505481565b60098161271081106105a857600080fd5b600202016000915090508060000154908060010160009054906101000a900461ffff16905082565b614e2a6020528060005260406000206000915090505481565b6000600460009054906101000a900473ffffffffffffffffffffffffffffffffffffffff16905090565b6000600360003373ffffffffffffffffffffffffffffffffffffffff1673ffffffffffffffffffffffffffffffffffffffff168152602001908152602001600020541161065f57600080fd5b6106a833600360003373ffffffffffffffffffffffffffffffffffffffff1673ffffffffffffffffffffffffffffffffffffffff1681526020019081526020016000205461158c565b6000600360003373ffffffffffffffffffffffffffffffffffffffff1673ffffffffffffffffffffffffffffffffffffffff16815260200190815260200160002081905550565b600881815481106106ff57600080fd5b9060005260206000209060209182820401919006915054906101000a900460ff1681565b614e2d6020528060005260406000206000915054906101000a900460ff1681565b61074c610ffa565b61075557600080fd5b80600460006101000a81548173ffffffffffffffffffffffffffffffffffffffff021916908373ffffffffffffffffffffffffffffffffffffffff16021790555050565b6000614e2a60003373ffffffffffffffffffffffffffffffffffffffff1673ffffffffffffffffffffffffffffffffffffffff168152602001908152602001600020541161081c576040517f08c379a000000000000000000000000000000000000000000000000000000000815260040161081390611af0565b60405180910390fd5b6108706001614e2a60003373ffffffffffffffffffffffffffffffffffffffff1673ffffffffffffffffffffffffffffffffffffffff168152602001908152602001600020546115d790919063ffffffff16565b614e2a60003373ffffffffffffffffffffffffffffffffffffffff1673ffffffffffffffffffffffffffffffffffffffff168152602001908152602001600020819055506108bc6105e9565b73ffffffffffffffffffffffffffffffffffffffff16636e2cded0336040518263ffffffff1660e01b81526004016108f491906119d4565b600060405180830381600087803b15801561090e57600080fd5b505af1158015610922573d6000803e3d6000fd5b50505050565b806109316105e9565b73ffffffffffffffffffffffffffffffffffffffff16636352211e826040518263ffffffff1660e01b815260040161096991906117bc565b602060405180830381865afa158015610986573d6000803e3d6000fd5b505050506040513d601f19601f820116820180604052508101906109aa9190611b25565b73ffffffffffffffffffffffffffffffffffffffff163373ffffffffffffffffffffffffffffffffffffffff1614610a17576040517f08c379a0000000000000000000000000000000000000000000000000000000008152600401610a0e90611b9e565b60405180910390fd5b6000614e2960003373ffffffffffffffffffffffffffffffffffffffff1673ffffffffffffffffffffffffffffffffffffffff1681526020019081526020016000205411610a9a576040517f08c379a0000000000000000000000000000000000000000000000000000000008152600401610a9190611c30565b60405180910390fd5b610aee6001614e2960003373ffffffffffffffffffffffffffffffffffffffff1673ffffffffffffffffffffffffffffffffffffffff168152602001908152602001600020546115d790919063ffffffff16565b614e2960003373ffffffffffffffffffffffffffffffffffffffff1673ffffffffffffffffffffffffffffffffffffffff16815260200190815260200160002081905550610b3a6105e9565b73ffffffffffffffffffffffffffffffffffffffff1663c6f2df1a836040518263ffffffff1660e01b8152600401610b7291906117bc565b600060405180830381600087803b158015610b8c57600080fd5b505af1158015610ba0573d6000803e3d6000fd5b505050505050565b600154341015610bb757600080fd5b565b610bc1610ffa565b610bca57600080fd5b600073ffffffffffffffffffffffffffffffffffffffff1660008054906101000a900473ffffffffffffffffffffffffffffffffffffffff1673ffffffffffffffffffffffffffffffffffffffff167f8be0079c531659141344cd1fd0a4f28419497f9722a3daafe3b4186f6b6457e060405160405180910390a360008060006101000a81548173ffffffffffffffffffffffffffffffffffffffff021916908373ffffffffffffffffffffffffffffffffffffffff160217905550565b80610c916105e9565b73ffffffffffffffffffffffffffffffffffffffff16636352211e826040518263ffffffff1660e01b8152600401610cc991906117bc565b602060405180830381865afa158015610ce6573d6000803e3d6000fd5b505050506040513d601f19601f82011682018060405250810190610d0a9190611b25565b73ffffffffffffffffffffffffffffffffffffffff163373ffffffffffffffffffffffffffffffffffffffff1614610d77576040517f08c379a0000000000000000000000000000000000000000000000000000000008152600401610d6e90611b9e565b60405180910390fd5b6000614e2b60003373ffffffffffffffffffffffffffffffffffffffff1673ffffffffffffffffffffffffffffffffffffffff1681526020019081526020016000205411610dfa576040517f08c379a0000000000000000000000000000000000000000000000000000000008152600401610df190611cc2565b60405180910390fd5b6009826127108110610e0f57610e0e611ce2565b5b60020201600001544210610e58576040517f08c379a0000000000000000000000000000000000000000000000000000000008152600401610e4f90611d83565b60405180910390fd5b610eac6001614e2b60003373ffffffffffffffffffffffffffffffffffffffff1673ffffffffffffffffffffffffffffffffffffffff168152602001908152602001600020546115d790919063ffffffff16565b614e2b60003373ffffffffffffffffffffffffffffffffffffffff1673ffffffffffffffffffffffffffffffffffffffff16815260200190815260200160002081905550426009836127108110610f0657610f05611ce2565b5b60020201600001819055505050565b610f1d6116f5565b60001515614e2d600084815260200190815260200160002060009054906101000a900460ff1615151415610f7b576040518060400160405280428152602001600760009054906101000a900461ffff1661ffff168152509050610fcc565b6009826127108110610f9057610f8f611ce2565b5b60020201604051806040016040529081600082015481526020016001820160009054906101000a900461ffff1661ffff1661ffff168152505090505b919050565b60008060009054906101000a900473ffffffffffffffffffffffffffffffffffffffff16905090565b60008060009054906101000a900473ffffffffffffffffffffffffffffffffffffffff1673ffffffffffffffffffffffffffffffffffffffff163373ffffffffffffffffffffffffffffffffffffffff1614905090565b614e2c6020528060005260406000206000915090505481565b60036020528060005260406000206000915090505481565b61108a610ffa565b61109357600080fd5b8173ffffffffffffffffffffffffffffffffffffffff166108fc829081150290604051600060405180830381858888f193505050501580156110d9573d6000803e3d6000fd5b505050565b6000600460009054906101000a900473ffffffffffffffffffffffffffffffffffffffff16905090565b614e2b6020528060005260406000206000915090505481565b611129610ffa565b61113257600080fd5b6103e8614e2b60003373ffffffffffffffffffffffffffffffffffffffff1673ffffffffffffffffffffffffffffffffffffffff168152602001908152602001600020819055506103e8614e2c60003373ffffffffffffffffffffffffffffffffffffffff1673ffffffffffffffffffffffffffffffffffffffff168152602001908152602001600020819055506103e8614e2960003373ffffffffffffffffffffffffffffffffffffffff1673ffffffffffffffffffffffffffffffffffffffff168152602001908152602001600020819055506103e8614e2a60003373ffffffffffffffffffffffffffffffffffffffff1673ffffffffffffffffffffffffffffffffffffffff168152602001908152602001600020819055506103e8600360003373ffffffffffffffffffffffffffffffffffffffff1673ffffffffffffffffffffffffffffffffffffffff16815260200190815260200160002081905550565b61129e610ffa565b6112a757600080fd5b6112b0816115fe565b50565b806112bc6105e9565b73ffffffffffffffffffffffffffffffffffffffff16636352211e826040518263ffffffff1660e01b81526004016112f491906117bc565b602060405180830381865afa158015611311573d6000803e3d6000fd5b505050506040513d601f19601f820116820180604052508101906113359190611b25565b73ffffffffffffffffffffffffffffffffffffffff163373ffffffffffffffffffffffffffffffffffffffff16146113a2576040517f08c379a000000000000000000000000000000000000000000000000000000000815260040161139990611b9e565b60405180910390fd5b6000614e2c60003373ffffffffffffffffffffffffffffffffffffffff1673ffffffffffffffffffffffffffffffffffffffff1681526020019081526020016000205411611425576040517f08c379a000000000000000000000000000000000000000000000000000000000815260040161141c90611e15565b60405180910390fd5b600982612710811061143a57611439611ce2565b5b6002020160010160009054906101000a900461ffff1661ffff16600760009054906101000a900461ffff1661ffff16116114a9576040517f08c379a00000000000000000000000000000000000000000000000000000000081526004016114a090611ea7565b60405180910390fd5b6114fd6001614e2c60003373ffffffffffffffffffffffffffffffffffffffff1673ffffffffffffffffffffffffffffffffffffffff168152602001908152602001600020546115d790919063ffffffff16565b614e2c60003373ffffffffffffffffffffffffffffffffffffffff1673ffffffffffffffffffffffffffffffffffffffff16815260200190815260200160002081905550600760009054906101000a900461ffff16600983612710811061156757611566611ce2565b5b6002020160010160006101000a81548161ffff021916908361ffff1602179055505050565b8173ffffffffffffffffffffffffffffffffffffffff166108fc829081150290604051600060405180830381858888f193505050501580156115d2573d6000803e3d6000fd5b505050565b6000828211156115ea576115e9611ec7565b5b81836115f69190611f25565b905092915050565b600073ffffffffffffffffffffffffffffffffffffffff168173ffffffffffffffffffffffffffffffffffffffff16141561163857600080fd5b8073ffffffffffffffffffffffffffffffffffffffff1660008054906101000a900473ffffffffffffffffffffffffffffffffffffffff1673ffffffffffffffffffffffffffffffffffffffff167f8be0079c531659141344cd1fd0a4f28419497f9722a3daafe3b4186f6b6457e060405160405180910390a3806000806101000a81548173ffffffffffffffffffffffffffffffffffffffff021916908373ffffffffffffffffffffffffffffffffffffffff16021790555050565b604051806040016040528060008152602001600061ffff1681525090565b600080fd5b600073ffffffffffffffffffffffffffffffffffffffff82169050919050565b600061174382611718565b9050919050565b61175381611738565b811461175e57600080fd5b50565b6000813590506117708161174a565b92915050565b60006020828403121561178c5761178b611713565b5b600061179a84828501611761565b91505092915050565b6000819050919050565b6117b6816117a3565b82525050565b60006020820190506117d160008301846117ad565b92915050565b6117e0816117a3565b81146117eb57600080fd5b50565b6000813590506117fd816117d7565b92915050565b60006020828403121561181957611818611713565b5b6000611827848285016117ee565b91505092915050565b600061ffff82169050919050565b61184781611830565b82525050565b600060408201905061186260008301856117ad565b61186f602083018461183e565b9392505050565b6000819050919050565b600061189b61189661189184611718565b611876565b611718565b9050919050565b60006118ad82611880565b9050919050565b60006118bf826118a2565b9050919050565b6118cf816118b4565b82525050565b60006020820190506118ea60008301846118c6565b92915050565b600060ff82169050919050565b611906816118f0565b82525050565b600060208201905061192160008301846118fd565b92915050565b60008115159050919050565b61193c81611927565b82525050565b60006020820190506119576000830184611933565b92915050565b611966816117a3565b82525050565b61197581611830565b82525050565b604082016000820151611991600085018261195d565b5060208201516119a4602085018261196c565b50505050565b60006040820190506119bf600083018461197b565b92915050565b6119ce81611738565b82525050565b60006020820190506119e960008301846119c5565b92915050565b60006119fa82611718565b9050919050565b611a0a816119ef565b8114611a1557600080fd5b50565b600081359050611a2781611a01565b92915050565b60008060408385031215611a4457611a43611713565b5b6000611a5285828601611a18565b9250506020611a63858286016117ee565b9150509250929050565b600082825260208201905092915050565b7f596f7520646f6e2774206861766520616e79204e465420636c61696d2061766160008201527f696c61626c652100000000000000000000000000000000000000000000000000602082015250565b6000611ada602783611a6d565b9150611ae582611a7e565b604082019050919050565b60006020820190508181036000830152611b0981611acd565b9050919050565b600081519050611b1f8161174a565b92915050565b600060208284031215611b3b57611b3a611713565b5b6000611b4984828501611b10565b91505092915050565b7f4e6f7420746865204e4654206f776e65722e0000000000000000000000000000600082015250565b6000611b88601283611a6d565b9150611b9382611b52565b602082019050919050565b60006020820190508181036000830152611bb781611b7b565b9050919050565b7f596f7520646f6e2774206861766520616e79205570677261646520636c61696d60008201527f206176616c6961626c6521000000000000000000000000000000000000000000602082015250565b6000611c1a602b83611a6d565b9150611c2582611bbe565b604082019050919050565b60006020820190508181036000830152611c4981611c0d565b9050919050565b7f596f7520646f6e2774206861766520616e7920656e6572677920636c61696d2060008201527f6176616c6961626c652100000000000000000000000000000000000000000000602082015250565b6000611cac602a83611a6d565b9150611cb782611c50565b604082019050919050565b60006020820190508181036000830152611cdb81611c9f565b9050919050565b7f4e487b7100000000000000000000000000000000000000000000000000000000600052603260045260246000fd5b7f476f6c6620436c756220697320616c72656164792066756c6c2063686172676560008201527f6421000000000000000000000000000000000000000000000000000000000000602082015250565b6000611d6d602283611a6d565b9150611d7882611d11565b604082019050919050565b60006020820190508181036000830152611d9c81611d60565b9050919050565b7f596f7520646f6e2774206861766520616e7920726570616972206b697420617660008201527f616c6961626c6521000000000000000000000000000000000000000000000000602082015250565b6000611dff602883611a6d565b9150611e0a82611da3565b604082019050919050565b60006020820190508181036000830152611e2e81611df2565b9050919050565b7f476f6c6620436c756220697320616c72656164792066756c6c2064757261626960008201527f6c69747921000000000000000000000000000000000000000000000000000000602082015250565b6000611e91602583611a6d565b9150611e9c82611e35565b604082019050919050565b60006020820190508181036000830152611ec081611e84565b9050919050565b7f4e487b7100000000000000000000000000000000000000000000000000000000600052600160045260246000fd5b7f4e487b7100000000000000000000000000000000000000000000000000000000600052601160045260246000fd5b6000611f30826117a3565b9150611f3b836117a3565b925082821015611f4e57611f4d611ef6565b5b82820390509291505056fea2646970667358221220bd8bdf6f6b089e329927063d2e323f24d492f1afebee26a16bbac6cf57a7c62a64736f6c634300080b0033",
  "immutableReferences": {},
  "source": "pragma solidity ^0.8.0;\n\nimport \"./2_GolfClubPayments.sol\";\n\ninterface GolfClubNFT {\n    function ownerOf(uint256 tokenId) external view returns (address);\n\n    function golf_clubs(uint256 tokenId)\n        external\n        view\n        returns (\n            uint256 id,\n            uint256 dna,\n            uint32 level,\n            uint16 winCount,\n            uint16 lossCount,\n            uint16 playType,\n            uint8 rarity,\n            string memory name\n        );\n\n    function durabilityDropRate(uint256) external view returns (uint8);\n\n    function triggerCooldown(uint256 tokenId) external;\n\n    function addGolfClubWin(uint256 tokenId) external;\n\n    function addGolfClubLoss(uint256 tokenId) external;\n\n    function getRandGolfClubType(uint256 _nonce) external view returns (uint16);\n\n    function gameplaySafeMintMint(address _to) external;\n\n    function upgradeGolfClub(uint256 tokenId) external;\n}\n\ncontract GolfClubRewards is GolfClubPayments {\n    using SafeMath for uint256;\n    using SafeMath32 for uint32;\n    using SafeMath16 for uint16;\n\n    event RoulletPrize(address _owner, uint256 prizeId);\n\n    address golfClubContractAddress;\n    uint256 randNonce = 0;\n    uint256 coinPrize = 0.15 ether;\n    uint16 maxDurability = 1000;\n    //uint8[] public roulettePrizePercentages = [0, 35, 87, 92, 95, 97]; // Nothing, Repair, ENERGY, COINS, NFT, UPGRADE\n    uint8[] public roulettePrizePercentages = [0, 16, 32, 48, 64, 80]; // Nothing, Repair, ENERGY, COINS, NFT, UPGRADE\n    //@DEV PERCENTAGES\n\n    struct Stats {\n        uint256 readyTime;\n        uint16 durability;\n    }\n\n    Stats[10000] public golfClubStats;\n\n    mapping(address => uint256) public upgradeBalance;\n    mapping(address => uint256) public claimNFTBalance;\n    mapping(address => uint256) public energyBalance;\n    mapping(address => uint256) public repairBalance;\n    mapping(uint256 => bool) public havePlayed;\n\n    modifier onlyOwnerOf(uint256 _golfClubId) {\n        require(\n            msg.sender == getToken().ownerOf(_golfClubId),\n            \"Not the NFT owner.\"\n        );\n        _;\n    }\n\n    function setGolfClubContract(address _contractAddress) external onlyOwner {\n        golfClubContractAddress = _contractAddress;\n    }\n\n    function getGolfClubContractAddress() public view returns (address) {\n        return golfClubContractAddress;\n    }\n\n    function getToken() public view returns (GolfClubNFT) {\n        return GolfClubNFT(golfClubContractAddress);\n    }\n\n    function getStats(uint256 _golfClubId) public view returns (Stats memory) {\n        if (havePlayed[_golfClubId] == false) {\n            return Stats(block.timestamp, maxDurability);\n        }\n\n        return golfClubStats[_golfClubId];\n    }\n\n    function _randMod(uint256 _modulus) internal returns (uint256) {\n        randNonce = randNonce.add(1);\n        return\n            uint256(\n                keccak256(\n                    abi.encodePacked(block.timestamp, msg.sender, randNonce)\n                )\n            ) % _modulus;\n    }\n\n    function randomRoulletPrize() internal {\n        uint256 rand = _randMod(100);\n        if (rand >= roulettePrizePercentages[5]) {\n            upgradeBalance[msg.sender] = upgradeBalance[msg.sender].add(1); // 2%\n            emit RoulletPrize(msg.sender, 5);\n            return;\n        }\n        if (rand >= roulettePrizePercentages[4]) {\n            claimNFTBalance[msg.sender] = claimNFTBalance[msg.sender].add(1); // 2%\n            emit RoulletPrize(msg.sender, 4);\n            return;\n        }\n        if (rand >= roulettePrizePercentages[3]) {\n            addPaymentToClaimBalance(); // 3%\n            emit RoulletPrize(msg.sender, 3);\n            return;\n        }\n        if (rand >= roulettePrizePercentages[2]) {\n            energyBalance[msg.sender] = energyBalance[msg.sender].add(1); // 5%\n            emit RoulletPrize(msg.sender, 2);\n            return;\n        }\n        if (rand >= roulettePrizePercentages[1]) {\n            repairBalance[msg.sender] = repairBalance[msg.sender].add(1); // 52%;\n            emit RoulletPrize(msg.sender, 1);\n            return;\n        }\n        emit RoulletPrize(msg.sender, 0);\n    }\n\n    function claimNFT() external {\n        require(\n            claimNFTBalance[msg.sender] > 0,\n            \"You don't have any NFT claim available!\"\n        );\n        claimNFTBalance[msg.sender] = claimNFTBalance[msg.sender].sub(1);\n        getToken().gameplaySafeMintMint(msg.sender);\n    }\n\n    function claimUpgrade(uint256 _golfClubId)\n        external\n        onlyOwnerOf(_golfClubId)\n    {\n        require(\n            upgradeBalance[msg.sender] > 0,\n            \"You don't have any Upgrade claim avaliable!\"\n        );\n        upgradeBalance[msg.sender] = upgradeBalance[msg.sender].sub(1);\n        getToken().upgradeGolfClub(_golfClubId);\n    }\n\n    function claimResetCooldown(uint256 _golfClubId)\n        external\n        onlyOwnerOf(_golfClubId)\n    {\n        require(\n            energyBalance[msg.sender] > 0,\n            \"You don't have any energy claim avaliable!\"\n        );\n        require(\n            block.timestamp < golfClubStats[_golfClubId].readyTime,\n            \"Golf Club is already full charged!\"\n        );\n        energyBalance[msg.sender] = energyBalance[msg.sender].sub(1);\n        golfClubStats[_golfClubId].readyTime = block.timestamp;\n    }\n\n    function claimResetDurability(uint256 _golfClubId)\n        external\n        onlyOwnerOf(_golfClubId)\n    {\n        require(\n            repairBalance[msg.sender] > 0,\n            \"You don't have any repair kit avaliable!\"\n        );\n        require(\n            maxDurability > golfClubStats[_golfClubId].durability,\n            \"Golf Club is already full durability!\"\n        );\n        repairBalance[msg.sender] = repairBalance[msg.sender].sub(1);\n        golfClubStats[_golfClubId].durability = maxDurability;\n    }\n\n    function testBalance() external onlyOwner {\n        energyBalance[msg.sender] = 1000;\n        repairBalance[msg.sender] = 1000;\n        upgradeBalance[msg.sender] = 1000;\n        claimNFTBalance[msg.sender] = 1000;\n        claimBalance[msg.sender] = 1000;\n    }\n}\n",
  "sourcePath": "/home/roger/Documents/albatross-mvp/truffle/contracts/2_GolfClubRewards.sol",
  "compiler": {
    "name": "solc",
    "version": "0.8.11+commit.d7f03943.Emscripten.clang"
  },
  "schemaVersion": "3.4.4",
  "updatedAt": "2022-02-01T03:34:24.664Z",
  "devdoc": {
    "kind": "dev",
    "methods": {
      "isOwner()": {
        "returns": {
          "_0": "true if `msg.sender` is the owner of the contract."
        }
      },
      "owner()": {
        "returns": {
          "_0": "the address of the owner."
        }
      },
      "renounceOwnership()": {
        "details": "Allows the current owner to relinquish control of the contract."
      },
      "transferOwnership(address)": {
        "details": "Allows the current owner to transfer control of the contract to a newOwner.",
        "params": {
          "newOwner": "The address to transfer ownership to."
        }
      }
    },
    "version": 1
  },
  "userdoc": {
    "kind": "user",
    "methods": {
      "renounceOwnership()": {
        "notice": "Renouncing to ownership will leave the contract without an owner. It will not be possible to call the functions with the `onlyOwner` modifier anymore."
      }
    },
    "version": 1
  }
}