{
  "contractName": "GolfClubUtils",
  "abi": [
    {
      "inputs": [
        {
          "internalType": "uint256",
          "name": "_tokenId",
          "type": "uint256"
        }
      ],
      "name": "concatGolfClubName",
      "outputs": [
        {
          "internalType": "string",
          "name": "",
          "type": "string"
        }
      ],
      "stateMutability": "pure",
      "type": "function"
    }
  ],
  "bytecode": "0x608060405234801561001057600080fd5b50610625806100206000396000f3fe608060405234801561001057600080fd5b506004361061002b5760003560e01c8063920e3de814610030575b600080fd5b61004a60048036038101906100459190610255565b610060565b604051610057919061031b565b60405180910390f35b606061006b82610091565b60405160200161007b91906103c5565b6040516020818303038152906040529050919050565b606060008214156100d9576040518060400160405280600181526020017f30000000000000000000000000000000000000000000000000000000000000008152509050610215565b600082905060005b6000821461010b5780806100f490610416565b915050600a82610104919061048e565b91506100e1565b60008167ffffffffffffffff811115610127576101266104bf565b5b6040519080825280601f01601f1916602001820160405280156101595781602001600182028036833780820191505090505b50905060008290505b6000861461020d5760018161017791906104ee565b90506000600a8088610189919061048e565b6101939190610522565b8761019e91906104ee565b60306101aa9190610589565b905060008160f81b9050808484815181106101c8576101c76105c0565b5b60200101907effffffffffffffffffffffffffffffffffffffffffffffffffffffffffffff1916908160001a905350600a88610204919061048e565b97505050610162565b819450505050505b919050565b600080fd5b6000819050919050565b6102328161021f565b811461023d57600080fd5b50565b60008135905061024f81610229565b92915050565b60006020828403121561026b5761026a61021a565b5b600061027984828501610240565b91505092915050565b600081519050919050565b600082825260208201905092915050565b60005b838110156102bc5780820151818401526020810190506102a1565b838111156102cb576000848401525b50505050565b6000601f19601f8301169050919050565b60006102ed82610282565b6102f7818561028d565b935061030781856020860161029e565b610310816102d1565b840191505092915050565b6000602082019050818103600083015261033581846102e2565b905092915050565b600081905092915050565b7f476f6c66436c7562202300000000000000000000000000000000000000000000600082015250565b600061037e600a8361033d565b915061038982610348565b600a82019050919050565b600061039f82610282565b6103a9818561033d565b93506103b981856020860161029e565b80840191505092915050565b60006103d082610371565b91506103dc8284610394565b915081905092915050565b7f4e487b7100000000000000000000000000000000000000000000000000000000600052601160045260246000fd5b60006104218261021f565b91507fffffffffffffffffffffffffffffffffffffffffffffffffffffffffffffffff821415610454576104536103e7565b5b600182019050919050565b7f4e487b7100000000000000000000000000000000000000000000000000000000600052601260045260246000fd5b60006104998261021f565b91506104a48361021f565b9250826104b4576104b361045f565b5b828204905092915050565b7f4e487b7100000000000000000000000000000000000000000000000000000000600052604160045260246000fd5b60006104f98261021f565b91506105048361021f565b925082821015610517576105166103e7565b5b828203905092915050565b600061052d8261021f565b91506105388361021f565b9250817fffffffffffffffffffffffffffffffffffffffffffffffffffffffffffffffff0483118215151615610571576105706103e7565b5b828202905092915050565b600060ff82169050919050565b60006105948261057c565b915061059f8361057c565b92508260ff038211156105b5576105b46103e7565b5b828201905092915050565b7f4e487b7100000000000000000000000000000000000000000000000000000000600052603260045260246000fdfea2646970667358221220b0f47830eb6d7702b0d0f618f019725fc70b8365ea8c1a47fcb0fb598e17ee1e64736f6c634300080b0033",
  "immutableReferences": {},
  "source": "pragma solidity ^0.8.0;\n\ncontract GolfClubUtils {\n    function uint2str(uint _i) internal pure returns (string memory _uintAsString) {\n        if (_i == 0) {\n            return \"0\";\n        }\n        uint j = _i;\n        uint len;\n        while (j != 0) {\n            len++;\n            j /= 10;\n        }\n        bytes memory bstr = new bytes(len);\n        uint k = len;\n        while (_i != 0) {\n            k = k-1;\n            uint8 temp = (48 + uint8(_i - _i / 10 * 10));\n            bytes1 b1 = bytes1(temp);\n            bstr[k] = b1;\n            _i /= 10;\n        }\n        return string(bstr);\n    }\n    \n    function concatGolfClubName(uint _tokenId) public pure returns (string memory) {\n        return string(abi.encodePacked(\"GolfClub #\", uint2str(_tokenId)));\n    }\n}\n",
  "sourcePath": "/home/roger/Documents/albatross-mvp/truffle/contracts/1_GolfClubUtils.sol",
  "compiler": {
    "name": "solc",
    "version": "0.8.11+commit.d7f03943.Emscripten.clang"
  },
  "schemaVersion": "3.4.4",
  "updatedAt": "2022-02-01T03:34:24.620Z",
  "devdoc": {
    "kind": "dev",
    "methods": {},
    "version": 1
  },
  "userdoc": {
    "kind": "user",
    "methods": {},
    "version": 1
  }
}