{
  "contractName": "GolfClubERC721",
  "abi": [
    {
      "inputs": [],
      "stateMutability": "nonpayable",
      "type": "constructor"
    },
    {
      "anonymous": false,
      "inputs": [
        {
          "indexed": true,
          "internalType": "address",
          "name": "owner",
          "type": "address"
        },
        {
          "indexed": true,
          "internalType": "address",
          "name": "approved",
          "type": "address"
        },
        {
          "indexed": true,
          "internalType": "uint256",
          "name": "tokenId",
          "type": "uint256"
        }
      ],
      "name": "Approval",
      "type": "event"
    },
    {
      "anonymous": false,
      "inputs": [
        {
          "indexed": true,
          "internalType": "address",
          "name": "owner",
          "type": "address"
        },
        {
          "indexed": true,
          "internalType": "address",
          "name": "operator",
          "type": "address"
        },
        {
          "indexed": false,
          "internalType": "bool",
          "name": "approved",
          "type": "bool"
        }
      ],
      "name": "ApprovalForAll",
      "type": "event"
    },
    {
      "anonymous": false,
      "inputs": [
        {
          "indexed": true,
          "internalType": "address",
          "name": "previousOwner",
          "type": "address"
        },
        {
          "indexed": true,
          "internalType": "address",
          "name": "newOwner",
          "type": "address"
        }
      ],
      "name": "OwnershipTransferred",
      "type": "event"
    },
    {
      "anonymous": false,
      "inputs": [
        {
          "indexed": true,
          "internalType": "address",
          "name": "from",
          "type": "address"
        },
        {
          "indexed": true,
          "internalType": "address",
          "name": "to",
          "type": "address"
        },
        {
          "indexed": true,
          "internalType": "uint256",
          "name": "tokenId",
          "type": "uint256"
        }
      ],
      "name": "Transfer",
      "type": "event"
    },
    {
      "inputs": [
        {
          "internalType": "address",
          "name": "to",
          "type": "address"
        },
        {
          "internalType": "uint256",
          "name": "tokenId",
          "type": "uint256"
        }
      ],
      "name": "approve",
      "outputs": [],
      "stateMutability": "nonpayable",
      "type": "function"
    },
    {
      "inputs": [
        {
          "internalType": "address",
          "name": "owner",
          "type": "address"
        }
      ],
      "name": "balanceOf",
      "outputs": [
        {
          "internalType": "uint256",
          "name": "",
          "type": "uint256"
        }
      ],
      "stateMutability": "view",
      "type": "function"
    },
    {
      "inputs": [
        {
          "internalType": "uint256",
          "name": "_tokenId",
          "type": "uint256"
        }
      ],
      "name": "concatGolfClubName",
      "outputs": [
        {
          "internalType": "string",
          "name": "",
          "type": "string"
        }
      ],
      "stateMutability": "pure",
      "type": "function"
    },
    {
      "inputs": [],
      "name": "gameplayContractAddress",
      "outputs": [
        {
          "internalType": "address",
          "name": "",
          "type": "address"
        }
      ],
      "stateMutability": "view",
      "type": "function"
    },
    {
      "inputs": [
        {
          "internalType": "uint256",
          "name": "tokenId",
          "type": "uint256"
        }
      ],
      "name": "getApproved",
      "outputs": [
        {
          "internalType": "address",
          "name": "",
          "type": "address"
        }
      ],
      "stateMutability": "view",
      "type": "function"
    },
    {
      "inputs": [
        {
          "internalType": "uint256",
          "name": "_nonce",
          "type": "uint256"
        }
      ],
      "name": "getRandGolfClubType",
      "outputs": [
        {
          "internalType": "uint16",
          "name": "",
          "type": "uint16"
        }
      ],
      "stateMutability": "view",
      "type": "function"
    },
    {
      "inputs": [
        {
          "internalType": "uint256",
          "name": "",
          "type": "uint256"
        }
      ],
      "name": "golf_clubs",
      "outputs": [
        {
          "internalType": "uint256",
          "name": "id",
          "type": "uint256"
        },
        {
          "internalType": "uint256",
          "name": "dna",
          "type": "uint256"
        },
        {
          "internalType": "uint32",
          "name": "level",
          "type": "uint32"
        },
        {
          "internalType": "uint16",
          "name": "winCount",
          "type": "uint16"
        },
        {
          "internalType": "uint16",
          "name": "lossCount",
          "type": "uint16"
        },
        {
          "internalType": "uint16",
          "name": "playType",
          "type": "uint16"
        },
        {
          "internalType": "uint8",
          "name": "rarity",
          "type": "uint8"
        },
        {
          "internalType": "string",
          "name": "name",
          "type": "string"
        }
      ],
      "stateMutability": "view",
      "type": "function"
    },
    {
      "inputs": [
        {
          "internalType": "address",
          "name": "owner",
          "type": "address"
        },
        {
          "internalType": "address",
          "name": "operator",
          "type": "address"
        }
      ],
      "name": "isApprovedForAll",
      "outputs": [
        {
          "internalType": "bool",
          "name": "",
          "type": "bool"
        }
      ],
      "stateMutability": "view",
      "type": "function"
    },
    {
      "inputs": [],
      "name": "isOwner",
      "outputs": [
        {
          "internalType": "bool",
          "name": "",
          "type": "bool"
        }
      ],
      "stateMutability": "view",
      "type": "function"
    },
    {
      "inputs": [
        {
          "internalType": "uint256",
          "name": "",
          "type": "uint256"
        }
      ],
      "name": "listedToSale",
      "outputs": [
        {
          "internalType": "bool",
          "name": "",
          "type": "bool"
        }
      ],
      "stateMutability": "view",
      "type": "function"
    },
    {
      "inputs": [],
      "name": "maxCollection",
      "outputs": [
        {
          "internalType": "uint256",
          "name": "",
          "type": "uint256"
        }
      ],
      "stateMutability": "view",
      "type": "function"
    },
    {
      "inputs": [],
      "name": "maxMintPerWallet",
      "outputs": [
        {
          "internalType": "uint256",
          "name": "",
          "type": "uint256"
        }
      ],
      "stateMutability": "view",
      "type": "function"
    },
    {
      "inputs": [],
      "name": "maxPublicCollection",
      "outputs": [
        {
          "internalType": "uint256",
          "name": "",
          "type": "uint256"
        }
      ],
      "stateMutability": "view",
      "type": "function"
    },
    {
      "inputs": [],
      "name": "name",
      "outputs": [
        {
          "internalType": "string",
          "name": "",
          "type": "string"
        }
      ],
      "stateMutability": "view",
      "type": "function"
    },
    {
      "inputs": [],
      "name": "nextTokenId",
      "outputs": [
        {
          "internalType": "uint256",
          "name": "",
          "type": "uint256"
        }
      ],
      "stateMutability": "view",
      "type": "function"
    },
    {
      "inputs": [],
      "name": "owner",
      "outputs": [
        {
          "internalType": "address",
          "name": "",
          "type": "address"
        }
      ],
      "stateMutability": "view",
      "type": "function"
    },
    {
      "inputs": [
        {
          "internalType": "uint256",
          "name": "tokenId",
          "type": "uint256"
        }
      ],
      "name": "ownerOf",
      "outputs": [
        {
          "internalType": "address",
          "name": "",
          "type": "address"
        }
      ],
      "stateMutability": "view",
      "type": "function"
    },
    {
      "inputs": [],
      "name": "publicMintCount",
      "outputs": [
        {
          "internalType": "uint256",
          "name": "",
          "type": "uint256"
        }
      ],
      "stateMutability": "view",
      "type": "function"
    },
    {
      "inputs": [],
      "name": "renounceOwnership",
      "outputs": [],
      "stateMutability": "nonpayable",
      "type": "function"
    },
    {
      "inputs": [
        {
          "internalType": "address",
          "name": "operator",
          "type": "address"
        },
        {
          "internalType": "bool",
          "name": "approved",
          "type": "bool"
        }
      ],
      "name": "setApprovalForAll",
      "outputs": [],
      "stateMutability": "nonpayable",
      "type": "function"
    },
    {
      "inputs": [
        {
          "internalType": "bytes4",
          "name": "interfaceId",
          "type": "bytes4"
        }
      ],
      "name": "supportsInterface",
      "outputs": [
        {
          "internalType": "bool",
          "name": "",
          "type": "bool"
        }
      ],
      "stateMutability": "view",
      "type": "function"
    },
    {
      "inputs": [],
      "name": "symbol",
      "outputs": [
        {
          "internalType": "string",
          "name": "",
          "type": "string"
        }
      ],
      "stateMutability": "view",
      "type": "function"
    },
    {
      "inputs": [],
      "name": "totalMintCount",
      "outputs": [
        {
          "internalType": "uint256",
          "name": "",
          "type": "uint256"
        }
      ],
      "stateMutability": "view",
      "type": "function"
    },
    {
      "inputs": [
        {
          "internalType": "address",
          "name": "from",
          "type": "address"
        },
        {
          "internalType": "address",
          "name": "to",
          "type": "address"
        },
        {
          "internalType": "uint256",
          "name": "tokenId",
          "type": "uint256"
        }
      ],
      "name": "transferFrom",
      "outputs": [],
      "stateMutability": "nonpayable",
      "type": "function"
    },
    {
      "inputs": [
        {
          "internalType": "address",
          "name": "newOwner",
          "type": "address"
        }
      ],
      "name": "transferOwnership",
      "outputs": [],
      "stateMutability": "nonpayable",
      "type": "function"
    },
    {
      "inputs": [
        {
          "internalType": "address",
          "name": "_contractAddress",
          "type": "address"
        }
      ],
      "name": "setGameplayContract",
      "outputs": [],
      "stateMutability": "nonpayable",
      "type": "function"
    },
    {
      "inputs": [],
      "name": "sendEthToContract",
      "outputs": [],
      "stateMutability": "payable",
      "type": "function"
    },
    {
      "inputs": [
        {
          "internalType": "address payable",
          "name": "_to",
          "type": "address"
        },
        {
          "internalType": "uint256",
          "name": "_amount",
          "type": "uint256"
        }
      ],
      "name": "sendEthFromContract",
      "outputs": [],
      "stateMutability": "nonpayable",
      "type": "function"
    },
    {
      "inputs": [
        {
          "internalType": "address",
          "name": "_owner",
          "type": "address"
        }
      ],
      "name": "getCollectionByOwner",
      "outputs": [
        {
          "internalType": "uint256[]",
          "name": "",
          "type": "uint256[]"
        }
      ],
      "stateMutability": "view",
      "type": "function"
    },
    {
      "inputs": [
        {
          "internalType": "address",
          "name": "_to",
          "type": "address"
        },
        {
          "internalType": "uint256",
          "name": "_quantity",
          "type": "uint256"
        }
      ],
      "name": "mint",
      "outputs": [],
      "stateMutability": "payable",
      "type": "function"
    },
    {
      "inputs": [
        {
          "internalType": "address",
          "name": "_to",
          "type": "address"
        }
      ],
      "name": "gameplaySafeMintMint",
      "outputs": [],
      "stateMutability": "nonpayable",
      "type": "function"
    },
    {
      "inputs": [
        {
          "internalType": "uint256",
          "name": "_golfClubId",
          "type": "uint256"
        }
      ],
      "name": "tokenURI",
      "outputs": [
        {
          "internalType": "string",
          "name": "",
          "type": "string"
        }
      ],
      "stateMutability": "view",
      "type": "function"
    },
    {
      "inputs": [
        {
          "internalType": "string",
          "name": "_newBaseURI",
          "type": "string"
        }
      ],
      "name": "setBaseURI",
      "outputs": [],
      "stateMutability": "nonpayable",
      "type": "function"
    },
    {
      "inputs": [
        {
          "internalType": "uint256",
          "name": "_golfClubId",
          "type": "uint256"
        }
      ],
      "name": "listTokenToSale",
      "outputs": [],
      "stateMutability": "nonpayable",
      "type": "function"
    },
    {
      "inputs": [
        {
          "internalType": "uint256",
          "name": "_golfClubId",
          "type": "uint256"
        }
      ],
      "name": "unlistTokenToSale",
      "outputs": [],
      "stateMutability": "nonpayable",
      "type": "function"
    },
    {
      "inputs": [
        {
          "internalType": "address",
          "name": "from",
          "type": "address"
        },
        {
          "internalType": "address",
          "name": "to",
          "type": "address"
        },
        {
          "internalType": "uint256",
          "name": "_golfClubId",
          "type": "uint256"
        }
      ],
      "name": "safeTransferFrom",
      "outputs": [],
      "stateMutability": "nonpayable",
      "type": "function"
    },
    {
      "inputs": [
        {
          "internalType": "address",
          "name": "from",
          "type": "address"
        },
        {
          "internalType": "address",
          "name": "to",
          "type": "address"
        },
        {
          "internalType": "uint256",
          "name": "_golfClubId",
          "type": "uint256"
        },
        {
          "internalType": "bytes",
          "name": "_data",
          "type": "bytes"
        }
      ],
      "name": "safeTransferFrom",
      "outputs": [],
      "stateMutability": "nonpayable",
      "type": "function"
    },
    {
      "inputs": [
        {
          "internalType": "address",
          "name": "_nftOwner",
          "type": "address"
        },
        {
          "internalType": "address",
          "name": "_toAddress",
          "type": "address"
        },
        {
          "internalType": "uint256",
          "name": "_golfClubId",
          "type": "uint256"
        }
      ],
      "name": "safeOperatorTransfer",
      "outputs": [],
      "stateMutability": "nonpayable",
      "type": "function"
    },
    {
      "inputs": [
        {
          "internalType": "uint256",
          "name": "_golfClubId",
          "type": "uint256"
        }
      ],
      "name": "upgradeGolfClub",
      "outputs": [],
      "stateMutability": "nonpayable",
      "type": "function"
    },
    {
      "inputs": [
        {
          "internalType": "uint256",
          "name": "_golfClubId",
          "type": "uint256"
        }
      ],
      "name": "addGolfClubWin",
      "outputs": [],
      "stateMutability": "nonpayable",
      "type": "function"
    },
    {
      "inputs": [
        {
          "internalType": "uint256",
          "name": "_golfClubId",
          "type": "uint256"
        }
      ],
      "name": "addGolfClubLoss",
      "outputs": [],
      "stateMutability": "nonpayable",
      "type": "function"
    }
  ],
  "bytecode": "0x60806040526010600155600154600a6200001a919062000809565b60025560006003556040518060800160405280606461ffff16815260200160c861ffff16815260200161012c61ffff16815260200161019061ffff1681525060049060046200006b92919062000398565b506040518060a00160405280600060ff168152602001603760ff168152602001604a60ff168152602001605860ff168152602001606160ff168152506005906005620000b992919062000449565b506003600660006101000a81548160ff021916908360ff1602179055506040518060e001604052806040518060600160405280602e815260200162005c79602e913981526020016040518060600160405280602e815260200162005bc1602e913981526020016040518060600160405280602e815260200162005c4b602e913981526020016040518060600160405280602e815260200162005bef602e913981526020016040518060600160405280602e815260200162005c1d602e913981526020016040518060600160405280602e815260200162005cc9602e913981526020016040518060600160405280602e815260200162005b93602e91398152506007906007620001ca929190620004f7565b506000601155600560125561271060135561138860145560006015556000601655670de0b6b3a764000060175560405180606001604052806022815260200162005ca76022913960189080519060200190620002289291906200055e565b503480156200023657600080fd5b506040518060400160405280600981526020017f476f6c6620436c756200000000000000000000000000000000000000000000008152506040518060400160405280600581526020017f474f4c4643000000000000000000000000000000000000000000000000000000815250336000806101000a81548173ffffffffffffffffffffffffffffffffffffffff021916908373ffffffffffffffffffffffffffffffffffffffff16021790555060008054906101000a900473ffffffffffffffffffffffffffffffffffffffff1673ffffffffffffffffffffffffffffffffffffffff16600073ffffffffffffffffffffffffffffffffffffffff167f8be0079c531659141344cd1fd0a4f28419497f9722a3daafe3b4186f6b6457e060405160405180910390a38160099080519060200190620003769291906200055e565b5080600a90805190602001906200038f9291906200055e565b505050620008bf565b82805482825590600052602060002090600f01601090048101928215620004365791602002820160005b838211156200040457835183826101000a81548161ffff021916908361ffff1602179055509260200192600201602081600101049283019260010302620003c2565b8015620004345782816101000a81549061ffff021916905560020160208160010104928301926001030262000404565b505b509050620004459190620005ef565b5090565b82805482825590600052602060002090601f01602090048101928215620004e45791602002820160005b83821115620004b357835183826101000a81548160ff021916908360ff160217905550926020019260010160208160000104928301926001030262000473565b8015620004e25782816101000a81549060ff0219169055600101602081600001049283019260010302620004b3565b505b509050620004f39190620005ef565b5090565b8280548282559060005260206000209081019282156200054b579160200282015b828111156200054a578251829080519060200190620005399291906200055e565b509160200191906001019062000518565b5b5090506200055a91906200060e565b5090565b8280546200056c9062000889565b90600052602060002090601f016020900481019282620005905760008555620005dc565b82601f10620005ab57805160ff1916838001178555620005dc565b82800160010185558215620005dc579182015b82811115620005db578251825591602001919060010190620005be565b5b509050620005eb9190620005ef565b5090565b5b808211156200060a576000816000905550600101620005f0565b5090565b5b8082111562000632576000818162000628919062000636565b506001016200060f565b5090565b508054620006449062000889565b6000825580601f1062000658575062000679565b601f016020900490600052602060002090810190620006789190620005ef565b5b50565b7f4e487b7100000000000000000000000000000000000000000000000000000000600052601160045260246000fd5b60008160011c9050919050565b6000808291508390505b60018511156200070a57808604811115620006e257620006e16200067c565b5b6001851615620006f25780820291505b80810290506200070285620006ab565b9450620006c2565b94509492505050565b600082620007255760019050620007f8565b81620007355760009050620007f8565b81600181146200074e576002811462000759576200078f565b6001915050620007f8565b60ff8411156200076e576200076d6200067c565b5b8360020a9150848211156200078857620007876200067c565b5b50620007f8565b5060208310610133831016604e8410600b8410161715620007c95782820a905083811115620007c357620007c26200067c565b5b620007f8565b620007d88484846001620006b8565b92509050818404811115620007f257620007f16200067c565b5b81810290505b9392505050565b6000819050919050565b60006200081682620007ff565b91506200082383620007ff565b9250620008527fffffffffffffffffffffffffffffffffffffffffffffffffffffffffffffffff848462000713565b905092915050565b7f4e487b7100000000000000000000000000000000000000000000000000000000600052602260045260246000fd5b60006002820490506001821680620008a257607f821691505b60208210811415620008b957620008b86200085a565b5b50919050565b6152c480620008cf6000396000f3fe6080604052600436106102455760003560e01c80637a0d230211610139578063b88d4fde116100b6578063db07dbb61161007a578063db07dbb614610859578063de665bee1461089d578063e985e9c5146108c8578063f190224514610905578063f2fde38b14610930578063f84df7b61461095957610245565b8063b88d4fde14610764578063beb0f1331461078d578063becccfbc146107ca578063c6f2df1a146107f3578063c87b56dd1461081c57610245565b8063a22cb465116100fd578063a22cb46514610695578063b1ae2bc0146106be578063b228d925146106e7578063b407973214610712578063b58480d31461073b57610245565b80637a0d2302146105ac5780638da5cb5b146105d75780638f32d59b14610602578063920e3de81461062d57806395d89b411461066a57610245565b8063390a5b9a116101c75780636e2cded01161018b5780636e2cded0146104fa57806370a0823114610523578063713f5e4d14610560578063715018a61461056a57806375794a3c1461058157610245565b8063390a5b9a1461042457806340c10f191461044f57806342842e0e1461046b57806355f804b3146104945780636352211e146104bd57610245565b80630d84d1ce1161020e5780630d84d1ce1461034157806315725db81461036c57806323b872dd14610395578063245cf3ec146103be578063390939c4146103fb57610245565b806249f6d51461024a57806301ffc9a71461027357806306fdde03146102b0578063081812fc146102db578063095ea7b314610318575b600080fd5b34801561025657600080fd5b50610271600480360381019061026c91906134fc565b610996565b005b34801561027f57600080fd5b5061029a60048036038101906102959190613581565b610b45565b6040516102a791906135c9565b60405180910390f35b3480156102bc57600080fd5b506102c5610c27565b6040516102d2919061367d565b60405180910390f35b3480156102e757600080fd5b5061030260048036038101906102fd91906134fc565b610cb9565b60405161030f91906136e0565b60405180910390f35b34801561032457600080fd5b5061033f600480360381019061033a9190613727565b610d3e565b005b34801561034d57600080fd5b50610356610e56565b6040516103639190613776565b60405180910390f35b34801561037857600080fd5b50610393600480360381019061038e9190613791565b610e5c565b005b3480156103a157600080fd5b506103bc60048036038101906103b791906137be565b610eb1565b005b3480156103ca57600080fd5b506103e560048036038101906103e09190613791565b610f11565b6040516103f291906138cf565b60405180910390f35b34801561040757600080fd5b50610422600480360381019061041d91906134fc565b611008565b005b34801561043057600080fd5b506104396110ee565b6040516104469190613776565b60405180910390f35b61046960048036038101906104649190613727565b6110f4565b005b34801561047757600080fd5b50610492600480360381019061048d91906137be565b611248565b005b3480156104a057600080fd5b506104bb60048036038101906104b69190613a26565b611268565b005b3480156104c957600080fd5b506104e460048036038101906104df91906134fc565b611293565b6040516104f191906136e0565b60405180910390f35b34801561050657600080fd5b50610521600480360381019061051c9190613791565b611345565b005b34801561052f57600080fd5b5061054a60048036038101906105459190613791565b6113e1565b6040516105579190613776565b60405180910390f35b610568611499565b005b34801561057657600080fd5b5061057f6114a8565b005b34801561058d57600080fd5b50610596611577565b6040516105a39190613776565b60405180910390f35b3480156105b857600080fd5b506105c161157d565b6040516105ce9190613776565b60405180910390f35b3480156105e357600080fd5b506105ec611583565b6040516105f991906136e0565b60405180910390f35b34801561060e57600080fd5b506106176115ac565b60405161062491906135c9565b60405180910390f35b34801561063957600080fd5b50610654600480360381019061064f91906134fc565b611603565b604051610661919061367d565b60405180910390f35b34801561067657600080fd5b5061067f611634565b60405161068c919061367d565b60405180910390f35b3480156106a157600080fd5b506106bc60048036038101906106b79190613a9b565b6116c6565b005b3480156106ca57600080fd5b506106e560048036038101906106e091906137be565b6116dc565b005b3480156106f357600080fd5b506106fc6117c8565b6040516107099190613776565b60405180910390f35b34801561071e57600080fd5b50610739600480360381019061073491906134fc565b6117ce565b005b34801561074757600080fd5b50610762600480360381019061075d91906134fc565b6118eb565b005b34801561077057600080fd5b5061078b60048036038101906107869190613b7c565b6119d1565b005b34801561079957600080fd5b506107b460048036038101906107af91906134fc565b611a9a565b6040516107c19190613c1c565b60405180910390f35b3480156107d657600080fd5b506107f160048036038101906107ec9190613c75565b611af4565b005b3480156107ff57600080fd5b5061081a600480360381019061081591906134fc565b611b50565b005b34801561082857600080fd5b50610843600480360381019061083e91906134fc565b611d84565b604051610850919061367d565b60405180910390f35b34801561086557600080fd5b50610880600480360381019061087b91906134fc565b611e36565b604051610894989796959493929190613cf0565b60405180910390f35b3480156108a957600080fd5b506108b2611f5d565b6040516108bf9190613776565b60405180910390f35b3480156108d457600080fd5b506108ef60048036038101906108ea9190613d75565b611f63565b6040516108fc91906135c9565b60405180910390f35b34801561091157600080fd5b5061091a611ff7565b60405161092791906136e0565b60405180910390f35b34801561093c57600080fd5b5061095760048036038101906109529190613791565b61201d565b005b34801561096557600080fd5b50610980600480360381019061097b91906134fc565b61203a565b60405161098d91906135c9565b60405180910390f35b601060009054906101000a900473ffffffffffffffffffffffffffffffffffffffff1673ffffffffffffffffffffffffffffffffffffffff163373ffffffffffffffffffffffffffffffffffffffff1614610a26576040517f08c379a0000000000000000000000000000000000000000000000000000000008152600401610a1d90613e27565b60405180910390fd5b610a71600160088381548110610a3f57610a3e613e47565b5b906000526020600020906004020160020160049054906101000a900461ffff1661ffff1661205a90919063ffffffff16565b60088281548110610a8557610a84613e47565b5b906000526020600020906004020160020160046101000a81548161ffff021916908361ffff160217905550610aff600160088381548110610ac957610ac8613e47565b5b906000526020600020906004020160020160009054906101000a900463ffffffff1663ffffffff1661208e90919063ffffffff16565b60088281548110610b1357610b12613e47565b5b906000526020600020906004020160020160006101000a81548163ffffffff021916908363ffffffff16021790555050565b60007f80ac58cd000000000000000000000000000000000000000000000000000000007bffffffffffffffffffffffffffffffffffffffffffffffffffffffff1916827bffffffffffffffffffffffffffffffffffffffffffffffffffffffff19161480610c1057507f5b5e139f000000000000000000000000000000000000000000000000000000007bffffffffffffffffffffffffffffffffffffffffffffffffffffffff1916827bffffffffffffffffffffffffffffffffffffffffffffffffffffffff1916145b80610c205750610c1f826120c6565b5b9050919050565b606060098054610c3690613ea5565b80601f0160208091040260200160405190810160405280929190818152602001828054610c6290613ea5565b8015610caf5780601f10610c8457610100808354040283529160200191610caf565b820191906000526020600020905b815481529060010190602001808311610c9257829003601f168201915b5050505050905090565b6000610cc482612130565b610d03576040517f08c379a0000000000000000000000000000000000000000000000000000000008152600401610cfa90613f49565b60405180910390fd5b600d600083815260200190815260200160002060009054906101000a900473ffffffffffffffffffffffffffffffffffffffff169050919050565b6000610d4982611293565b90508073ffffffffffffffffffffffffffffffffffffffff168373ffffffffffffffffffffffffffffffffffffffff161415610dba576040517f08c379a0000000000000000000000000000000000000000000000000000000008152600401610db190613fdb565b60405180910390fd5b8073ffffffffffffffffffffffffffffffffffffffff16610dd961219c565b73ffffffffffffffffffffffffffffffffffffffff161480610e085750610e0781610e0261219c565b611f63565b5b610e47576040517f08c379a0000000000000000000000000000000000000000000000000000000008152600401610e3e9061406d565b60405180910390fd5b610e5183836121a4565b505050565b60155481565b610e646115ac565b610e6d57600080fd5b80601060006101000a81548173ffffffffffffffffffffffffffffffffffffffff021916908373ffffffffffffffffffffffffffffffffffffffff16021790555050565b610ec2610ebc61219c565b8261225d565b610f01576040517f08c379a0000000000000000000000000000000000000000000000000000000008152600401610ef8906140ff565b60405180910390fd5b610f0c83838361233b565b505050565b60606000610f1e836113e1565b905060008167ffffffffffffffff811115610f3c57610f3b6138fb565b5b604051908082528060200260200182016040528015610f6a5781602001602082028036833780820191505090505b5090506000805b600880549050811015610ffc57610f8781611293565b73ffffffffffffffffffffffffffffffffffffffff168673ffffffffffffffffffffffffffffffffffffffff161415610fe95780838381518110610fce57610fcd613e47565b5b6020026020010181815250508180610fe59061414e565b9250505b8080610ff49061414e565b915050610f71565b50819350505050919050565b61101961101361219c565b8261225d565b611058576040517f08c379a000000000000000000000000000000000000000000000000000000000815260040161104f90614209565b60405180910390fd5b60001515601a600083815260200190815260200160002060009054906101000a900460ff161515146110bf576040517f08c379a00000000000000000000000000000000000000000000000000000000081526004016110b690614275565b60405180910390fd5b6001601a600083815260200190815260200160002060006101000a81548160ff02191690831515021790555050565b60135481565b60008111801561110657506012548111155b611145576040517f08c379a000000000000000000000000000000000000000000000000000000000815260040161113c90614307565b60405180910390fd5b600061115c6015548361259790919063ffffffff16565b90506014548111156111a3576040517f08c379a000000000000000000000000000000000000000000000000000000000815260040161119a90614399565b60405180910390fd5b60006111ba836017546125c390919063ffffffff16565b90508034146111fe576040517f08c379a00000000000000000000000000000000000000000000000000000000081526004016111f590614405565b60405180910390fd5b60005b83811015611241576112128561260c565b611228600160155461259790919063ffffffff16565b60158190555080806112399061414e565b915050611201565b5050505050565b611263838383604051806020016040528060008152506119d1565b505050565b6112706115ac565b61127957600080fd5b806018908051906020019061128f92919061340f565b5050565b600080600b600084815260200190815260200160002060009054906101000a900473ffffffffffffffffffffffffffffffffffffffff169050600073ffffffffffffffffffffffffffffffffffffffff168173ffffffffffffffffffffffffffffffffffffffff16141561133c576040517f08c379a000000000000000000000000000000000000000000000000000000000815260040161133390614497565b60405180910390fd5b80915050919050565b601060009054906101000a900473ffffffffffffffffffffffffffffffffffffffff1673ffffffffffffffffffffffffffffffffffffffff163373ffffffffffffffffffffffffffffffffffffffff16146113d5576040517f08c379a00000000000000000000000000000000000000000000000000000000081526004016113cc90613e27565b60405180910390fd5b6113de8161260c565b50565b60008073ffffffffffffffffffffffffffffffffffffffff168273ffffffffffffffffffffffffffffffffffffffff161415611452576040517f08c379a000000000000000000000000000000000000000000000000000000000815260040161144990614529565b60405180910390fd5b600c60008373ffffffffffffffffffffffffffffffffffffffff1673ffffffffffffffffffffffffffffffffffffffff168152602001908152602001600020549050919050565b600034116114a657600080fd5b565b6114b06115ac565b6114b957600080fd5b600073ffffffffffffffffffffffffffffffffffffffff1660008054906101000a900473ffffffffffffffffffffffffffffffffffffffff1673ffffffffffffffffffffffffffffffffffffffff167f8be0079c531659141344cd1fd0a4f28419497f9722a3daafe3b4186f6b6457e060405160405180910390a360008060006101000a81548173ffffffffffffffffffffffffffffffffffffffff021916908373ffffffffffffffffffffffffffffffffffffffff160217905550565b60115481565b60165481565b60008060009054906101000a900473ffffffffffffffffffffffffffffffffffffffff16905090565b60008060009054906101000a900473ffffffffffffffffffffffffffffffffffffffff1673ffffffffffffffffffffffffffffffffffffffff163373ffffffffffffffffffffffffffffffffffffffff1614905090565b606061160e82612758565b60405160200161161e91906145d1565b6040516020818303038152906040529050919050565b6060600a805461164390613ea5565b80601f016020809104026020016040519081016040528092919081815260200182805461166f90613ea5565b80156116bc5780601f10611691576101008083540402835291602001916116bc565b820191906000526020600020905b81548152906001019060200180831161169f57829003601f168201915b5050505050905090565b6116d86116d161219c565b83836128e1565b5050565b6116e68333611f63565b611725576040517f08c379a000000000000000000000000000000000000000000000000000000000815260040161171c90614665565b60405180910390fd5b60011515601a600083815260200190815260200160002060009054906101000a900460ff1615151461178c576040517f08c379a0000000000000000000000000000000000000000000000000000000008152600401611783906146d1565b60405180910390fd5b6000601a600083815260200190815260200160002060006101000a81548160ff0219169083151502179055506117c3838383611248565b505050565b60125481565b601060009054906101000a900473ffffffffffffffffffffffffffffffffffffffff1673ffffffffffffffffffffffffffffffffffffffff163373ffffffffffffffffffffffffffffffffffffffff161461185e576040517f08c379a000000000000000000000000000000000000000000000000000000000815260040161185590613e27565b60405180910390fd5b6118a960016008838154811061187757611876613e47565b5b906000526020600020906004020160020160069054906101000a900461ffff1661ffff1661205a90919063ffffffff16565b600882815481106118bd576118bc613e47565b5b906000526020600020906004020160020160066101000a81548161ffff021916908361ffff16021790555050565b6118fc6118f661219c565b8261225d565b61193b576040517f08c379a000000000000000000000000000000000000000000000000000000000815260040161193290614763565b60405180910390fd5b60011515601a600083815260200190815260200160002060009054906101000a900460ff161515146119a2576040517f08c379a0000000000000000000000000000000000000000000000000000000008152600401611999906146d1565b60405180910390fd5b6000601a600083815260200190815260200160002060006101000a81548160ff02191690831515021790555050565b60001515601a600084815260200190815260200160002060009054906101000a900460ff16151514611a38576040517f08c379a0000000000000000000000000000000000000000000000000000000008152600401611a2f906147f5565b60405180910390fd5b611a49611a4361219c565b8361225d565b611a88576040517f08c379a0000000000000000000000000000000000000000000000000000000008152600401611a7f906140ff565b60405180910390fd5b611a9484848484612a4e565b50505050565b600060048080549050611aae606485612aaa565b611ab89190614844565b81548110611ac957611ac8613e47565b5b90600052602060002090601091828204019190066002029054906101000a900461ffff169050919050565b611afc6115ac565b611b0557600080fd5b8173ffffffffffffffffffffffffffffffffffffffff166108fc829081150290604051600060405180830381858888f19350505050158015611b4b573d6000803e3d6000fd5b505050565b601060009054906101000a900473ffffffffffffffffffffffffffffffffffffffff1673ffffffffffffffffffffffffffffffffffffffff163373ffffffffffffffffffffffffffffffffffffffff1614611be0576040517f08c379a0000000000000000000000000000000000000000000000000000000008152600401611bd790613e27565b60405180910390fd5b600660009054906101000a900460ff1660ff1660088281548110611c0757611c06613e47565b5b9060005260206000209060040201600201600a9054906101000a900460ff1660ff1610611c69576040517f08c379a0000000000000000000000000000000000000000000000000000000008152600401611c60906148e7565b60405180910390fd5b611cb8600160088381548110611c8257611c81613e47565b5b906000526020600020906004020160020160009054906101000a900463ffffffff1663ffffffff1661208e90919063ffffffff16565b60088281548110611ccc57611ccb613e47565b5b906000526020600020906004020160020160006101000a81548163ffffffff021916908363ffffffff160217905550611d44600160088381548110611d1457611d13613e47565b5b9060005260206000209060040201600201600a9054906101000a900460ff1660ff16612aed90919063ffffffff16565b60088281548110611d5857611d57613e47565b5b9060005260206000209060040201600201600a6101000a81548160ff021916908360ff16021790555050565b6060611d8f82612130565b611dce576040517f08c379a0000000000000000000000000000000000000000000000000000000008152600401611dc590614979565b60405180910390fd5b600060188054611ddd90613ea5565b905011611df95760405180602001604052806000815250611e2f565b601860196000848152602001908152602001600020604051602001611e1f929190614a2d565b6040516020818303038152906040525b9050919050565b60088181548110611e4657600080fd5b90600052602060002090600402016000915090508060000154908060010154908060020160009054906101000a900463ffffffff16908060020160049054906101000a900461ffff16908060020160069054906101000a900461ffff16908060020160089054906101000a900461ffff169080600201600a9054906101000a900460ff1690806003018054611eda90613ea5565b80601f0160208091040260200160405190810160405280929190818152602001828054611f0690613ea5565b8015611f535780601f10611f2857610100808354040283529160200191611f53565b820191906000526020600020905b815481529060010190602001808311611f3657829003601f168201915b5050505050905088565b60145481565b6000600e60008473ffffffffffffffffffffffffffffffffffffffff1673ffffffffffffffffffffffffffffffffffffffff16815260200190815260200160002060008373ffffffffffffffffffffffffffffffffffffffff1673ffffffffffffffffffffffffffffffffffffffff16815260200190815260200160002060009054906101000a900460ff16905092915050565b601060009054906101000a900473ffffffffffffffffffffffffffffffffffffffff1681565b6120256115ac565b61202e57600080fd5b61203781612b1f565b50565b601a6020528060005260406000206000915054906101000a900460ff1681565b60008082846120699190614a51565b90508361ffff168161ffff16101561208457612083614a89565b5b8091505092915050565b600080828461209d9190614ab8565b90508363ffffffff168163ffffffff1610156120bc576120bb614a89565b5b8091505092915050565b60007f01ffc9a7000000000000000000000000000000000000000000000000000000007bffffffffffffffffffffffffffffffffffffffffffffffffffffffff1916827bffffffffffffffffffffffffffffffffffffffffffffffffffffffff1916149050919050565b60008073ffffffffffffffffffffffffffffffffffffffff16600b600084815260200190815260200160002060009054906101000a900473ffffffffffffffffffffffffffffffffffffffff1673ffffffffffffffffffffffffffffffffffffffff1614159050919050565b600033905090565b81600d600083815260200190815260200160002060006101000a81548173ffffffffffffffffffffffffffffffffffffffff021916908373ffffffffffffffffffffffffffffffffffffffff160217905550808273ffffffffffffffffffffffffffffffffffffffff1661221783611293565b73ffffffffffffffffffffffffffffffffffffffff167f8c5be1e5ebec7d5bd14f71427d1e84f3dd0314c0f7b2291e5b200ac8c7c3b92560405160405180910390a45050565b600061226882612130565b6122a7576040517f08c379a000000000000000000000000000000000000000000000000000000000815260040161229e90614b64565b60405180910390fd5b60006122b283611293565b90508073ffffffffffffffffffffffffffffffffffffffff168473ffffffffffffffffffffffffffffffffffffffff16148061232157508373ffffffffffffffffffffffffffffffffffffffff1661230984610cb9565b73ffffffffffffffffffffffffffffffffffffffff16145b8061233257506123318185611f63565b5b91505092915050565b8273ffffffffffffffffffffffffffffffffffffffff1661235b82611293565b73ffffffffffffffffffffffffffffffffffffffff16146123b1576040517f08c379a00000000000000000000000000000000000000000000000000000000081526004016123a890614bf6565b60405180910390fd5b600073ffffffffffffffffffffffffffffffffffffffff168273ffffffffffffffffffffffffffffffffffffffff161415612421576040517f08c379a000000000000000000000000000000000000000000000000000000000815260040161241890614c88565b60405180910390fd5b61242c838383612c16565b6124376000826121a4565b6001600c60008573ffffffffffffffffffffffffffffffffffffffff1673ffffffffffffffffffffffffffffffffffffffff16815260200190815260200160002060008282546124879190614ca8565b925050819055506001600c60008473ffffffffffffffffffffffffffffffffffffffff1673ffffffffffffffffffffffffffffffffffffffff16815260200190815260200160002060008282546124de9190614cdc565b9250508190555081600b600083815260200190815260200160002060006101000a81548173ffffffffffffffffffffffffffffffffffffffff021916908373ffffffffffffffffffffffffffffffffffffffff160217905550808273ffffffffffffffffffffffffffffffffffffffff168473ffffffffffffffffffffffffffffffffffffffff167fddf252ad1be2c89b69c2b068fc378daa952ba7f163c4a11628f55a4df523b3ef60405160405180910390a4505050565b60008082846125a69190614cdc565b9050838110156125b9576125b8614a89565b5b8091505092915050565b6000808314156125d65760009050612606565b600082846125e49190614d32565b90508284826125f39190614d8c565b1461260157612600614a89565b5b809150505b92915050565b6000612624600160165461259790919063ffffffff16565b905060135481111561266b576040517f08c379a000000000000000000000000000000000000000000000000000000000815260040161266290614e2f565b60405180910390fd5b61267782601154612c1b565b6000612684601154612c39565b805461268f90613ea5565b80601f01602080910402602001604051908101604052809291908181526020018280546126bb90613ea5565b80156127085780601f106126dd57610100808354040283529160200191612708565b820191906000526020600020905b8154815290600101906020018083116126eb57829003601f168201915b5050505050905061271b60115482612ce3565b612731600160115461259790919063ffffffff16565b60118190555061274d600160165461259790919063ffffffff16565b601681905550505050565b606060008214156127a0576040518060400160405280600181526020017f300000000000000000000000000000000000000000000000000000000000000081525090506128dc565b600082905060005b600082146127d25780806127bb9061414e565b915050600a826127cb9190614d8c565b91506127a8565b60008167ffffffffffffffff8111156127ee576127ed6138fb565b5b6040519080825280601f01601f1916602001820160405280156128205781602001600182028036833780820191505090505b50905060008290505b600086146128d45760018161283e9190614ca8565b90506000600a80886128509190614d8c565b61285a9190614d32565b876128659190614ca8565b60306128719190614e4f565b905060008160f81b90508084848151811061288f5761288e613e47565b5b60200101907effffffffffffffffffffffffffffffffffffffffffffffffffffffffffffff1916908160001a905350600a886128cb9190614d8c565b97505050612829565b819450505050505b919050565b8173ffffffffffffffffffffffffffffffffffffffff168373ffffffffffffffffffffffffffffffffffffffff161415612950576040517f08c379a000000000000000000000000000000000000000000000000000000000815260040161294790614ed2565b60405180910390fd5b80600e60008573ffffffffffffffffffffffffffffffffffffffff1673ffffffffffffffffffffffffffffffffffffffff16815260200190815260200160002060008473ffffffffffffffffffffffffffffffffffffffff1673ffffffffffffffffffffffffffffffffffffffff16815260200190815260200160002060006101000a81548160ff0219169083151502179055508173ffffffffffffffffffffffffffffffffffffffff168373ffffffffffffffffffffffffffffffffffffffff167f17307eab39ab6107e8899845ad3d59bd9653f200f220920489ca2b5937696c3183604051612a4191906135c9565b60405180910390a3505050565b612a5984848461233b565b612a6584848484612d57565b612aa4576040517f08c379a0000000000000000000000000000000000000000000000000000000008152600401612a9b90614f64565b60405180910390fd5b50505050565b600082423384604051602001612ac293929190614fed565b6040516020818303038152906040528051906020012060001c612ae59190614844565b905092915050565b6000808284612afc9190614e4f565b90508360ff168160ff161015612b1557612b14614a89565b5b8091505092915050565b600073ffffffffffffffffffffffffffffffffffffffff168173ffffffffffffffffffffffffffffffffffffffff161415612b5957600080fd5b8073ffffffffffffffffffffffffffffffffffffffff1660008054906101000a900473ffffffffffffffffffffffffffffffffffffffff1673ffffffffffffffffffffffffffffffffffffffff167f8be0079c531659141344cd1fd0a4f28419497f9722a3daafe3b4186f6b6457e060405160405180910390a3806000806101000a81548173ffffffffffffffffffffffffffffffffffffffff021916908373ffffffffffffffffffffffffffffffffffffffff16021790555050565b505050565b612c35828260405180602001604052806000815250612edf565b5050565b600080612c4583611603565b9050612c5d600160035461259790919063ffffffff16565b6003819055506000612c70600354611a9a565b90506000612c7d83612f3a565b9050606481612c8c9190614844565b81612c979190614ca8565b9050612ca585848484612f7f565b600060078054905082612cb89190614844565b905060078181548110612cce57612ccd613e47565b5b90600052602060002001945050505050919050565b612cec82612130565b612d2b576040517f08c379a0000000000000000000000000000000000000000000000000000000008152600401612d229061509c565b60405180910390fd5b80601960008481526020019081526020016000209080519060200190612d5292919061340f565b505050565b6000612d788473ffffffffffffffffffffffffffffffffffffffff166130f3565b15612ed2578373ffffffffffffffffffffffffffffffffffffffff1663150b7a02612da161219c565b8786866040518563ffffffff1660e01b8152600401612dc39493929190615111565b6020604051808303816000875af1925050508015612dff57506040513d601f19601f82011682018060405250810190612dfc9190615172565b60015b612e82573d8060008114612e2f576040519150601f19603f3d011682016040523d82523d6000602084013e612e34565b606091505b50600081511415612e7a576040517f08c379a0000000000000000000000000000000000000000000000000000000008152600401612e7190614f64565b60405180910390fd5b805181602001fd5b63150b7a0260e01b7bffffffffffffffffffffffffffffffffffffffffffffffffffffffff1916817bffffffffffffffffffffffffffffffffffffffffffffffffffffffff191614915050612ed7565b600190505b949350505050565b612ee98383613106565b612ef66000848484612d57565b612f35576040517f08c379a0000000000000000000000000000000000000000000000000000000008152600401612f2c90614f64565b60405180910390fd5b505050565b60008082604051602001612f4e919061519f565b6040516020818303038152906040528051906020012060001c905060025481612f779190614844565b915050919050565b6000612f896132d4565b90506008604051806101000160405280878152602001848152602001600163ffffffff168152602001600061ffff168152602001600061ffff1681526020018561ffff1681526020018360ff168152602001868152509080600181540180825580915050600190039060005260206000209060040201600090919091909150600082015181600001556020820151816001015560408201518160020160006101000a81548163ffffffff021916908363ffffffff16021790555060608201518160020160046101000a81548161ffff021916908361ffff16021790555060808201518160020160066101000a81548161ffff021916908361ffff16021790555060a08201518160020160086101000a81548161ffff021916908361ffff16021790555060c082015181600201600a6101000a81548160ff021916908360ff16021790555060e08201518160030190805190602001906130e992919061340f565b5050505050505050565b600080823b905060008111915050919050565b600073ffffffffffffffffffffffffffffffffffffffff168273ffffffffffffffffffffffffffffffffffffffff161415613176576040517f08c379a000000000000000000000000000000000000000000000000000000000815260040161316d90615202565b60405180910390fd5b61317f81612130565b156131bf576040517f08c379a00000000000000000000000000000000000000000000000000000000081526004016131b69061526e565b60405180910390fd5b6131cb60008383612c16565b6001600c60008473ffffffffffffffffffffffffffffffffffffffff1673ffffffffffffffffffffffffffffffffffffffff168152602001908152602001600020600082825461321b9190614cdc565b9250508190555081600b600083815260200190815260200160002060006101000a81548173ffffffffffffffffffffffffffffffffffffffff021916908373ffffffffffffffffffffffffffffffffffffffff160217905550808273ffffffffffffffffffffffffffffffffffffffff16600073ffffffffffffffffffffffffffffffffffffffff167fddf252ad1be2c89b69c2b068fc378daa952ba7f163c4a11628f55a4df523b3ef60405160405180910390a45050565b6000806132e46064600354612aaa565b905060056004815481106132fb576132fa613e47565b5b90600052602060002090602091828204019190069054906101000a900460ff1660ff16811061332e57600491505061340c565b600560038154811061334357613342613e47565b5b90600052602060002090602091828204019190069054906101000a900460ff1660ff16811061337657600391505061340c565b600560028154811061338b5761338a613e47565b5b90600052602060002090602091828204019190069054906101000a900460ff1660ff1681106133be57600291505061340c565b60056001815481106133d3576133d2613e47565b5b90600052602060002090602091828204019190069054906101000a900460ff1660ff16811061340657600191505061340c565b60009150505b90565b82805461341b90613ea5565b90600052602060002090601f01602090048101928261343d5760008555613484565b82601f1061345657805160ff1916838001178555613484565b82800160010185558215613484579182015b82811115613483578251825591602001919060010190613468565b5b5090506134919190613495565b5090565b5b808211156134ae576000816000905550600101613496565b5090565b6000604051905090565b600080fd5b600080fd5b6000819050919050565b6134d9816134c6565b81146134e457600080fd5b50565b6000813590506134f6816134d0565b92915050565b600060208284031215613512576135116134bc565b5b6000613520848285016134e7565b91505092915050565b60007fffffffff0000000000000000000000000000000000000000000000000000000082169050919050565b61355e81613529565b811461356957600080fd5b50565b60008135905061357b81613555565b92915050565b600060208284031215613597576135966134bc565b5b60006135a58482850161356c565b91505092915050565b60008115159050919050565b6135c3816135ae565b82525050565b60006020820190506135de60008301846135ba565b92915050565b600081519050919050565b600082825260208201905092915050565b60005b8381101561361e578082015181840152602081019050613603565b8381111561362d576000848401525b50505050565b6000601f19601f8301169050919050565b600061364f826135e4565b61365981856135ef565b9350613669818560208601613600565b61367281613633565b840191505092915050565b600060208201905081810360008301526136978184613644565b905092915050565b600073ffffffffffffffffffffffffffffffffffffffff82169050919050565b60006136ca8261369f565b9050919050565b6136da816136bf565b82525050565b60006020820190506136f560008301846136d1565b92915050565b613704816136bf565b811461370f57600080fd5b50565b600081359050613721816136fb565b92915050565b6000806040838503121561373e5761373d6134bc565b5b600061374c85828601613712565b925050602061375d858286016134e7565b9150509250929050565b613770816134c6565b82525050565b600060208201905061378b6000830184613767565b92915050565b6000602082840312156137a7576137a66134bc565b5b60006137b584828501613712565b91505092915050565b6000806000606084860312156137d7576137d66134bc565b5b60006137e586828701613712565b93505060206137f686828701613712565b9250506040613807868287016134e7565b9150509250925092565b600081519050919050565b600082825260208201905092915050565b6000819050602082019050919050565b613846816134c6565b82525050565b6000613858838361383d565b60208301905092915050565b6000602082019050919050565b600061387c82613811565b613886818561381c565b93506138918361382d565b8060005b838110156138c25781516138a9888261384c565b97506138b483613864565b925050600181019050613895565b5085935050505092915050565b600060208201905081810360008301526138e98184613871565b905092915050565b600080fd5b600080fd5b7f4e487b7100000000000000000000000000000000000000000000000000000000600052604160045260246000fd5b61393382613633565b810181811067ffffffffffffffff82111715613952576139516138fb565b5b80604052505050565b60006139656134b2565b9050613971828261392a565b919050565b600067ffffffffffffffff821115613991576139906138fb565b5b61399a82613633565b9050602081019050919050565b82818337600083830152505050565b60006139c96139c484613976565b61395b565b9050828152602081018484840111156139e5576139e46138f6565b5b6139f08482856139a7565b509392505050565b600082601f830112613a0d57613a0c6138f1565b5b8135613a1d8482602086016139b6565b91505092915050565b600060208284031215613a3c57613a3b6134bc565b5b600082013567ffffffffffffffff811115613a5a57613a596134c1565b5b613a66848285016139f8565b91505092915050565b613a78816135ae565b8114613a8357600080fd5b50565b600081359050613a9581613a6f565b92915050565b60008060408385031215613ab257613ab16134bc565b5b6000613ac085828601613712565b9250506020613ad185828601613a86565b9150509250929050565b600067ffffffffffffffff821115613af657613af56138fb565b5b613aff82613633565b9050602081019050919050565b6000613b1f613b1a84613adb565b61395b565b905082815260208101848484011115613b3b57613b3a6138f6565b5b613b468482856139a7565b509392505050565b600082601f830112613b6357613b626138f1565b5b8135613b73848260208601613b0c565b91505092915050565b60008060008060808587031215613b9657613b956134bc565b5b6000613ba487828801613712565b9450506020613bb587828801613712565b9350506040613bc6878288016134e7565b925050606085013567ffffffffffffffff811115613be757613be66134c1565b5b613bf387828801613b4e565b91505092959194509250565b600061ffff82169050919050565b613c1681613bff565b82525050565b6000602082019050613c316000830184613c0d565b92915050565b6000613c428261369f565b9050919050565b613c5281613c37565b8114613c5d57600080fd5b50565b600081359050613c6f81613c49565b92915050565b60008060408385031215613c8c57613c8b6134bc565b5b6000613c9a85828601613c60565b9250506020613cab858286016134e7565b9150509250929050565b600063ffffffff82169050919050565b613cce81613cb5565b82525050565b600060ff82169050919050565b613cea81613cd4565b82525050565b600061010082019050613d06600083018b613767565b613d13602083018a613767565b613d206040830189613cc5565b613d2d6060830188613c0d565b613d3a6080830187613c0d565b613d4760a0830186613c0d565b613d5460c0830185613ce1565b81810360e0830152613d668184613644565b90509998505050505050505050565b60008060408385031215613d8c57613d8b6134bc565b5b6000613d9a85828601613712565b9250506020613dab85828601613712565b9150509250929050565b7f4f6e6c79207468652067616d65706c617920636f6e74726163742063616e206360008201527f616c6c2e00000000000000000000000000000000000000000000000000000000602082015250565b6000613e116024836135ef565b9150613e1c82613db5565b604082019050919050565b60006020820190508181036000830152613e4081613e04565b9050919050565b7f4e487b7100000000000000000000000000000000000000000000000000000000600052603260045260246000fd5b7f4e487b7100000000000000000000000000000000000000000000000000000000600052602260045260246000fd5b60006002820490506001821680613ebd57607f821691505b60208210811415613ed157613ed0613e76565b5b50919050565b7f4552433732313a20617070726f76656420717565727920666f72206e6f6e657860008201527f697374656e7420746f6b656e0000000000000000000000000000000000000000602082015250565b6000613f33602c836135ef565b9150613f3e82613ed7565b604082019050919050565b60006020820190508181036000830152613f6281613f26565b9050919050565b7f4552433732313a20617070726f76616c20746f2063757272656e74206f776e6560008201527f7200000000000000000000000000000000000000000000000000000000000000602082015250565b6000613fc56021836135ef565b9150613fd082613f69565b604082019050919050565b60006020820190508181036000830152613ff481613fb8565b9050919050565b7f4552433732313a20617070726f76652063616c6c6572206973206e6f74206f7760008201527f6e6572206e6f7220617070726f76656420666f7220616c6c0000000000000000602082015250565b60006140576038836135ef565b915061406282613ffb565b604082019050919050565b600060208201905081810360008301526140868161404a565b9050919050565b7f4552433732313a207472616e736665722063616c6c6572206973206e6f74206f60008201527f776e6572206e6f7220617070726f766564000000000000000000000000000000602082015250565b60006140e96031836135ef565b91506140f48261408d565b604082019050919050565b60006020820190508181036000830152614118816140dc565b9050919050565b7f4e487b7100000000000000000000000000000000000000000000000000000000600052601160045260246000fd5b6000614159826134c6565b91507fffffffffffffffffffffffffffffffffffffffffffffffffffffffffffffffff82141561418c5761418b61411f565b5b600182019050919050565b7f4552433732313a206c697374546f6b656e546f53616c652063616c6c6572206960008201527f73206e6f74206f776e6572206e6f7220617070726f7665640000000000000000602082015250565b60006141f36038836135ef565b91506141fe82614197565b604082019050919050565b60006020820190508181036000830152614222816141e6565b9050919050565b7f4e465420616c7265616479206c697374656420746f2073616c65210000000000600082015250565b600061425f601b836135ef565b915061426a82614229565b602082019050919050565b6000602082019050818103600083015261428e81614252565b9050919050565b7f43616e206f6e6c79206d696e74203520476f6c6620436c75627320706572207760008201527f616c6c65742e0000000000000000000000000000000000000000000000000000602082015250565b60006142f16026836135ef565b91506142fc82614295565b604082019050919050565b60006020820190508181036000830152614320816142e4565b9050919050565b7f45786365656473207468652035303030206d6178207075626c696320636f6c6c60008201527f656374696f6e206c696d69742e00000000000000000000000000000000000000602082015250565b6000614383602d836135ef565b915061438e82614327565b604082019050919050565b600060208201905081810360008301526143b281614376565b9050919050565b7f56616c75652073656e74206973206e6f7420636f727265637400000000000000600082015250565b60006143ef6019836135ef565b91506143fa826143b9565b602082019050919050565b6000602082019050818103600083015261441e816143e2565b9050919050565b7f4552433732313a206f776e657220717565727920666f72206e6f6e657869737460008201527f656e7420746f6b656e0000000000000000000000000000000000000000000000602082015250565b60006144816029836135ef565b915061448c82614425565b604082019050919050565b600060208201905081810360008301526144b081614474565b9050919050565b7f4552433732313a2062616c616e636520717565727920666f7220746865207a6560008201527f726f206164647265737300000000000000000000000000000000000000000000602082015250565b6000614513602a836135ef565b915061451e826144b7565b604082019050919050565b6000602082019050818103600083015261454281614506565b9050919050565b600081905092915050565b7f476f6c66436c7562202300000000000000000000000000000000000000000000600082015250565b600061458a600a83614549565b915061459582614554565b600a82019050919050565b60006145ab826135e4565b6145b58185614549565b93506145c5818560208601613600565b80840191505092915050565b60006145dc8261457d565b91506145e882846145a0565b915081905092915050565b7f4f70657261746f72206e6f7420617070726f76656420746f207472616465204e60008201527f4654210000000000000000000000000000000000000000000000000000000000602082015250565b600061464f6023836135ef565b915061465a826145f3565b604082019050919050565b6000602082019050818103600083015261467e81614642565b9050919050565b7f4e4654206973206e6f74206c697374656420746f2073616c6521000000000000600082015250565b60006146bb601a836135ef565b91506146c682614685565b602082019050919050565b600060208201905081810360008301526146ea816146ae565b9050919050565b7f4552433732313a20756e6c697374546f6b656e546f53616c652063616c6c657260008201527f206973206e6f74206f776e6572206e6f7220617070726f766564000000000000602082015250565b600061474d603a836135ef565b9150614758826146f1565b604082019050919050565b6000602082019050818103600083015261477c81614740565b9050919050565b7f43616e2774207472616e73666572204e4654207768696c65206c69737465642060008201527f746f2073616c6521000000000000000000000000000000000000000000000000602082015250565b60006147df6028836135ef565b91506147ea82614783565b604082019050919050565b6000602082019050818103600083015261480e816147d2565b9050919050565b7f4e487b7100000000000000000000000000000000000000000000000000000000600052601260045260246000fd5b600061484f826134c6565b915061485a836134c6565b92508261486a57614869614815565b5b828206905092915050565b7f596f757220476f6c6620436c75622063616e277420757067726164652072617260008201527f6974792e00000000000000000000000000000000000000000000000000000000602082015250565b60006148d16024836135ef565b91506148dc82614875565b604082019050919050565b60006020820190508181036000830152614900816148c4565b9050919050565b7f4552433732314d657461646174613a2055524920717565727920666f72206e6f60008201527f6e6578697374656e7420746f6b656e0000000000000000000000000000000000602082015250565b6000614963602f836135ef565b915061496e82614907565b604082019050919050565b6000602082019050818103600083015261499281614956565b9050919050565b60008190508160005260206000209050919050565b600081546149bb81613ea5565b6149c58186614549565b945060018216600081146149e057600181146149f157614a24565b60ff19831686528186019350614a24565b6149fa85614999565b60005b83811015614a1c578154818901526001820191506020810190506149fd565b838801955050505b50505092915050565b6000614a3982856149ae565b9150614a4582846149ae565b91508190509392505050565b6000614a5c82613bff565b9150614a6783613bff565b92508261ffff03821115614a7e57614a7d61411f565b5b828201905092915050565b7f4e487b7100000000000000000000000000000000000000000000000000000000600052600160045260246000fd5b6000614ac382613cb5565b9150614ace83613cb5565b92508263ffffffff03821115614ae757614ae661411f565b5b828201905092915050565b7f4552433732313a206f70657261746f7220717565727920666f72206e6f6e657860008201527f697374656e7420746f6b656e0000000000000000000000000000000000000000602082015250565b6000614b4e602c836135ef565b9150614b5982614af2565b604082019050919050565b60006020820190508181036000830152614b7d81614b41565b9050919050565b7f4552433732313a207472616e73666572206f6620746f6b656e2074686174206960008201527f73206e6f74206f776e0000000000000000000000000000000000000000000000602082015250565b6000614be06029836135ef565b9150614beb82614b84565b604082019050919050565b60006020820190508181036000830152614c0f81614bd3565b9050919050565b7f4552433732313a207472616e7366657220746f20746865207a65726f2061646460008201527f7265737300000000000000000000000000000000000000000000000000000000602082015250565b6000614c726024836135ef565b9150614c7d82614c16565b604082019050919050565b60006020820190508181036000830152614ca181614c65565b9050919050565b6000614cb3826134c6565b9150614cbe836134c6565b925082821015614cd157614cd061411f565b5b828203905092915050565b6000614ce7826134c6565b9150614cf2836134c6565b9250827fffffffffffffffffffffffffffffffffffffffffffffffffffffffffffffffff03821115614d2757614d2661411f565b5b828201905092915050565b6000614d3d826134c6565b9150614d48836134c6565b9250817fffffffffffffffffffffffffffffffffffffffffffffffffffffffffffffffff0483118215151615614d8157614d8061411f565b5b828202905092915050565b6000614d97826134c6565b9150614da2836134c6565b925082614db257614db1614815565b5b828204905092915050565b7f4578636565647320746865203130303030206d617820636f6c6c656374696f6e60008201527f206c696d69742e00000000000000000000000000000000000000000000000000602082015250565b6000614e196027836135ef565b9150614e2482614dbd565b604082019050919050565b60006020820190508181036000830152614e4881614e0c565b9050919050565b6000614e5a82613cd4565b9150614e6583613cd4565b92508260ff03821115614e7b57614e7a61411f565b5b828201905092915050565b7f4552433732313a20617070726f766520746f2063616c6c657200000000000000600082015250565b6000614ebc6019836135ef565b9150614ec782614e86565b602082019050919050565b60006020820190508181036000830152614eeb81614eaf565b9050919050565b7f4552433732313a207472616e7366657220746f206e6f6e20455243373231526560008201527f63656976657220696d706c656d656e7465720000000000000000000000000000602082015250565b6000614f4e6032836135ef565b9150614f5982614ef2565b604082019050919050565b60006020820190508181036000830152614f7d81614f41565b9050919050565b6000819050919050565b614f9f614f9a826134c6565b614f84565b82525050565b60008160601b9050919050565b6000614fbd82614fa5565b9050919050565b6000614fcf82614fb2565b9050919050565b614fe7614fe2826136bf565b614fc4565b82525050565b6000614ff98286614f8e565b6020820191506150098285614fd6565b6014820191506150198284614f8e565b602082019150819050949350505050565b7f45524337323155524953746f726167653a2055524920736574206f66206e6f6e60008201527f6578697374656e7420746f6b656e000000000000000000000000000000000000602082015250565b6000615086602e836135ef565b91506150918261502a565b604082019050919050565b600060208201905081810360008301526150b581615079565b9050919050565b600081519050919050565b600082825260208201905092915050565b60006150e3826150bc565b6150ed81856150c7565b93506150fd818560208601613600565b61510681613633565b840191505092915050565b600060808201905061512660008301876136d1565b61513360208301866136d1565b6151406040830185613767565b818103606083015261515281846150d8565b905095945050505050565b60008151905061516c81613555565b92915050565b600060208284031215615188576151876134bc565b5b60006151968482850161515d565b91505092915050565b60006151ab82846145a0565b915081905092915050565b7f4552433732313a206d696e7420746f20746865207a65726f2061646472657373600082015250565b60006151ec6020836135ef565b91506151f7826151b6565b602082019050919050565b6000602082019050818103600083015261521b816151df565b9050919050565b7f4552433732313a20746f6b656e20616c7265616479206d696e74656400000000600082015250565b6000615258601c836135ef565b915061526382615222565b602082019050919050565b600060208201905081810360008301526152878161524b565b905091905056fea2646970667358221220a72a72cc4fd321254637276a34d4b0e18721df3c82504f4d107de727c3726f6d64736f6c634300080b0033516d664678636e5074414d7a65647579576d4c6d4a4657786b3262534a45394e6e594e5431474e565a534e697970516d5069335632685247724b45326269754e5a7a35325a42784142796b6765557647377367645259336a7a427879516d6461766a5846534a5036534c763851764d54567a6e43706e5031364e383866555650695554354c44356b4473516d5675793448785461717070795558774a347a38786b5461765a594c416f676239745536557358527776694343516d52747a36763679624e6b4b5a7074724d5a5243786f4d32654e347737325878466e76584b4362635433375974516d5545444b4b59424b47643759464b7757444e55624d677644774376454844573941374e365944644e4a34644768747470733a2f2f676174657761792e70696e6174612e636c6f75642f697066732f516d595145556a78557055474e6e47315148365167436e66533943506f59743943666878345959714566376a7846",
  "immutableReferences": {},
  "source": "pragma solidity ^0.8.0;\n\nimport \"@openzeppelin/contracts/token/ERC721/ERC721.sol\";\nimport \"@openzeppelin/contracts/token/ERC721/extensions/ERC721URIStorage.sol\";\nimport \"./1_GolfClubFactory.sol\";\n\ncontract GolfClubERC721 is GolfClubFactory, ERC721URIStorage {\n    using SafeMath for uint256;\n    using SafeMath32 for uint32;\n    using SafeMath16 for uint16;\n    using SafeMath8 for uint8;\n\n    address public gameplayContractAddress;\n    uint256 public nextTokenId = 0;\n    uint256 public maxMintPerWallet = 5;\n    uint256 public maxCollection = 10000;\n    uint256 public maxPublicCollection = 5000;\n    uint256 public publicMintCount = 0;\n    uint256 public totalMintCount = 0;\n\n    uint256 mintFee = 1 ether;\n    string baseURI = \"https://gateway.pinata.cloud/ipfs/\";\n    mapping(uint256 => string) private _tokenURIs;\n    mapping(uint256 => bool) public listedToSale;\n\n    constructor() ERC721(\"Golf Club\", \"GOLFC\") {}\n\n    modifier onlyOwnerOf(uint256 _golfClubId) {\n        require(\n            msg.sender == ownerOf(_golfClubId),\n            \"Not the owner of this NFT.\"\n        );\n        _;\n    }\n\n    modifier onlyGameplayContract() {\n        require(\n            msg.sender == gameplayContractAddress,\n            \"Only the gameplay contract can call.\"\n        );\n        _;\n    }\n\n    function setGameplayContract(address _contractAddress) external onlyOwner {\n        gameplayContractAddress = _contractAddress;\n    }\n\n    function sendEthToContract() external payable {\n        require(msg.value > 0 ether);\n    }\n\n    function sendEthFromContract(address payable _to, uint256 _amount)\n        external\n        onlyOwner\n    {\n        _to.transfer(_amount);\n    }\n\n    function getCollectionByOwner(address _owner)\n        public\n        view\n        returns (uint256[] memory)\n    {\n        uint256 balance = balanceOf(_owner);\n        uint256[] memory result = new uint256[](balance);\n        uint256 counter = 0;\n\n        for (uint256 i = 0; i < golf_clubs.length; i++) {\n            if (_owner == ownerOf(i)) {\n                result[counter] = i;\n                counter++;\n            }\n        }\n        return result;\n    }\n\n    function _mintSetToken(address _to) private {\n        uint256 newTotal = totalMintCount.add(1);\n        require(\n            newTotal <= maxCollection,\n            \"Exceeds the 10000 max collection limit.\"\n        );\n        _safeMint(_to, nextTokenId);\n        string memory ipfs = createCollectableGolfClub(nextTokenId);\n        _setTokenURI(nextTokenId, ipfs);\n        nextTokenId = nextTokenId.add(1);\n        totalMintCount = totalMintCount.add(1);\n    }\n\n    function mint(address _to, uint256 _quantity) external payable {\n        require(\n            _quantity > 0 && _quantity <= maxMintPerWallet,\n            \"Can only mint 5 Golf Clubs per wallet.\"\n        );\n        uint256 newTotal = _quantity.add(publicMintCount);\n        require(\n            newTotal <= maxPublicCollection,\n            \"Exceeds the 5000 max public collection limit.\"\n        );\n        uint256 _qtyMintingFee = mintFee.mul(_quantity);\n        require(msg.value == _qtyMintingFee, \"Value sent is not correct\");\n\n        for (uint256 i = 0; i < _quantity; i++) {\n            _mintSetToken(_to);\n            publicMintCount = publicMintCount.add(1);\n        }\n    }\n\n    function gameplaySafeMintMint(address _to) external onlyGameplayContract {\n        _mintSetToken(_to);\n    }\n\n    function tokenURI(uint256 _golfClubId)\n        public\n        view\n        override\n        returns (string memory)\n    {\n        require(\n            _exists(_golfClubId),\n            \"ERC721Metadata: URI query for nonexistent token\"\n        );\n        return\n            bytes(baseURI).length > 0\n                ? string(abi.encodePacked(baseURI, _tokenURIs[_golfClubId]))\n                : \"\";\n    }\n\n    function _setTokenURI(uint256 tokenId, string memory _tokenURI)\n        internal\n        override\n    {\n        require(\n            _exists(tokenId),\n            \"ERC721URIStorage: URI set of nonexistent token\"\n        );\n        _tokenURIs[tokenId] = _tokenURI;\n    }\n\n    function _baseURI() internal view override returns (string memory) {\n        return baseURI;\n    }\n\n    function setBaseURI(string memory _newBaseURI) external onlyOwner {\n        baseURI = _newBaseURI;\n    }\n\n    function _burn(uint256 tokenId) internal override {\n        super._burn(tokenId);\n\n        if (bytes(_tokenURIs[tokenId]).length != 0) {\n            delete _tokenURIs[tokenId];\n        }\n    }\n\n    function listTokenToSale(uint256 _golfClubId) external {\n        require(\n            _isApprovedOrOwner(_msgSender(), _golfClubId),\n            \"ERC721: listTokenToSale caller is not owner nor approved\"\n        );\n        require(\n            listedToSale[_golfClubId] == false,\n            \"NFT already listed to sale!\"\n        );\n        listedToSale[_golfClubId] = true;\n    }\n\n    function unlistTokenToSale(uint256 _golfClubId) external {\n        require(\n            _isApprovedOrOwner(_msgSender(), _golfClubId),\n            \"ERC721: unlistTokenToSale caller is not owner nor approved\"\n        );\n        require(\n            listedToSale[_golfClubId] == true,\n            \"NFT is not listed to sale!\"\n        );\n        listedToSale[_golfClubId] = false;\n    }\n\n    /**\n     * @dev See {IERC721-safeTransferFrom}.\n     */\n    function safeTransferFrom(\n        address from,\n        address to,\n        uint256 _golfClubId\n    ) public override {\n        safeTransferFrom(from, to, _golfClubId, \"\");\n    }\n\n    /**\n     * @dev See {IERC721-safeTransferFrom}.\n     */\n    function safeTransferFrom(\n        address from,\n        address to,\n        uint256 _golfClubId,\n        bytes memory _data\n    ) public override {\n        require(\n            listedToSale[_golfClubId] == false,\n            \"Can't transfer NFT while listed to sale!\"\n        );\n        require(\n            _isApprovedOrOwner(_msgSender(), _golfClubId),\n            \"ERC721: transfer caller is not owner nor approved\"\n        );\n        _safeTransfer(from, to, _golfClubId, _data);\n    }\n\n    function safeOperatorTransfer(\n        address _nftOwner,\n        address _toAddress,\n        uint256 _golfClubId\n    ) external {\n        require(\n            isApprovedForAll(_nftOwner, msg.sender),\n            \"Operator not approved to trade NFT!\"\n        );\n        require(\n            listedToSale[_golfClubId] == true,\n            \"NFT is not listed to sale!\"\n        );\n        listedToSale[_golfClubId] = false;\n        safeTransferFrom(_nftOwner, _toAddress, _golfClubId);\n    }\n\n    function upgradeGolfClub(uint256 _golfClubId)\n        external\n        onlyGameplayContract\n    {\n        require(\n            golf_clubs[_golfClubId].rarity < maxUpgradableRarity,\n            \"Your Golf Club can't upgrade rarity.\"\n        );\n        golf_clubs[_golfClubId].level = golf_clubs[_golfClubId].level.add(1);\n        golf_clubs[_golfClubId].rarity = golf_clubs[_golfClubId].rarity.add(1);\n    }\n\n    function addGolfClubWin(uint256 _golfClubId) external onlyGameplayContract {\n        golf_clubs[_golfClubId].winCount = golf_clubs[_golfClubId].winCount.add(\n            1\n        );\n        golf_clubs[_golfClubId].level = golf_clubs[_golfClubId].level.add(1);\n    }\n\n    function addGolfClubLoss(uint256 _golfClubId)\n        external\n        onlyGameplayContract\n    {\n        golf_clubs[_golfClubId].lossCount = golf_clubs[_golfClubId]\n            .lossCount\n            .add(1);\n    }\n}\n",
  "sourcePath": "/home/roger/Documents/albatross-mvp/truffle/contracts/1_GolfClubERC721.sol",
  "compiler": {
    "name": "solc",
    "version": "0.8.11+commit.d7f03943.Emscripten.clang"
  },
  "schemaVersion": "3.4.4",
  "updatedAt": "2022-02-01T03:34:24.478Z",
  "devdoc": {
    "kind": "dev",
    "methods": {
      "approve(address,uint256)": {
        "details": "See {IERC721-approve}."
      },
      "balanceOf(address)": {
        "details": "See {IERC721-balanceOf}."
      },
      "getApproved(uint256)": {
        "details": "See {IERC721-getApproved}."
      },
      "isApprovedForAll(address,address)": {
        "details": "See {IERC721-isApprovedForAll}."
      },
      "isOwner()": {
        "returns": {
          "_0": "true if `msg.sender` is the owner of the contract."
        }
      },
      "name()": {
        "details": "See {IERC721Metadata-name}."
      },
      "owner()": {
        "returns": {
          "_0": "the address of the owner."
        }
      },
      "ownerOf(uint256)": {
        "details": "See {IERC721-ownerOf}."
      },
      "renounceOwnership()": {
        "details": "Allows the current owner to relinquish control of the contract."
      },
      "safeTransferFrom(address,address,uint256)": {
        "details": "See {IERC721-safeTransferFrom}."
      },
      "safeTransferFrom(address,address,uint256,bytes)": {
        "details": "See {IERC721-safeTransferFrom}."
      },
      "setApprovalForAll(address,bool)": {
        "details": "See {IERC721-setApprovalForAll}."
      },
      "supportsInterface(bytes4)": {
        "details": "See {IERC165-supportsInterface}."
      },
      "symbol()": {
        "details": "See {IERC721Metadata-symbol}."
      },
      "transferFrom(address,address,uint256)": {
        "details": "See {IERC721-transferFrom}."
      },
      "transferOwnership(address)": {
        "details": "Allows the current owner to transfer control of the contract to a newOwner.",
        "params": {
          "newOwner": "The address to transfer ownership to."
        }
      }
    },
    "version": 1
  },
  "userdoc": {
    "kind": "user",
    "methods": {
      "renounceOwnership()": {
        "notice": "Renouncing to ownership will leave the contract without an owner. It will not be possible to call the functions with the `onlyOwner` modifier anymore."
      }
    },
    "version": 1
  }
}