{
  "contractName": "GolfClubFactory",
  "abi": [
    {
      "anonymous": false,
      "inputs": [
        {
          "indexed": true,
          "internalType": "address",
          "name": "previousOwner",
          "type": "address"
        },
        {
          "indexed": true,
          "internalType": "address",
          "name": "newOwner",
          "type": "address"
        }
      ],
      "name": "OwnershipTransferred",
      "type": "event"
    },
    {
      "inputs": [
        {
          "internalType": "uint256",
          "name": "_tokenId",
          "type": "uint256"
        }
      ],
      "name": "concatGolfClubName",
      "outputs": [
        {
          "internalType": "string",
          "name": "",
          "type": "string"
        }
      ],
      "stateMutability": "pure",
      "type": "function"
    },
    {
      "inputs": [
        {
          "internalType": "uint256",
          "name": "",
          "type": "uint256"
        }
      ],
      "name": "golf_clubs",
      "outputs": [
        {
          "internalType": "uint256",
          "name": "id",
          "type": "uint256"
        },
        {
          "internalType": "uint256",
          "name": "dna",
          "type": "uint256"
        },
        {
          "internalType": "uint32",
          "name": "level",
          "type": "uint32"
        },
        {
          "internalType": "uint16",
          "name": "winCount",
          "type": "uint16"
        },
        {
          "internalType": "uint16",
          "name": "lossCount",
          "type": "uint16"
        },
        {
          "internalType": "uint16",
          "name": "playType",
          "type": "uint16"
        },
        {
          "internalType": "uint8",
          "name": "rarity",
          "type": "uint8"
        },
        {
          "internalType": "string",
          "name": "name",
          "type": "string"
        }
      ],
      "stateMutability": "view",
      "type": "function"
    },
    {
      "inputs": [],
      "name": "isOwner",
      "outputs": [
        {
          "internalType": "bool",
          "name": "",
          "type": "bool"
        }
      ],
      "stateMutability": "view",
      "type": "function"
    },
    {
      "inputs": [],
      "name": "owner",
      "outputs": [
        {
          "internalType": "address",
          "name": "",
          "type": "address"
        }
      ],
      "stateMutability": "view",
      "type": "function"
    },
    {
      "inputs": [],
      "name": "renounceOwnership",
      "outputs": [],
      "stateMutability": "nonpayable",
      "type": "function"
    },
    {
      "inputs": [
        {
          "internalType": "address",
          "name": "newOwner",
          "type": "address"
        }
      ],
      "name": "transferOwnership",
      "outputs": [],
      "stateMutability": "nonpayable",
      "type": "function"
    },
    {
      "inputs": [
        {
          "internalType": "uint256",
          "name": "_nonce",
          "type": "uint256"
        }
      ],
      "name": "getRandGolfClubType",
      "outputs": [
        {
          "internalType": "uint16",
          "name": "",
          "type": "uint16"
        }
      ],
      "stateMutability": "view",
      "type": "function"
    }
  ],
  "bytecode": "0x60806040526010600155600154600a6200001a91906200070b565b60025560006003556040518060800160405280606461ffff16815260200160c861ffff16815260200161012c61ffff16815260200161019061ffff1681525060049060046200006b9291906200029a565b506040518060a00160405280600060ff168152602001603760ff168152602001604a60ff168152602001605860ff168152602001606160ff168152506005906005620000b99291906200034b565b506003600660006101000a81548160ff021916908360ff1602179055506040518060e001604052806040518060600160405280602e81526020016200173b602e913981526020016040518060600160405280602e815260200162001683602e913981526020016040518060600160405280602e81526020016200170d602e913981526020016040518060600160405280602e8152602001620016b1602e913981526020016040518060600160405280602e8152602001620016df602e913981526020016040518060600160405280602e815260200162001769602e913981526020016040518060600160405280602e815260200162001655602e91398152506007906007620001ca929190620003f9565b50348015620001d857600080fd5b50336000806101000a81548173ffffffffffffffffffffffffffffffffffffffff021916908373ffffffffffffffffffffffffffffffffffffffff16021790555060008054906101000a900473ffffffffffffffffffffffffffffffffffffffff1673ffffffffffffffffffffffffffffffffffffffff16600073ffffffffffffffffffffffffffffffffffffffff167f8be0079c531659141344cd1fd0a4f28419497f9722a3daafe3b4186f6b6457e060405160405180910390a3620007c1565b82805482825590600052602060002090600f01601090048101928215620003385791602002820160005b838211156200030657835183826101000a81548161ffff021916908361ffff1602179055509260200192600201602081600101049283019260010302620002c4565b8015620003365782816101000a81549061ffff021916905560020160208160010104928301926001030262000306565b505b50905062000347919062000460565b5090565b82805482825590600052602060002090601f01602090048101928215620003e65791602002820160005b83821115620003b557835183826101000a81548160ff021916908360ff160217905550926020019260010160208160000104928301926001030262000375565b8015620003e45782816101000a81549060ff0219169055600101602081600001049283019260010302620003b5565b505b509050620003f5919062000460565b5090565b8280548282559060005260206000209081019282156200044d579160200282015b828111156200044c5782518290805190602001906200043b9291906200047f565b50916020019190600101906200041a565b5b5090506200045c919062000510565b5090565b5b808211156200047b57600081600090555060010162000461565b5090565b8280546200048d906200078b565b90600052602060002090601f016020900481019282620004b15760008555620004fd565b82601f10620004cc57805160ff1916838001178555620004fd565b82800160010185558215620004fd579182015b82811115620004fc578251825591602001919060010190620004df565b5b5090506200050c919062000460565b5090565b5b808211156200053457600081816200052a919062000538565b5060010162000511565b5090565b50805462000546906200078b565b6000825580601f106200055a57506200057b565b601f0160209004906000526020600020908101906200057a919062000460565b5b50565b7f4e487b7100000000000000000000000000000000000000000000000000000000600052601160045260246000fd5b60008160011c9050919050565b6000808291508390505b60018511156200060c57808604811115620005e457620005e36200057e565b5b6001851615620005f45780820291505b80810290506200060485620005ad565b9450620005c4565b94509492505050565b600082620006275760019050620006fa565b81620006375760009050620006fa565b81600181146200065057600281146200065b5762000691565b6001915050620006fa565b60ff84111562000670576200066f6200057e565b5b8360020a9150848211156200068a57620006896200057e565b5b50620006fa565b5060208310610133831016604e8410600b8410161715620006cb5782820a905083811115620006c557620006c46200057e565b5b620006fa565b620006da8484846001620005ba565b92509050818404811115620006f457620006f36200057e565b5b81810290505b9392505050565b6000819050919050565b6000620007188262000701565b9150620007258362000701565b9250620007547fffffffffffffffffffffffffffffffffffffffffffffffffffffffffffffffff848462000615565b905092915050565b7f4e487b7100000000000000000000000000000000000000000000000000000000600052602260045260246000fd5b60006002820490506001821680620007a457607f821691505b60208210811415620007bb57620007ba6200075c565b5b50919050565b610e8480620007d16000396000f3fe608060405234801561001057600080fd5b506004361061007d5760003560e01c8063920e3de81161005b578063920e3de8146100c8578063beb0f133146100f8578063db07dbb614610128578063f2fde38b1461015f5761007d565b8063715018a6146100825780638da5cb5b1461008c5780638f32d59b146100aa575b600080fd5b61008a61017b565b005b61009461024a565b6040516100a1919061079d565b60405180910390f35b6100b2610273565b6040516100bf91906107d3565b60405180910390f35b6100e260048036038101906100dd9190610829565b6102ca565b6040516100ef91906108ef565b60405180910390f35b610112600480360381019061010d9190610829565b6102fb565b60405161011f919061092e565b60405180910390f35b610142600480360381019061013d9190610829565b610355565b604051610156989796959493929190610993565b60405180910390f35b61017960048036038101906101749190610a44565b61047c565b005b610183610273565b61018c57600080fd5b600073ffffffffffffffffffffffffffffffffffffffff1660008054906101000a900473ffffffffffffffffffffffffffffffffffffffff1673ffffffffffffffffffffffffffffffffffffffff167f8be0079c531659141344cd1fd0a4f28419497f9722a3daafe3b4186f6b6457e060405160405180910390a360008060006101000a81548173ffffffffffffffffffffffffffffffffffffffff021916908373ffffffffffffffffffffffffffffffffffffffff160217905550565b60008060009054906101000a900473ffffffffffffffffffffffffffffffffffffffff16905090565b60008060009054906101000a900473ffffffffffffffffffffffffffffffffffffffff1673ffffffffffffffffffffffffffffffffffffffff163373ffffffffffffffffffffffffffffffffffffffff1614905090565b60606102d582610499565b6040516020016102e59190610af9565b6040516020818303038152906040529050919050565b60006004808054905061030f606485610622565b6103199190610b4a565b8154811061032a57610329610b7b565b5b90600052602060002090601091828204019190066002029054906101000a900461ffff169050919050565b6008818154811061036557600080fd5b90600052602060002090600402016000915090508060000154908060010154908060020160009054906101000a900463ffffffff16908060020160049054906101000a900461ffff16908060020160069054906101000a900461ffff16908060020160089054906101000a900461ffff169080600201600a9054906101000a900460ff16908060030180546103f990610bd9565b80601f016020809104026020016040519081016040528092919081815260200182805461042590610bd9565b80156104725780601f1061044757610100808354040283529160200191610472565b820191906000526020600020905b81548152906001019060200180831161045557829003601f168201915b5050505050905088565b610484610273565b61048d57600080fd5b61049681610665565b50565b606060008214156104e1576040518060400160405280600181526020017f3000000000000000000000000000000000000000000000000000000000000000815250905061061d565b600082905060005b600082146105135780806104fc90610c3a565b915050600a8261050c9190610c83565b91506104e9565b60008167ffffffffffffffff81111561052f5761052e610cb4565b5b6040519080825280601f01601f1916602001820160405280156105615781602001600182028036833780820191505090505b50905060008290505b600086146106155760018161057f9190610ce3565b90506000600a80886105919190610c83565b61059b9190610d17565b876105a69190610ce3565b60306105b29190610d71565b905060008160f81b9050808484815181106105d0576105cf610b7b565b5b60200101907effffffffffffffffffffffffffffffffffffffffffffffffffffffffffffff1916908160001a905350600a8861060c9190610c83565b9750505061056a565b819450505050505b919050565b60008242338460405160200161063a93929190610e11565b6040516020818303038152906040528051906020012060001c61065d9190610b4a565b905092915050565b600073ffffffffffffffffffffffffffffffffffffffff168173ffffffffffffffffffffffffffffffffffffffff16141561069f57600080fd5b8073ffffffffffffffffffffffffffffffffffffffff1660008054906101000a900473ffffffffffffffffffffffffffffffffffffffff1673ffffffffffffffffffffffffffffffffffffffff167f8be0079c531659141344cd1fd0a4f28419497f9722a3daafe3b4186f6b6457e060405160405180910390a3806000806101000a81548173ffffffffffffffffffffffffffffffffffffffff021916908373ffffffffffffffffffffffffffffffffffffffff16021790555050565b600073ffffffffffffffffffffffffffffffffffffffff82169050919050565b60006107878261075c565b9050919050565b6107978161077c565b82525050565b60006020820190506107b2600083018461078e565b92915050565b60008115159050919050565b6107cd816107b8565b82525050565b60006020820190506107e860008301846107c4565b92915050565b600080fd5b6000819050919050565b610806816107f3565b811461081157600080fd5b50565b600081359050610823816107fd565b92915050565b60006020828403121561083f5761083e6107ee565b5b600061084d84828501610814565b91505092915050565b600081519050919050565b600082825260208201905092915050565b60005b83811015610890578082015181840152602081019050610875565b8381111561089f576000848401525b50505050565b6000601f19601f8301169050919050565b60006108c182610856565b6108cb8185610861565b93506108db818560208601610872565b6108e4816108a5565b840191505092915050565b6000602082019050818103600083015261090981846108b6565b905092915050565b600061ffff82169050919050565b61092881610911565b82525050565b6000602082019050610943600083018461091f565b92915050565b610952816107f3565b82525050565b600063ffffffff82169050919050565b61097181610958565b82525050565b600060ff82169050919050565b61098d81610977565b82525050565b6000610100820190506109a9600083018b610949565b6109b6602083018a610949565b6109c36040830189610968565b6109d0606083018861091f565b6109dd608083018761091f565b6109ea60a083018661091f565b6109f760c0830185610984565b81810360e0830152610a0981846108b6565b90509998505050505050505050565b610a218161077c565b8114610a2c57600080fd5b50565b600081359050610a3e81610a18565b92915050565b600060208284031215610a5a57610a596107ee565b5b6000610a6884828501610a2f565b91505092915050565b600081905092915050565b7f476f6c66436c7562202300000000000000000000000000000000000000000000600082015250565b6000610ab2600a83610a71565b9150610abd82610a7c565b600a82019050919050565b6000610ad382610856565b610add8185610a71565b9350610aed818560208601610872565b80840191505092915050565b6000610b0482610aa5565b9150610b108284610ac8565b915081905092915050565b7f4e487b7100000000000000000000000000000000000000000000000000000000600052601260045260246000fd5b6000610b55826107f3565b9150610b60836107f3565b925082610b7057610b6f610b1b565b5b828206905092915050565b7f4e487b7100000000000000000000000000000000000000000000000000000000600052603260045260246000fd5b7f4e487b7100000000000000000000000000000000000000000000000000000000600052602260045260246000fd5b60006002820490506001821680610bf157607f821691505b60208210811415610c0557610c04610baa565b5b50919050565b7f4e487b7100000000000000000000000000000000000000000000000000000000600052601160045260246000fd5b6000610c45826107f3565b91507fffffffffffffffffffffffffffffffffffffffffffffffffffffffffffffffff821415610c7857610c77610c0b565b5b600182019050919050565b6000610c8e826107f3565b9150610c99836107f3565b925082610ca957610ca8610b1b565b5b828204905092915050565b7f4e487b7100000000000000000000000000000000000000000000000000000000600052604160045260246000fd5b6000610cee826107f3565b9150610cf9836107f3565b925082821015610d0c57610d0b610c0b565b5b828203905092915050565b6000610d22826107f3565b9150610d2d836107f3565b9250817fffffffffffffffffffffffffffffffffffffffffffffffffffffffffffffffff0483118215151615610d6657610d65610c0b565b5b828202905092915050565b6000610d7c82610977565b9150610d8783610977565b92508260ff03821115610d9d57610d9c610c0b565b5b828201905092915050565b6000819050919050565b610dc3610dbe826107f3565b610da8565b82525050565b60008160601b9050919050565b6000610de182610dc9565b9050919050565b6000610df382610dd6565b9050919050565b610e0b610e068261077c565b610de8565b82525050565b6000610e1d8286610db2565b602082019150610e2d8285610dfa565b601482019150610e3d8284610db2565b60208201915081905094935050505056fea264697066735822122094d068550564fd0479a60f9c037bd264daa3d625bb9ea2c3d2ce57fc70896b2464736f6c634300080b0033516d664678636e5074414d7a65647579576d4c6d4a4657786b3262534a45394e6e594e5431474e565a534e697970516d5069335632685247724b45326269754e5a7a35325a42784142796b6765557647377367645259336a7a427879516d6461766a5846534a5036534c763851764d54567a6e43706e5031364e383866555650695554354c44356b4473516d5675793448785461717070795558774a347a38786b5461765a594c416f676239745536557358527776694343516d52747a36763679624e6b4b5a7074724d5a5243786f4d32654e347737325878466e76584b4362635433375974516d5545444b4b59424b47643759464b7757444e55624d677644774376454844573941374e365944644e4a346447516d595145556a78557055474e6e47315148365167436e66533943506f59743943666878345959714566376a7846",
  "immutableReferences": {},
  "source": "pragma solidity ^0.8.0;\n\nimport \"./_Ownable.sol\";\nimport \"./_SafeMath.sol\";\nimport \"./1_GolfClubUtils.sol\";\n\ncontract GolfClubFactory is GolfClubUtils, Ownable {\n    using SafeMath for uint256;\n    using SafeMath32 for uint32;\n    using SafeMath16 for uint16;\n\n    uint256 dnaDigits = 16;\n    uint256 dnaModulus = 10**dnaDigits;\n    uint256 randNonce = 0;\n    uint16[] possibleGolfClubPerk = [100, 200, 300, 400]; // Long, Short, Precision, Obstacle\n    uint8[] rarityProbability = [0, 55, 74, 88, 97]; // Common, Uncommon, Rare, Epic, Legendary\n    uint8 maxUpgradableRarity = 3;\n\n    string[] private images = [\n        \"QmUEDKKYBKGd7YFKwWDNUbMgvDwCvEHDW9A7N6YDdNJ4dG\",\n        \"QmPi3V2hRGrKE2biuNZz52ZBxABykgeUvG7sgdRY3jzBxy\",\n        \"QmRtz6v6ybNkKZptrMZRCxoM2eN4w72XxFnvXKCbcT37Yt\",\n        \"QmdavjXFSJP6SLv8QvMTVznCpnP16N88fUVPiUT5LD5kDs\",\n        \"QmVuy4HxTaqppyUXwJ4z8xkTavZYLAogb9tU6UsXRwviCC\",\n        \"QmYQEUjxUpUGNnG1QH6QgCnfS9CPoYt9Cfhx4YYqEf7jxF\",\n        \"QmfFxcnPtAMzeduyWmLmJFWxk2bSJE9NnYNT1GNVZSNiyp\"\n    ];\n\n    struct GolfClub {\n        uint256 id;\n        uint256 dna;\n        uint32 level;\n        uint16 winCount;\n        uint16 lossCount;\n        uint16 playType;\n        uint8 rarity;\n        string name;\n    }\n\n    GolfClub[] public golf_clubs;\n\n    function _createGolfClub(\n        uint256 _id,\n        string memory _name,\n        uint16 _playType,\n        uint256 _dna\n    ) private {\n        uint8 _rarity = _generateGolfClubRarity();\n\n        golf_clubs.push(\n            GolfClub(_id, _dna, 1, 0, 0, _playType, _rarity, _name)\n        );\n    }\n\n    function _generateRandomDna(string memory _str)\n        private\n        view\n        returns (uint256)\n    {\n        uint256 rand = uint256(keccak256(abi.encodePacked(_str)));\n        return rand % dnaModulus;\n    }\n\n    function getRandGolfClubType(uint256 _nonce) public view returns (uint16) {\n        return\n            possibleGolfClubPerk[\n                _randMod(100, _nonce) % possibleGolfClubPerk.length\n            ];\n    }\n\n    function _generateGolfClubRarity() private view returns (uint8) {\n        uint256 rand = _randMod(100, randNonce);\n        if (rand >= rarityProbability[4]) return 4; // 3%\n        if (rand >= rarityProbability[3]) return 3; // 9%\n        if (rand >= rarityProbability[2]) return 2; // 13%\n        if (rand >= rarityProbability[1]) return 1; // 19%;\n        return 0; // 56%\n    }\n\n    function _randMod(uint256 _modulus, uint256 _nonce)\n        internal\n        view\n        returns (uint256)\n    {\n        return\n            uint256(\n                keccak256(abi.encodePacked(block.timestamp, msg.sender, _nonce))\n            ) % _modulus;\n    }\n\n    function createCollectableGolfClub(uint256 _tokenId)\n        internal\n        returns (string storage)\n    {\n        string memory _name = concatGolfClubName(_tokenId);\n        randNonce = randNonce.add(1);\n        uint16 _playType = getRandGolfClubType(randNonce);\n        uint256 randDna = _generateRandomDna(_name);\n        randDna = randDna - (randDna % 100);\n        _createGolfClub(_tokenId, _name, _playType, randDna);\n\n        uint256 choosenImage = randDna % images.length;\n        return images[choosenImage];\n    }\n}\n",
  "sourcePath": "/home/roger/Documents/albatross-mvp/truffle/contracts/1_GolfClubFactory.sol",
  "compiler": {
    "name": "solc",
    "version": "0.8.11+commit.d7f03943.Emscripten.clang"
  },
  "schemaVersion": "3.4.4",
  "updatedAt": "2022-02-01T03:34:24.534Z",
  "devdoc": {
    "kind": "dev",
    "methods": {
      "isOwner()": {
        "returns": {
          "_0": "true if `msg.sender` is the owner of the contract."
        }
      },
      "owner()": {
        "returns": {
          "_0": "the address of the owner."
        }
      },
      "renounceOwnership()": {
        "details": "Allows the current owner to relinquish control of the contract."
      },
      "transferOwnership(address)": {
        "details": "Allows the current owner to transfer control of the contract to a newOwner.",
        "params": {
          "newOwner": "The address to transfer ownership to."
        }
      }
    },
    "version": 1
  },
  "userdoc": {
    "kind": "user",
    "methods": {
      "renounceOwnership()": {
        "notice": "Renouncing to ownership will leave the contract without an owner. It will not be possible to call the functions with the `onlyOwner` modifier anymore."
      }
    },
    "version": 1
  }
}