{
  "contractName": "GolfClubPayments",
  "abi": [
    {
      "anonymous": false,
      "inputs": [
        {
          "indexed": true,
          "internalType": "address",
          "name": "previousOwner",
          "type": "address"
        },
        {
          "indexed": true,
          "internalType": "address",
          "name": "newOwner",
          "type": "address"
        }
      ],
      "name": "OwnershipTransferred",
      "type": "event"
    },
    {
      "inputs": [
        {
          "internalType": "address",
          "name": "",
          "type": "address"
        }
      ],
      "name": "claimBalance",
      "outputs": [
        {
          "internalType": "uint256",
          "name": "",
          "type": "uint256"
        }
      ],
      "stateMutability": "view",
      "type": "function"
    },
    {
      "inputs": [],
      "name": "isOwner",
      "outputs": [
        {
          "internalType": "bool",
          "name": "",
          "type": "bool"
        }
      ],
      "stateMutability": "view",
      "type": "function"
    },
    {
      "inputs": [],
      "name": "owner",
      "outputs": [
        {
          "internalType": "address",
          "name": "",
          "type": "address"
        }
      ],
      "stateMutability": "view",
      "type": "function"
    },
    {
      "inputs": [],
      "name": "renounceOwnership",
      "outputs": [],
      "stateMutability": "nonpayable",
      "type": "function"
    },
    {
      "inputs": [
        {
          "internalType": "address",
          "name": "newOwner",
          "type": "address"
        }
      ],
      "name": "transferOwnership",
      "outputs": [],
      "stateMutability": "nonpayable",
      "type": "function"
    },
    {
      "inputs": [],
      "name": "claimRewards",
      "outputs": [],
      "stateMutability": "nonpayable",
      "type": "function"
    },
    {
      "inputs": [],
      "name": "sendEthToContract",
      "outputs": [],
      "stateMutability": "payable",
      "type": "function"
    },
    {
      "inputs": [
        {
          "internalType": "address payable",
          "name": "_to",
          "type": "address"
        },
        {
          "internalType": "uint256",
          "name": "_amount",
          "type": "uint256"
        }
      ],
      "name": "sendEthFromContract",
      "outputs": [],
      "stateMutability": "nonpayable",
      "type": "function"
    }
  ],
  "bytecode": "0x6080604052670de0b6b3a764000060015566354a6ba7a1800060025534801561002757600080fd5b50336000806101000a81548173ffffffffffffffffffffffffffffffffffffffff021916908373ffffffffffffffffffffffffffffffffffffffff16021790555060008054906101000a900473ffffffffffffffffffffffffffffffffffffffff1673ffffffffffffffffffffffffffffffffffffffff16600073ffffffffffffffffffffffffffffffffffffffff167f8be0079c531659141344cd1fd0a4f28419497f9722a3daafe3b4186f6b6457e060405160405180910390a36107b0806100f26000396000f3fe60806040526004361061007b5760003560e01c80638f32d59b1161004e5780638f32d59b146100e3578063b633e4cd1461010e578063becccfbc1461014b578063f2fde38b146101745761007b565b8063372500ab14610080578063713f5e4d14610097578063715018a6146100a15780638da5cb5b146100b8575b600080fd5b34801561008c57600080fd5b5061009561019d565b005b61009f610279565b005b3480156100ad57600080fd5b506100b661028a565b005b3480156100c457600080fd5b506100cd610359565b6040516100da91906105ed565b60405180910390f35b3480156100ef57600080fd5b506100f8610382565b6040516101059190610623565b60405180910390f35b34801561011a57600080fd5b506101356004803603810190610130919061066f565b6103d9565b60405161014291906106b5565b60405180910390f35b34801561015757600080fd5b50610172600480360381019061016d919061073a565b6103f1565b005b34801561018057600080fd5b5061019b6004803603810190610196919061066f565b61044d565b005b6000600360003373ffffffffffffffffffffffffffffffffffffffff1673ffffffffffffffffffffffffffffffffffffffff16815260200190815260200160002054116101e957600080fd5b61023233600360003373ffffffffffffffffffffffffffffffffffffffff1673ffffffffffffffffffffffffffffffffffffffff1681526020019081526020016000205461046a565b6000600360003373ffffffffffffffffffffffffffffffffffffffff1673ffffffffffffffffffffffffffffffffffffffff16815260200190815260200160002081905550565b60015434101561028857600080fd5b565b610292610382565b61029b57600080fd5b600073ffffffffffffffffffffffffffffffffffffffff1660008054906101000a900473ffffffffffffffffffffffffffffffffffffffff1673ffffffffffffffffffffffffffffffffffffffff167f8be0079c531659141344cd1fd0a4f28419497f9722a3daafe3b4186f6b6457e060405160405180910390a360008060006101000a81548173ffffffffffffffffffffffffffffffffffffffff021916908373ffffffffffffffffffffffffffffffffffffffff160217905550565b60008060009054906101000a900473ffffffffffffffffffffffffffffffffffffffff16905090565b60008060009054906101000a900473ffffffffffffffffffffffffffffffffffffffff1673ffffffffffffffffffffffffffffffffffffffff163373ffffffffffffffffffffffffffffffffffffffff1614905090565b60036020528060005260406000206000915090505481565b6103f9610382565b61040257600080fd5b8173ffffffffffffffffffffffffffffffffffffffff166108fc829081150290604051600060405180830381858888f19350505050158015610448573d6000803e3d6000fd5b505050565b610455610382565b61045e57600080fd5b610467816104b5565b50565b8173ffffffffffffffffffffffffffffffffffffffff166108fc829081150290604051600060405180830381858888f193505050501580156104b0573d6000803e3d6000fd5b505050565b600073ffffffffffffffffffffffffffffffffffffffff168173ffffffffffffffffffffffffffffffffffffffff1614156104ef57600080fd5b8073ffffffffffffffffffffffffffffffffffffffff1660008054906101000a900473ffffffffffffffffffffffffffffffffffffffff1673ffffffffffffffffffffffffffffffffffffffff167f8be0079c531659141344cd1fd0a4f28419497f9722a3daafe3b4186f6b6457e060405160405180910390a3806000806101000a81548173ffffffffffffffffffffffffffffffffffffffff021916908373ffffffffffffffffffffffffffffffffffffffff16021790555050565b600073ffffffffffffffffffffffffffffffffffffffff82169050919050565b60006105d7826105ac565b9050919050565b6105e7816105cc565b82525050565b600060208201905061060260008301846105de565b92915050565b60008115159050919050565b61061d81610608565b82525050565b60006020820190506106386000830184610614565b92915050565b600080fd5b61064c816105cc565b811461065757600080fd5b50565b60008135905061066981610643565b92915050565b6000602082840312156106855761068461063e565b5b60006106938482850161065a565b91505092915050565b6000819050919050565b6106af8161069c565b82525050565b60006020820190506106ca60008301846106a6565b92915050565b60006106db826105ac565b9050919050565b6106eb816106d0565b81146106f657600080fd5b50565b600081359050610708816106e2565b92915050565b6107178161069c565b811461072257600080fd5b50565b6000813590506107348161070e565b92915050565b600080604083850312156107515761075061063e565b5b600061075f858286016106f9565b925050602061077085828601610725565b915050925092905056fea26469706673582212206b083cfd6f82b6d9ff482595ec23403867c5aa68e2b352ab0a4fac6f3f0fe32e64736f6c634300080b0033",
  "immutableReferences": {},
  "source": "pragma solidity ^0.8.0;\nimport \"./_SafeMath.sol\";\nimport \"./_Ownable.sol\";\n\ncontract GolfClubPayments is Ownable {\n    using SafeMath for uint256;\n\n    uint256 minimumContractDeposit = 1 ether;\n    uint256 winPaymentAmount = 0.015 ether;\n    mapping(address => uint256) public claimBalance;\n\n    function paymentToPlayer(address payable _to, uint256 _amount) internal {\n        _to.transfer(_amount);\n    }\n\n    function addPaymentToClaimBalance() internal {\n        claimBalance[msg.sender] = claimBalance[msg.sender].add(\n            winPaymentAmount\n        );\n    }\n\n    function claimRewards() external {\n        require(claimBalance[msg.sender] > 0 ether);\n        paymentToPlayer(payable(msg.sender), claimBalance[msg.sender]);\n        claimBalance[msg.sender] = 0 ether;\n    }\n\n    function sendEthToContract() external payable {\n        require(msg.value >= minimumContractDeposit);\n    }\n\n    function sendEthFromContract(address payable _to, uint256 _amount)\n        external\n        onlyOwner\n    {\n        _to.transfer(_amount);\n    }\n}\n",
  "sourcePath": "/home/roger/Documents/albatross-mvp/truffle/contracts/2_GolfClubPayments.sol",
  "compiler": {
    "name": "solc",
    "version": "0.8.11+commit.d7f03943.Emscripten.clang"
  },
  "schemaVersion": "3.4.4",
  "updatedAt": "2022-02-01T03:34:24.648Z",
  "devdoc": {
    "kind": "dev",
    "methods": {
      "isOwner()": {
        "returns": {
          "_0": "true if `msg.sender` is the owner of the contract."
        }
      },
      "owner()": {
        "returns": {
          "_0": "the address of the owner."
        }
      },
      "renounceOwnership()": {
        "details": "Allows the current owner to relinquish control of the contract."
      },
      "transferOwnership(address)": {
        "details": "Allows the current owner to transfer control of the contract to a newOwner.",
        "params": {
          "newOwner": "The address to transfer ownership to."
        }
      }
    },
    "version": 1
  },
  "userdoc": {
    "kind": "user",
    "methods": {
      "renounceOwnership()": {
        "notice": "Renouncing to ownership will leave the contract without an owner. It will not be possible to call the functions with the `onlyOwner` modifier anymore."
      }
    },
    "version": 1
  }
}