{
  "contractName": "GolfClubMarketplace",
  "abi": [
    {
      "anonymous": false,
      "inputs": [
        {
          "indexed": false,
          "internalType": "uint256",
          "name": "_golfClubId",
          "type": "uint256"
        },
        {
          "indexed": false,
          "internalType": "uint256",
          "name": "_price",
          "type": "uint256"
        },
        {
          "indexed": false,
          "internalType": "address",
          "name": "_seller",
          "type": "address"
        },
        {
          "indexed": false,
          "internalType": "bool",
          "name": "_active",
          "type": "bool"
        }
      ],
      "name": "ListingUpdate",
      "type": "event"
    },
    {
      "anonymous": false,
      "inputs": [
        {
          "indexed": true,
          "internalType": "address",
          "name": "previousOwner",
          "type": "address"
        },
        {
          "indexed": true,
          "internalType": "address",
          "name": "newOwner",
          "type": "address"
        }
      ],
      "name": "OwnershipTransferred",
      "type": "event"
    },
    {
      "inputs": [],
      "name": "golfClubContractAddress",
      "outputs": [
        {
          "internalType": "address",
          "name": "",
          "type": "address"
        }
      ],
      "stateMutability": "view",
      "type": "function"
    },
    {
      "inputs": [],
      "name": "isOwner",
      "outputs": [
        {
          "internalType": "bool",
          "name": "",
          "type": "bool"
        }
      ],
      "stateMutability": "view",
      "type": "function"
    },
    {
      "inputs": [
        {
          "internalType": "uint256",
          "name": "",
          "type": "uint256"
        }
      ],
      "name": "listingIndexToToken",
      "outputs": [
        {
          "internalType": "uint256",
          "name": "",
          "type": "uint256"
        }
      ],
      "stateMutability": "view",
      "type": "function"
    },
    {
      "inputs": [
        {
          "internalType": "uint256",
          "name": "",
          "type": "uint256"
        }
      ],
      "name": "listings",
      "outputs": [
        {
          "internalType": "uint256",
          "name": "price",
          "type": "uint256"
        },
        {
          "internalType": "address",
          "name": "seller",
          "type": "address"
        }
      ],
      "stateMutability": "view",
      "type": "function"
    },
    {
      "inputs": [
        {
          "internalType": "address",
          "name": "",
          "type": "address"
        }
      ],
      "name": "listingsBalance",
      "outputs": [
        {
          "internalType": "uint256",
          "name": "",
          "type": "uint256"
        }
      ],
      "stateMutability": "view",
      "type": "function"
    },
    {
      "inputs": [],
      "name": "nextListingId",
      "outputs": [
        {
          "internalType": "uint256",
          "name": "",
          "type": "uint256"
        }
      ],
      "stateMutability": "view",
      "type": "function"
    },
    {
      "inputs": [],
      "name": "owner",
      "outputs": [
        {
          "internalType": "address",
          "name": "",
          "type": "address"
        }
      ],
      "stateMutability": "view",
      "type": "function"
    },
    {
      "inputs": [],
      "name": "renounceOwnership",
      "outputs": [],
      "stateMutability": "nonpayable",
      "type": "function"
    },
    {
      "inputs": [
        {
          "internalType": "address",
          "name": "newOwner",
          "type": "address"
        }
      ],
      "name": "transferOwnership",
      "outputs": [],
      "stateMutability": "nonpayable",
      "type": "function"
    },
    {
      "inputs": [
        {
          "internalType": "address",
          "name": "_contractAddress",
          "type": "address"
        }
      ],
      "name": "setGolfClubContract",
      "outputs": [],
      "stateMutability": "nonpayable",
      "type": "function"
    },
    {
      "inputs": [],
      "name": "getToken",
      "outputs": [
        {
          "internalType": "contract GolfClubNFT",
          "name": "",
          "type": "address"
        }
      ],
      "stateMutability": "view",
      "type": "function"
    },
    {
      "inputs": [
        {
          "internalType": "uint256",
          "name": "_golfClubId",
          "type": "uint256"
        },
        {
          "internalType": "uint256",
          "name": "_price",
          "type": "uint256"
        }
      ],
      "name": "addListing",
      "outputs": [],
      "stateMutability": "nonpayable",
      "type": "function"
    },
    {
      "inputs": [
        {
          "internalType": "uint256",
          "name": "_golfClubId",
          "type": "uint256"
        }
      ],
      "name": "cancelListing",
      "outputs": [],
      "stateMutability": "nonpayable",
      "type": "function"
    },
    {
      "inputs": [
        {
          "internalType": "uint256",
          "name": "_golfClubId",
          "type": "uint256"
        }
      ],
      "name": "purchase",
      "outputs": [],
      "stateMutability": "payable",
      "type": "function"
    },
    {
      "inputs": [],
      "name": "claimOwnerBalance",
      "outputs": [],
      "stateMutability": "nonpayable",
      "type": "function"
    }
  ],
  "bytecode": "0x6080604052600060025534801561001557600080fd5b50336000806101000a81548173ffffffffffffffffffffffffffffffffffffffff021916908373ffffffffffffffffffffffffffffffffffffffff16021790555060008054906101000a900473ffffffffffffffffffffffffffffffffffffffff1673ffffffffffffffffffffffffffffffffffffffff16600073ffffffffffffffffffffffffffffffffffffffff167f8be0079c531659141344cd1fd0a4f28419497f9722a3daafe3b4186f6b6457e060405160405180910390a3611c46806100e06000396000f3fe6080604052600436106100e85760003560e01c80638da5cb5b1161008a578063ee30595711610059578063ee305957146102d1578063efef39a11461030e578063f2fde38b1461032a578063ff012cbe14610353576100e8565b80638da5cb5b146102125780638f32d59b1461023d578063aaccf1ec14610268578063de74e57b14610293576100e8565b806346a8f5a6116100c657806346a8f5a61461016c578063611f64a6146101a9578063715018a6146101d2578063836cf6e9146101e9576100e8565b806321df0da7146100ed5780632d753b1d14610118578063305a67a814610143575b600080fd5b3480156100f957600080fd5b5061010261036a565b60405161010f919061147e565b60405180910390f35b34801561012457600080fd5b5061012d610394565b60405161013a91906114ba565b60405180910390f35b34801561014f57600080fd5b5061016a60048036038101906101659190611510565b6103ba565b005b34801561017857600080fd5b50610193600480360381019061018e9190611510565b61063a565b6040516101a0919061154c565b60405180910390f35b3480156101b557600080fd5b506101d060048036038101906101cb9190611593565b610652565b005b3480156101de57600080fd5b506101e76106a7565b005b3480156101f557600080fd5b50610210600480360381019061020b91906115c0565b610776565b005b34801561021e57600080fd5b50610227610b6b565b60405161023491906114ba565b60405180910390f35b34801561024957600080fd5b50610252610b94565b60405161025f919061161b565b60405180910390f35b34801561027457600080fd5b5061027d610beb565b60405161028a919061154c565b60405180910390f35b34801561029f57600080fd5b506102ba60048036038101906102b59190611510565b610bf1565b6040516102c8929190611636565b60405180910390f35b3480156102dd57600080fd5b506102f860048036038101906102f39190611593565b610c35565b604051610305919061154c565b60405180910390f35b61032860048036038101906103239190611510565b610c4d565b005b34801561033657600080fd5b50610351600480360381019061034c9190611593565b611162565b005b34801561035f57600080fd5b5061036861117f565b005b6000600160009054906101000a900473ffffffffffffffffffffffffffffffffffffffff16905090565b600160009054906101000a900473ffffffffffffffffffffffffffffffffffffffff1681565b806103c361036a565b73ffffffffffffffffffffffffffffffffffffffff16636352211e826040518263ffffffff1660e01b81526004016103fb919061154c565b602060405180830381865afa158015610418573d6000803e3d6000fd5b505050506040513d601f19601f8201168201806040525081019061043c9190611674565b73ffffffffffffffffffffffffffffffffffffffff163373ffffffffffffffffffffffffffffffffffffffff16146104a9576040517f08c379a00000000000000000000000000000000000000000000000000000000081526004016104a0906116fe565b60405180910390fd5b600115156104b561036a565b73ffffffffffffffffffffffffffffffffffffffff1663f84df7b6846040518263ffffffff1660e01b81526004016104ed919061154c565b602060405180830381865afa15801561050a573d6000803e3d6000fd5b505050506040513d601f19601f8201168201806040525081019061052e919061174a565b151514610570576040517f08c379a0000000000000000000000000000000000000000000000000000000008152600401610567906117c3565b60405180910390fd5b61057861036a565b73ffffffffffffffffffffffffffffffffffffffff1663b58480d3836040518263ffffffff1660e01b81526004016105b0919061154c565b600060405180830381600087803b1580156105ca57600080fd5b505af11580156105de573d6000803e3d6000fd5b505050507fad0b4dcaa62aa43533a6b4668a95754ade724b42946f23e85c83290b2568140a82600460008581526020019081526020016000206000015433600060405161062e94939291906117e3565b60405180910390a15050565b60056020528060005260406000206000915090505481565b61065a610b94565b61066357600080fd5b80600160006101000a81548173ffffffffffffffffffffffffffffffffffffffff021916908373ffffffffffffffffffffffffffffffffffffffff16021790555050565b6106af610b94565b6106b857600080fd5b600073ffffffffffffffffffffffffffffffffffffffff1660008054906101000a900473ffffffffffffffffffffffffffffffffffffffff1673ffffffffffffffffffffffffffffffffffffffff167f8be0079c531659141344cd1fd0a4f28419497f9722a3daafe3b4186f6b6457e060405160405180910390a360008060006101000a81548173ffffffffffffffffffffffffffffffffffffffff021916908373ffffffffffffffffffffffffffffffffffffffff160217905550565b8161077f61036a565b73ffffffffffffffffffffffffffffffffffffffff16636352211e826040518263ffffffff1660e01b81526004016107b7919061154c565b602060405180830381865afa1580156107d4573d6000803e3d6000fd5b505050506040513d601f19601f820116820180604052508101906107f89190611674565b73ffffffffffffffffffffffffffffffffffffffff163373ffffffffffffffffffffffffffffffffffffffff1614610865576040517f08c379a000000000000000000000000000000000000000000000000000000000815260040161085c906116fe565b60405180910390fd5b61086d61036a565b73ffffffffffffffffffffffffffffffffffffffff1663e985e9c533306040518363ffffffff1660e01b81526004016108a7929190611828565b602060405180830381865afa1580156108c4573d6000803e3d6000fd5b505050506040513d601f19601f820116820180604052508101906108e8919061174a565b610927576040517f08c379a000000000000000000000000000000000000000000000000000000000815260040161091e9061189d565b60405180910390fd5b6000151561093361036a565b73ffffffffffffffffffffffffffffffffffffffff1663f84df7b6856040518263ffffffff1660e01b815260040161096b919061154c565b602060405180830381865afa158015610988573d6000803e3d6000fd5b505050506040513d601f19601f820116820180604052508101906109ac919061174a565b1515146109ee576040517f08c379a00000000000000000000000000000000000000000000000000000000081526004016109e59061192f565b60405180910390fd5b6109f661036a565b73ffffffffffffffffffffffffffffffffffffffff1663390939c4846040518263ffffffff1660e01b8152600401610a2e919061154c565b600060405180830381600087803b158015610a4857600080fd5b505af1158015610a5c573d6000803e3d6000fd5b5050505060405180604001604052808381526020013373ffffffffffffffffffffffffffffffffffffffff16815250600460008581526020019081526020016000206000820151816000015560208201518160010160006101000a81548173ffffffffffffffffffffffffffffffffffffffff021916908373ffffffffffffffffffffffffffffffffffffffff1602179055509050508260056000600254815260200190815260200160002081905550610b22600160025461129190919063ffffffff16565b6002819055507fad0b4dcaa62aa43533a6b4668a95754ade724b42946f23e85c83290b2568140a8383336001604051610b5e94939291906117e3565b60405180910390a1505050565b60008060009054906101000a900473ffffffffffffffffffffffffffffffffffffffff16905090565b60008060009054906101000a900473ffffffffffffffffffffffffffffffffffffffff1673ffffffffffffffffffffffffffffffffffffffff163373ffffffffffffffffffffffffffffffffffffffff1614905090565b60025481565b60046020528060005260406000206000915090508060000154908060010160009054906101000a900473ffffffffffffffffffffffffffffffffffffffff16905082565b60036020528060005260406000206000915090505481565b6004600082815260200190815260200160002060010160009054906101000a900473ffffffffffffffffffffffffffffffffffffffff1673ffffffffffffffffffffffffffffffffffffffff163373ffffffffffffffffffffffffffffffffffffffff161415610cf2576040517f08c379a0000000000000000000000000000000000000000000000000000000008152600401610ce99061199b565b60405180910390fd5b60046000828152602001908152602001600020600001543414610d4a576040517f08c379a0000000000000000000000000000000000000000000000000000000008152600401610d4190611a07565b60405180910390fd5b610d5261036a565b73ffffffffffffffffffffffffffffffffffffffff1663e985e9c56004600084815260200190815260200160002060010160009054906101000a900473ffffffffffffffffffffffffffffffffffffffff16306040518363ffffffff1660e01b8152600401610dc2929190611828565b602060405180830381865afa158015610ddf573d6000803e3d6000fd5b505050506040513d601f19601f82011682018060405250810190610e03919061174a565b610e42576040517f08c379a0000000000000000000000000000000000000000000000000000000008152600401610e399061189d565b60405180910390fd5b60011515610e4e61036a565b73ffffffffffffffffffffffffffffffffffffffff1663f84df7b6836040518263ffffffff1660e01b8152600401610e86919061154c565b602060405180830381865afa158015610ea3573d6000803e3d6000fd5b505050506040513d601f19601f82011682018060405250810190610ec7919061174a565b151514610f09576040517f08c379a0000000000000000000000000000000000000000000000000000000008152600401610f0090611a73565b60405180910390fd5b610f1161036a565b73ffffffffffffffffffffffffffffffffffffffff1663b1ae2bc06004600084815260200190815260200160002060010160009054906101000a900473ffffffffffffffffffffffffffffffffffffffff1633846040518463ffffffff1660e01b8152600401610f8393929190611a93565b600060405180830381600087803b158015610f9d57600080fd5b505af1158015610fb1573d6000803e3d6000fd5b5050505061103d34600360006004600086815260200190815260200160002060010160009054906101000a900473ffffffffffffffffffffffffffffffffffffffff1673ffffffffffffffffffffffffffffffffffffffff1673ffffffffffffffffffffffffffffffffffffffff1681526020019081526020016000205461129190919063ffffffff16565b600360006004600085815260200190815260200160002060010160009054906101000a900473ffffffffffffffffffffffffffffffffffffffff1673ffffffffffffffffffffffffffffffffffffffff1673ffffffffffffffffffffffffffffffffffffffff16815260200190815260200160002081905550336004600083815260200190815260200160002060010160006101000a81548173ffffffffffffffffffffffffffffffffffffffff021916908373ffffffffffffffffffffffffffffffffffffffff1602179055507fad0b4dcaa62aa43533a6b4668a95754ade724b42946f23e85c83290b2568140a81600460008481526020019081526020016000206000015433600060405161115794939291906117e3565b60405180910390a150565b61116a610b94565b61117357600080fd5b61117c816112bd565b50565b6000600360003373ffffffffffffffffffffffffffffffffffffffff1673ffffffffffffffffffffffffffffffffffffffff1681526020019081526020016000205411611201576040517f08c379a00000000000000000000000000000000000000000000000000000000081526004016111f890611b3c565b60405180910390fd5b61124a33600360003373ffffffffffffffffffffffffffffffffffffffff1673ffffffffffffffffffffffffffffffffffffffff168152602001908152602001600020546113b4565b6000600360003373ffffffffffffffffffffffffffffffffffffffff1673ffffffffffffffffffffffffffffffffffffffff16815260200190815260200160002081905550565b60008082846112a09190611b8b565b9050838110156112b3576112b2611be1565b5b8091505092915050565b600073ffffffffffffffffffffffffffffffffffffffff168173ffffffffffffffffffffffffffffffffffffffff1614156112f757600080fd5b8073ffffffffffffffffffffffffffffffffffffffff1660008054906101000a900473ffffffffffffffffffffffffffffffffffffffff1673ffffffffffffffffffffffffffffffffffffffff167f8be0079c531659141344cd1fd0a4f28419497f9722a3daafe3b4186f6b6457e060405160405180910390a3806000806101000a81548173ffffffffffffffffffffffffffffffffffffffff021916908373ffffffffffffffffffffffffffffffffffffffff16021790555050565b8173ffffffffffffffffffffffffffffffffffffffff166108fc829081150290604051600060405180830381858888f193505050501580156113fa573d6000803e3d6000fd5b505050565b600073ffffffffffffffffffffffffffffffffffffffff82169050919050565b6000819050919050565b600061144461143f61143a846113ff565b61141f565b6113ff565b9050919050565b600061145682611429565b9050919050565b60006114688261144b565b9050919050565b6114788161145d565b82525050565b6000602082019050611493600083018461146f565b92915050565b60006114a4826113ff565b9050919050565b6114b481611499565b82525050565b60006020820190506114cf60008301846114ab565b92915050565b600080fd5b6000819050919050565b6114ed816114da565b81146114f857600080fd5b50565b60008135905061150a816114e4565b92915050565b600060208284031215611526576115256114d5565b5b6000611534848285016114fb565b91505092915050565b611546816114da565b82525050565b6000602082019050611561600083018461153d565b92915050565b61157081611499565b811461157b57600080fd5b50565b60008135905061158d81611567565b92915050565b6000602082840312156115a9576115a86114d5565b5b60006115b78482850161157e565b91505092915050565b600080604083850312156115d7576115d66114d5565b5b60006115e5858286016114fb565b92505060206115f6858286016114fb565b9150509250929050565b60008115159050919050565b61161581611600565b82525050565b6000602082019050611630600083018461160c565b92915050565b600060408201905061164b600083018561153d565b61165860208301846114ab565b9392505050565b60008151905061166e81611567565b92915050565b60006020828403121561168a576116896114d5565b5b60006116988482850161165f565b91505092915050565b600082825260208201905092915050565b7f4e6f7420746865204e4654206f776e65722e0000000000000000000000000000600082015250565b60006116e86012836116a1565b91506116f3826116b2565b602082019050919050565b60006020820190508181036000830152611717816116db565b9050919050565b61172781611600565b811461173257600080fd5b50565b6000815190506117448161171e565b92915050565b6000602082840312156117605761175f6114d5565b5b600061176e84828501611735565b91505092915050565b7f4c697374696e6720697320616c726561647920696e6163746976652e00000000600082015250565b60006117ad601c836116a1565b91506117b882611777565b602082019050919050565b600060208201905081810360008301526117dc816117a0565b9050919050565b60006080820190506117f8600083018761153d565b611805602083018661153d565b61181260408301856114ab565b61181f606083018461160c565b95945050505050565b600060408201905061183d60008301856114ab565b61184a60208301846114ab565b9392505050565b7f4e4654206e6f7420617070726f76656420746f20747261646521000000000000600082015250565b6000611887601a836116a1565b915061189282611851565b602082019050919050565b600060208201905081810360008301526118b68161187a565b9050919050565b7f4c697374696e6720697320616c72656164792061637469766520666f7220746860008201527f697320746f6b656e2e0000000000000000000000000000000000000000000000602082015250565b60006119196029836116a1565b9150611924826118bd565b604082019050919050565b600060208201905081810360008301526119488161190c565b9050919050565b7f43616e27742062757920796f7572206f776e20746f6b656e2e00000000000000600082015250565b60006119856019836116a1565b91506119908261194f565b602082019050919050565b600060208201905081810360008301526119b481611978565b9050919050565b7f57726f6e6720616d6f756e742e20496e76616c69642070757263686173652e00600082015250565b60006119f1601f836116a1565b91506119fc826119bb565b602082019050919050565b60006020820190508181036000830152611a20816119e4565b9050919050565b7f54686973206c697374696e67206973206e6f7420616374697665210000000000600082015250565b6000611a5d601b836116a1565b9150611a6882611a27565b602082019050919050565b60006020820190508181036000830152611a8c81611a50565b9050919050565b6000606082019050611aa860008301866114ab565b611ab560208301856114ab565b611ac2604083018461153d565b949350505050565b7f596f7520646f6e2774206861766520616e792062616c616e636520746f20636c60008201527f61696d2e00000000000000000000000000000000000000000000000000000000602082015250565b6000611b266024836116a1565b9150611b3182611aca565b604082019050919050565b60006020820190508181036000830152611b5581611b19565b9050919050565b7f4e487b7100000000000000000000000000000000000000000000000000000000600052601160045260246000fd5b6000611b96826114da565b9150611ba1836114da565b9250827fffffffffffffffffffffffffffffffffffffffffffffffffffffffffffffffff03821115611bd657611bd5611b5c565b5b828201905092915050565b7f4e487b7100000000000000000000000000000000000000000000000000000000600052600160045260246000fdfea2646970667358221220ffd404618f93b1701ea177160dbf5e4542843961c0aa9c94db22b7ab81d6242864736f6c634300080b0033",
  "immutableReferences": {},
  "source": "pragma solidity ^0.8.0;\n\nimport \"./_Ownable.sol\";\nimport \"./_SafeMath.sol\";\n\ninterface GolfClubNFT {\n    function ownerOf(uint256 tokenId) external view returns (address);\n    function isApprovedForAll(address owner, address operator) external view returns (bool);\n    function safeTransferFrom(address from, address to, uint256 tokenId) external;\n    function listedToSale(uint256) external view returns (bool);\n    function listTokenToSale(uint256 _golfClubId) external;\n    function unlistTokenToSale(uint256 _golfClubId) external;\n    function safeOperatorTransfer(address _nftOwner, address _toAddress, uint256 _golfClubId) external;\n}\n\ncontract GolfClubMarketplace is Ownable {\n    using SafeMath for uint256;\n\n    event ListingUpdate(uint _golfClubId, uint _price, address _seller, bool _active);\n\n    address public golfClubContractAddress;\n    uint256 public nextListingId = 0;\n    \n    struct ListedToken {\n        uint256 price;\n        address seller;\n    }\n\n    mapping(address => uint) public listingsBalance;\n    mapping(uint => ListedToken) public listings;\n    mapping(uint => uint) public listingIndexToToken;\n\n    modifier onlyOwnerOf(uint _golfClubId) {\n        require(msg.sender == getToken().ownerOf(_golfClubId), \"Not the NFT owner.\");\n        _;\n    }\n\n    function setGolfClubContract(address _contractAddress) external onlyOwner {\n        golfClubContractAddress = _contractAddress;\n    }\n\n    function getToken() public view returns(GolfClubNFT) {\n        return GolfClubNFT(golfClubContractAddress);\n    }\n\n    function addListing(uint _golfClubId, uint _price) external onlyOwnerOf(_golfClubId) {\n        require(getToken().isApprovedForAll(msg.sender, address(this)), \"NFT not approved to trade!\");\n        require(getToken().listedToSale(_golfClubId) == false, \"Listing is already active for this token.\");\n        getToken().listTokenToSale(_golfClubId);\n        listings[_golfClubId] = ListedToken(_price, msg.sender);\n        listingIndexToToken[nextListingId] = _golfClubId;\n        nextListingId = nextListingId.add(1);\n        emit ListingUpdate(_golfClubId, _price, msg.sender, true);\n    }\n\n    function cancelListing(uint _golfClubId) external onlyOwnerOf(_golfClubId) { // @dev cancelListing must be called also when the Golf Club NFT is traded\n        require(getToken().listedToSale(_golfClubId) == true, \"Listing is already inactive.\");\n        getToken().unlistTokenToSale(_golfClubId);\n        emit ListingUpdate(_golfClubId, listings[_golfClubId].price, msg.sender, false);\n    }\n\n    function purchase(uint _golfClubId) external payable {\n        require(msg.sender != listings[_golfClubId].seller, \"Can't buy your own token.\");\n        require(msg.value == listings[_golfClubId].price, \"Wrong amount. Invalid purchase.\");\n        require(getToken().isApprovedForAll(listings[_golfClubId].seller, address(this)), \"NFT not approved to trade!\");\n        require(getToken().listedToSale(_golfClubId) == true, \"This listing is not active!\");\n\n        getToken().safeOperatorTransfer(listings[_golfClubId].seller, msg.sender, _golfClubId); // Operator transfers the token and disables the listing\n        listingsBalance[listings[_golfClubId].seller] = listingsBalance[listings[_golfClubId].seller].add(msg.value); // Add balance to seller\n        listings[_golfClubId].seller = msg.sender; // Change NFT seller for this contract\n        emit ListingUpdate(_golfClubId, listings[_golfClubId].price, msg.sender, false);\n    }\n\n    function paymentToOwner(address payable _to, uint _amount) private {\n        _to.transfer(_amount);\n    }\n    \n    function claimOwnerBalance() external {\n        require(listingsBalance[msg.sender] > 0 ether, \"You don't have any balance to claim.\");\n        paymentToOwner(payable(msg.sender), listingsBalance[msg.sender]);\n        listingsBalance[msg.sender] = 0 ether;\n    }\n}\n",
  "sourcePath": "/home/roger/Documents/albatross-mvp/truffle/contracts/3_GolfClubMarketplace.sol",
  "compiler": {
    "name": "solc",
    "version": "0.8.11+commit.d7f03943.Emscripten.clang"
  },
  "schemaVersion": "3.4.4",
  "updatedAt": "2022-02-01T03:34:24.680Z",
  "devdoc": {
    "kind": "dev",
    "methods": {
      "isOwner()": {
        "returns": {
          "_0": "true if `msg.sender` is the owner of the contract."
        }
      },
      "owner()": {
        "returns": {
          "_0": "the address of the owner."
        }
      },
      "renounceOwnership()": {
        "details": "Allows the current owner to relinquish control of the contract."
      },
      "transferOwnership(address)": {
        "details": "Allows the current owner to transfer control of the contract to a newOwner.",
        "params": {
          "newOwner": "The address to transfer ownership to."
        }
      }
    },
    "version": 1
  },
  "userdoc": {
    "kind": "user",
    "methods": {
      "renounceOwnership()": {
        "notice": "Renouncing to ownership will leave the contract without an owner. It will not be possible to call the functions with the `onlyOwner` modifier anymore."
      }
    },
    "version": 1
  }
}