{
	"data": {
		"bytecode": {
			"linkReferences": {},
			"object": "6080604052670de0b6b3a764000060015566354a6ba7a180006002556000600455670214e8348c4f00006005556040518060c00160405280600060ff168152602001601060ff168152602001602060ff168152602001603060ff168152602001604060ff168152602001605060ff1681525060069060066200008392919062000248565b5066354a6ba7a18000600c5562015180600d556001600e556000600f556012601060006101000a81548161ffff021916908361ffff1602179055506103e8601060026101000a81548161ffff021916908361ffff1602179055506040518060a00160405280602d60ff168152602001603260ff168152602001603960ff168152602001604460ff168152602001605060ff1681525060119060056200012a929190620002f6565b506040518060a00160405280600560ff168152602001600460ff168152602001600360ff168152602001600260ff168152602001600160ff16815250601290600562000178929190620002f6565b503480156200018657600080fd5b50336000806101000a81548173ffffffffffffffffffffffffffffffffffffffff021916908373ffffffffffffffffffffffffffffffffffffffff16021790555060008054906101000a900473ffffffffffffffffffffffffffffffffffffffff1673ffffffffffffffffffffffffffffffffffffffff16600073ffffffffffffffffffffffffffffffffffffffff167f8be0079c531659141344cd1fd0a4f28419497f9722a3daafe3b4186f6b6457e060405160405180910390a3620003c3565b82805482825590600052602060002090601f01602090048101928215620002e35791602002820160005b83821115620002b257835183826101000a81548160ff021916908360ff160217905550926020019260010160208160000104928301926001030262000272565b8015620002e15782816101000a81549060ff0219169055600101602081600001049283019260010302620002b2565b505b509050620002f29190620003a4565b5090565b82805482825590600052602060002090601f01602090048101928215620003915791602002820160005b838211156200036057835183826101000a81548160ff021916908360ff160217905550926020019260010160208160000104928301926001030262000320565b80156200038f5782816101000a81549060ff021916905560010160208160000104928301926001030262000360565b505b509050620003a09190620003a4565b5090565b5b80821115620003bf576000816000905550600101620003a5565b5090565b61333580620003d36000396000f3fe6080604052600436106101c25760003560e01c80637b303965116100f7578063b633e4cd11610095578063d9dc0baa11610064578063d9dc0baa14610676578063dcc75ca51461069f578063ed7653e7146106ca578063f2fde38b14610707576101c2565b8063b633e4cd146105c9578063becccfbc14610606578063c61e5ec21461062f578063d544577d1461066c576101c2565b80639fbf8ec3116100d15780639fbf8ec3146104d5578063a147d43214610512578063a2b5351b1461054f578063a7ed8a521461058c576101c2565b80637b303965146104425780638da5cb5b1461047f5780638f32d59b146104aa576101c2565b806338af79c411610164578063593465231161013e57806359346523146103bb578063611f64a6146103f8578063713f5e4d14610421578063715018a61461042b576101c2565b806338af79c41461032a5780633ceb4035146103415780634bc547731461037e576101c2565b80631351d0cd116101a05780631351d0cd1461026b57806321df0da7146102a85780632768a49f146102d3578063372500ab14610313576101c2565b8063019e485e146101c75780630839511a146101f05780630b9f8a1f1461022d575b600080fd5b3480156101d357600080fd5b506101ee60048036038101906101e991906126a2565b610730565b005b3480156101fc57600080fd5b506102176004803603810190610212919061259b565b610d22565b6040516102249190612bbe565b60405180910390f35b34801561023957600080fd5b50610254600480360381019061024f91906126a2565b610d3a565b604051610262929190612bd9565b60405180910390f35b34801561027757600080fd5b50610292600480360381019061028d919061259b565b610d73565b60405161029f9190612bbe565b60405180910390f35b3480156102b457600080fd5b506102bd610d8b565b6040516102ca9190612ae8565b60405180910390f35b3480156102df57600080fd5b506102fa60048036038101906102f59190612635565b610db5565b60405161030a9493929190612c02565b60405180910390f35b34801561031f57600080fd5b50610328610e2b565b005b34801561033657600080fd5b5061033f610f07565b005b34801561034d57600080fd5b506103686004803603810190610363919061259b565b611429565b6040516103759190612bbe565b60405180910390f35b34801561038a57600080fd5b506103a560048036038101906103a091906126a2565b611441565b6040516103b29190612c8c565b60405180910390f35b3480156103c757600080fd5b506103e260048036038101906103dd91906126a2565b611475565b6040516103ef9190612acd565b60405180910390f35b34801561040457600080fd5b5061041f600480360381019061041a919061259b565b611495565b005b6104296114ea565b005b34801561043757600080fd5b506104406114fb565b005b34801561044e57600080fd5b50610469600480360381019061046491906126a2565b6115ca565b6040516104769190612ba3565b60405180910390f35b34801561048b57600080fd5b50610494611685565b6040516104a191906129bc565b60405180910390f35b3480156104b657600080fd5b506104bf6116ae565b6040516104cc9190612acd565b60405180910390f35b3480156104e157600080fd5b506104fc60048036038101906104f791906126a2565b611705565b6040516105099190612bbe565b60405180910390f35b34801561051e57600080fd5b506105396004803603810190610534919061259b565b611759565b6040516105469190612bbe565b60405180910390f35b34801561055b57600080fd5b50610576600480360381019061057191906126a2565b611771565b6040516105839190612c8c565b60405180910390f35b34801561059857600080fd5b506105b360048036038101906105ae919061259b565b6117a5565b6040516105c09190612bbe565b60405180910390f35b3480156105d557600080fd5b506105f060048036038101906105eb919061259b565b6117bd565b6040516105fd9190612bbe565b60405180910390f35b34801561061257600080fd5b5061062d600480360381019061062891906125f5565b6117d5565b005b34801561063b57600080fd5b50610656600480360381019061065191906126a2565b611831565b6040516106639190612c8c565b60405180910390f35b610674611865565b005b34801561068257600080fd5b5061069d600480360381019061069891906126a2565b611b79565b005b3480156106ab57600080fd5b506106b4611bee565b6040516106c191906129bc565b60405180910390f35b3480156106d657600080fd5b506106f160048036038101906106ec919061259b565b611c18565b6040516106fe9190612bbe565b60405180910390f35b34801561071357600080fd5b5061072e6004803603810190610729919061259b565b611c30565b005b80610739610d8b565b73ffffffffffffffffffffffffffffffffffffffff16636352211e826040518263ffffffff1660e01b81526004016107719190612bbe565b60206040518083038186803b15801561078957600080fd5b505afa15801561079d573d6000803e3d6000fd5b505050506040513d601f19601f820116820180604052508101906107c191906125c8565b73ffffffffffffffffffffffffffffffffffffffff163373ffffffffffffffffffffffffffffffffffffffff161461082e576040517f08c379a000000000000000000000000000000000000000000000000000000000815260040161082590612b83565b60405180910390fd5b816000610839610d8b565b73ffffffffffffffffffffffffffffffffffffffff1663db07dbb6836040518263ffffffff1660e01b81526004016108719190612bbe565b60006040518083038186803b15801561088957600080fd5b505afa15801561089d573d6000803e3d6000fd5b505050506040513d6000823e3d601f19601f820116820180604052508101906108c691906126cf565b509650505050505050426108d9836115ca565b60000151111561091e576040517f08c379a000000000000000000000000000000000000000000000000000000000815260040161091590612b43565b60405180910390fd5b60128160ff1681548110610935576109346130a6565b5b90600052602060002090602091828204019190069054906101000a900460ff1660ff16610961836115ca565b6020015161ffff1610156109aa576040517f08c379a00000000000000000000000000000000000000000000000000000000081526004016109a190612b03565b60405180910390fd5b6000601660003373ffffffffffffffffffffffffffffffffffffffff1673ffffffffffffffffffffffffffffffffffffffff16815260200190815260200160002080549050118015610aae575060001515601660003373ffffffffffffffffffffffffffffffffffffffff1673ffffffffffffffffffffffffffffffffffffffff168152602001908152602001600020601460003373ffffffffffffffffffffffffffffffffffffffff1673ffffffffffffffffffffffffffffffffffffffff1681526020019081526020016000205481548110610a8b57610a8a6130a6565b5b906000526020600020906002020160010160049054906101000a900460ff161515145b610aed576040517f08c379a0000000000000000000000000000000000000000000000000000000008152600401610ae490612b63565b60405180910390fd5b6000601660003373ffffffffffffffffffffffffffffffffffffffff1673ffffffffffffffffffffffffffffffffffffffff168152602001908152602001600020601460003373ffffffffffffffffffffffffffffffffffffffff1673ffffffffffffffffffffffffffffffffffffffff1681526020019081526020016000205481548110610b7f57610b7e6130a6565b5b9060005260206000209060020201604051806080016040529081600082015481526020016001820160009054906101000a900461ffff1661ffff1661ffff1681526020016001820160029054906101000a900461ffff1661ffff1661ffff1681526020016001820160049054906101000a900460ff16151515158152505090506000610c0b8683611c4d565b90506001811415610c9c57610c1e610d8b565b73ffffffffffffffffffffffffffffffffffffffff166249f6d5876040518263ffffffff1660e01b8152600401610c559190612bbe565b600060405180830381600087803b158015610c6f57600080fd5b505af1158015610c83573d6000803e3d6000fd5b50505050610c8f611d98565b610c97611e31565b610d0f565b610ca4610d8b565b73ffffffffffffffffffffffffffffffffffffffff1663b4079732876040518263ffffffff1660e01b8152600401610cdc9190612bbe565b600060405180830381600087803b158015610cf657600080fd5b505af1158015610d0a573d6000803e3d6000fd5b505050505b610d1a868284611f83565b505050505050565b60076020528060005260406000206000915090505481565b6017816127108110610d4b57600080fd5b600202016000915090508060000154908060010160009054906101000a900461ffff16905082565b60086020528060005260406000206000915090505481565b6000600b60009054906101000a900473ffffffffffffffffffffffffffffffffffffffff16905090565b60166020528160005260406000208181548110610dd157600080fd5b9060005260206000209060020201600091509150508060000154908060010160009054906101000a900461ffff16908060010160029054906101000a900461ffff16908060010160049054906101000a900460ff16905084565b6000600360003373ffffffffffffffffffffffffffffffffffffffff1673ffffffffffffffffffffffffffffffffffffffff1681526020019081526020016000205411610e7757600080fd5b610ec033600360003373ffffffffffffffffffffffffffffffffffffffff1673ffffffffffffffffffffffffffffffffffffffff1681526020019081526020016000205461217f565b6000600360003373ffffffffffffffffffffffffffffffffffffffff1673ffffffffffffffffffffffffffffffffffffffff16815260200190815260200160002081905550565b6000610f1360646121ca565b90506006600581548110610f2a57610f296130a6565b5b90600052602060002090602091828204019190069054906101000a900460ff1660ff16811061102957610fa66001600760003373ffffffffffffffffffffffffffffffffffffffff1673ffffffffffffffffffffffffffffffffffffffff1681526020019081526020016000205461222a90919063ffffffff16565b600760003373ffffffffffffffffffffffffffffffffffffffff1673ffffffffffffffffffffffffffffffffffffffff168152602001908152602001600020819055507f6fddb25bb38c47b7bfe9cd004ed00e6df440d5d1473cc67ad6bcdad8a99014ee33600560405161101b929190612aa4565b60405180910390a150611427565b600660048154811061103e5761103d6130a6565b5b90600052602060002090602091828204019190069054906101000a900460ff1660ff16811061113d576110ba6001600860003373ffffffffffffffffffffffffffffffffffffffff1673ffffffffffffffffffffffffffffffffffffffff1681526020019081526020016000205461222a90919063ffffffff16565b600860003373ffffffffffffffffffffffffffffffffffffffff1673ffffffffffffffffffffffffffffffffffffffff168152602001908152602001600020819055507f6fddb25bb38c47b7bfe9cd004ed00e6df440d5d1473cc67ad6bcdad8a99014ee33600460405161112f929190612a7b565b60405180910390a150611427565b6006600381548110611152576111516130a6565b5b90600052602060002090602091828204019190069054906101000a900460ff1660ff1681106111c357611183611d98565b7f6fddb25bb38c47b7bfe9cd004ed00e6df440d5d1473cc67ad6bcdad8a99014ee3360036040516111b5929190612a52565b60405180910390a150611427565b60066002815481106111d8576111d76130a6565b5b90600052602060002090602091828204019190069054906101000a900460ff1660ff1681106112d7576112546001600960003373ffffffffffffffffffffffffffffffffffffffff1673ffffffffffffffffffffffffffffffffffffffff1681526020019081526020016000205461222a90919063ffffffff16565b600960003373ffffffffffffffffffffffffffffffffffffffff1673ffffffffffffffffffffffffffffffffffffffff168152602001908152602001600020819055507f6fddb25bb38c47b7bfe9cd004ed00e6df440d5d1473cc67ad6bcdad8a99014ee3360026040516112c9929190612a29565b60405180910390a150611427565b60066001815481106112ec576112eb6130a6565b5b90600052602060002090602091828204019190069054906101000a900460ff1660ff1681106113eb576113686001600a60003373ffffffffffffffffffffffffffffffffffffffff1673ffffffffffffffffffffffffffffffffffffffff1681526020019081526020016000205461222a90919063ffffffff16565b600a60003373ffffffffffffffffffffffffffffffffffffffff1673ffffffffffffffffffffffffffffffffffffffff168152602001908152602001600020819055507f6fddb25bb38c47b7bfe9cd004ed00e6df440d5d1473cc67ad6bcdad8a99014ee3360016040516113dd929190612a00565b60405180910390a150611427565b7f6fddb25bb38c47b7bfe9cd004ed00e6df440d5d1473cc67ad6bcdad8a99014ee33600060405161141d9291906129d7565b60405180910390a1505b565b60156020528060005260406000206000915090505481565b6006818154811061145157600080fd5b9060005260206000209060209182820401919006915054906101000a900460ff1681565b60136020528060005260406000206000915054906101000a900460ff1681565b61149d6116ae565b6114a657600080fd5b80600b60006101000a81548173ffffffffffffffffffffffffffffffffffffffff021916908373ffffffffffffffffffffffffffffffffffffffff16021790555050565b6001543410156114f957600080fd5b565b6115036116ae565b61150c57600080fd5b600073ffffffffffffffffffffffffffffffffffffffff1660008054906101000a900473ffffffffffffffffffffffffffffffffffffffff1673ffffffffffffffffffffffffffffffffffffffff167f8be0079c531659141344cd1fd0a4f28419497f9722a3daafe3b4186f6b6457e060405160405180910390a360008060006101000a81548173ffffffffffffffffffffffffffffffffffffffff021916908373ffffffffffffffffffffffffffffffffffffffff160217905550565b6115d2612465565b600015156013600084815260200190815260200160002060009054906101000a900460ff161515141561162f576040518060400160405280428152602001601060029054906101000a900461ffff1661ffff168152509050611680565b6017826127108110611644576116436130a6565b5b60020201604051806040016040529081600082015481526020016001820160009054906101000a900461ffff1661ffff1661ffff168152505090505b919050565b60008060009054906101000a900473ffffffffffffffffffffffffffffffffffffffff16905090565b60008060009054906101000a900473ffffffffffffffffffffffffffffffffffffffff1673ffffffffffffffffffffffffffffffffffffffff163373ffffffffffffffffffffffffffffffffffffffff1614905090565b6000611710826115ca565b6000015142106117235760009050611754565b600042601784612710811061173b5761173a6130a6565b5b600202016000015461174d9190612dd0565b9050809150505b919050565b600a6020528060005260406000206000915090505481565b6011818154811061178157600080fd5b9060005260206000209060209182820401919006915054906101000a900460ff1681565b60146020528060005260406000206000915090505481565b60036020528060005260406000206000915090505481565b6117dd6116ae565b6117e657600080fd5b8173ffffffffffffffffffffffffffffffffffffffff166108fc829081150290604051600060405180830381858888f1935050505015801561182c573d6000803e3d6000fd5b505050565b6012818154811061184157600080fd5b9060005260206000209060209182820401919006915054906101000a900460ff1681565b600c5434146118a9576040517f08c379a00000000000000000000000000000000000000000000000000000000081526004016118a090612b23565b60405180910390fd5b60005b601060009054906101000a900461ffff1661ffff168161ffff161015611acd576118e2600160045461222a90919063ffffffff16565b60048190555060006118f2610d8b565b73ffffffffffffffffffffffffffffffffffffffff1663beb0f1336004546040518263ffffffff1660e01b815260040161192c9190612bbe565b60206040518083038186803b15801561194457600080fd5b505afa158015611958573d6000803e3d6000fd5b505050506040513d601f19601f8201168201806040525081019061197c9190612675565b9050601660003373ffffffffffffffffffffffffffffffffffffffff1673ffffffffffffffffffffffffffffffffffffffff1681526020019081526020016000206040518060800160405280600f5481526020018361ffff1681526020016119f260018661ffff1661225690919063ffffffff16565b61ffff1681526020016000151581525090806001815401808255809150506001900390600052602060002090600202016000909190919091506000820151816000015560208201518160010160006101000a81548161ffff021916908361ffff16021790555060408201518160010160026101000a81548161ffff021916908361ffff16021790555060608201518160010160046101000a81548160ff0219169083151502179055505050611ab36001600f5461222a90919063ffffffff16565b600f81905550508080611ac590612f8f565b9150506118ac565b50611b34601060009054906101000a900461ffff1661ffff16601560003373ffffffffffffffffffffffffffffffffffffffff1673ffffffffffffffffffffffffffffffffffffffff1681526020019081526020016000205461222a90919063ffffffff16565b601560003373ffffffffffffffffffffffffffffffffffffffff1673ffffffffffffffffffffffffffffffffffffffff16815260200190815260200160002081905550565b6040518060400160405280428152602001601060029054906101000a900461ffff1661ffff168152506017826127108110611bb757611bb66130a6565b5b600202016000820151816000015560208201518160010160006101000a81548161ffff021916908361ffff16021790555090505050565b6000600b60009054906101000a900473ffffffffffffffffffffffffffffffffffffffff16905090565b60096020528060005260406000206000915090505481565b611c386116ae565b611c4157600080fd5b611c4a8161228a565b50565b600080611c5a60646121ca565b905060008080611c68610d8b565b73ffffffffffffffffffffffffffffffffffffffff1663db07dbb6886040518263ffffffff1660e01b8152600401611ca09190612bbe565b60006040518083038186803b158015611cb857600080fd5b505afa158015611ccc573d6000803e3d6000fd5b505050506040513d6000823e3d601f19601f82011682018060405250810190611cf591906126cf565b509650965050505050508161ffff16866020015161ffff161415611d2a57611d28600e548461222a90919063ffffffff16565b505b60008360118360ff1681548110611d4457611d436130a6565b5b90600052602060002090602091828204019190069054906101000a900460ff1660ff16611d719190612d46565b9050848110611d8857600195505050505050611d92565b6000955050505050505b92915050565b611dec600254600360003373ffffffffffffffffffffffffffffffffffffffff1673ffffffffffffffffffffffffffffffffffffffff1681526020019081526020016000205461222a90919063ffffffff16565b600360003373ffffffffffffffffffffffffffffffffffffffff1673ffffffffffffffffffffffffffffffffffffffff16815260200190815260200160002081905550565b6001601660003373ffffffffffffffffffffffffffffffffffffffff1673ffffffffffffffffffffffffffffffffffffffff168152602001908152602001600020601460003373ffffffffffffffffffffffffffffffffffffffff1673ffffffffffffffffffffffffffffffffffffffff1681526020019081526020016000205481548110611ec357611ec26130a6565b5b906000526020600020906002020160010160046101000a81548160ff021916908315150217905550611f3e6001601460003373ffffffffffffffffffffffffffffffffffffffff1673ffffffffffffffffffffffffffffffffffffffff1681526020019081526020016000205461222a90919063ffffffff16565b601460003373ffffffffffffffffffffffffffffffffffffffff1673ffffffffffffffffffffffffffffffffffffffff16815260200190815260200160002081905550565b600015156013600085815260200190815260200160002060009054906101000a900460ff161515141561204f576040518060400160405280428152602001601060029054906101000a900461ffff1661ffff168152506017846127108110611fee57611fed6130a6565b5b600202016000820151816000015560208201518160010160006101000a81548161ffff021916908361ffff16021790555090505060016013600085815260200190815260200160002060006101000a81548160ff0219169083151502179055505b6000612059610d8b565b73ffffffffffffffffffffffffffffffffffffffff1663db07dbb6856040518263ffffffff1660e01b81526004016120919190612bbe565b60006040518083038186803b1580156120a957600080fd5b505afa1580156120bd573d6000803e3d6000fd5b505050506040513d6000823e3d601f19601f820116820180604052508101906120e691906126cf565b50965050505050505061212f8460128360ff168154811061210a576121096130a6565b5b90600052602060002090602091828204019190069054906101000a900460ff16612381565b612138846123ff565b7fd2b6b22444768b00d18e4a1c242dc398d49e330c1bae790cad9dcd86da2e20c384848460000151336040516121719493929190612c47565b60405180910390a150505050565b8173ffffffffffffffffffffffffffffffffffffffff166108fc829081150290604051600060405180830381858888f193505050501580156121c5573d6000803e3d6000fd5b505050565b60006121e2600160045461222a90919063ffffffff16565b6004819055508142336004546040516020016122009392919061297f565b6040516020818303038152906040528051906020012060001c6122239190612fe8565b9050919050565b60008082846122399190612d46565b90508381101561224c5761224b613019565b5b8091505092915050565b60008082846122659190612d0e565b90508361ffff168161ffff1610156122805761227f613019565b5b8091505092915050565b600073ffffffffffffffffffffffffffffffffffffffff168173ffffffffffffffffffffffffffffffffffffffff1614156122c457600080fd5b8073ffffffffffffffffffffffffffffffffffffffff1660008054906101000a900473ffffffffffffffffffffffffffffffffffffffff1673ffffffffffffffffffffffffffffffffffffffff167f8be0079c531659141344cd1fd0a4f28419497f9722a3daafe3b4186f6b6457e060405160405180910390a3806000806101000a81548173ffffffffffffffffffffffffffffffffffffffff021916908373ffffffffffffffffffffffffffffffffffffffff16021790555050565b6123c58160ff16601784612710811061239d5761239c6130a6565b5b6002020160010160009054906101000a900461ffff1661ffff1661243690919063ffffffff16565b60178361271081106123da576123d96130a6565b5b6002020160010160006101000a81548161ffff021916908361ffff1602179055505050565b42600d5461240d9190612d46565b63ffffffff166017826127108110612428576124276130a6565b5b600202016000018190555050565b60008261ffff168261ffff16111561245157612450613019565b5b818361245d9190612d9c565b905092915050565b604051806040016040528060008152602001600061ffff1681525090565b600061249661249184612ccc565b612ca7565b9050828152602081018484840111156124b2576124b1613109565b5b6124bd848285612f2b565b509392505050565b6000813590506124d481613275565b92915050565b6000815190506124e981613275565b92915050565b6000813590506124fe8161328c565b92915050565b600082601f83011261251957612518613104565b5b8151612529848260208601612483565b91505092915050565b600081519050612541816132a3565b92915050565b600081359050612556816132ba565b92915050565b60008151905061256b816132ba565b92915050565b600081519050612580816132d1565b92915050565b600081519050612595816132e8565b92915050565b6000602082840312156125b1576125b0613113565b5b60006125bf848285016124c5565b91505092915050565b6000602082840312156125de576125dd613113565b5b60006125ec848285016124da565b91505092915050565b6000806040838503121561260c5761260b613113565b5b600061261a858286016124ef565b925050602061262b85828601612547565b9150509250929050565b6000806040838503121561264c5761264b613113565b5b600061265a858286016124c5565b925050602061266b85828601612547565b9150509250929050565b60006020828403121561268b5761268a613113565b5b600061269984828501612532565b91505092915050565b6000602082840312156126b8576126b7613113565b5b60006126c684828501612547565b91505092915050565b600080600080600080600080610100898b0312156126f0576126ef613113565b5b60006126fe8b828c0161255c565b985050602061270f8b828c0161255c565b97505060406127208b828c01612571565b96505060606127318b828c01612532565b95505060806127428b828c01612532565b94505060a06127538b828c01612532565b93505060c06127648b828c01612586565b92505060e089015167ffffffffffffffff8111156127855761278461310e565b5b6127918b828c01612504565b9150509295985092959890939650565b6127aa81612e04565b82525050565b6127c16127bc82612e04565b612fba565b82525050565b6127d081612e28565b82525050565b6127df81612e89565b82525050565b6127ee81612e9b565b82525050565b6127fd81612ead565b82525050565b61280c81612ebf565b82525050565b61281b81612ed1565b82525050565b61282a81612ee3565b82525050565b61283981612ef5565b82525050565b600061284c602383612cfd565b915061285782613136565b604082019050919050565b600061286f601a83612cfd565b915061287a82613185565b602082019050919050565b6000612892602883612cfd565b915061289d826131ae565b604082019050919050565b60006128b5603183612cfd565b91506128c0826131fd565b604082019050919050565b60006128d8601283612cfd565b91506128e38261324c565b602082019050919050565b604082016000820151612904600085018261293b565b506020820151612917602085018261291d565b50505050565b61292681612e34565b82525050565b61293581612e34565b82525050565b61294481612e62565b82525050565b61295381612e62565b82525050565b61296a61296582612e62565b612fde565b82525050565b61297981612e7c565b82525050565b600061298b8286612959565b60208201915061299b82856127b0565b6014820191506129ab8284612959565b602082019150819050949350505050565b60006020820190506129d160008301846127a1565b92915050565b60006040820190506129ec60008301856127a1565b6129f960208301846127e5565b9392505050565b6000604082019050612a1560008301856127a1565b612a2260208301846127f4565b9392505050565b6000604082019050612a3e60008301856127a1565b612a4b6020830184612803565b9392505050565b6000604082019050612a6760008301856127a1565b612a746020830184612812565b9392505050565b6000604082019050612a9060008301856127a1565b612a9d6020830184612821565b9392505050565b6000604082019050612ab960008301856127a1565b612ac66020830184612830565b9392505050565b6000602082019050612ae260008301846127c7565b92915050565b6000602082019050612afd60008301846127d6565b92915050565b60006020820190508181036000830152612b1c8161283f565b9050919050565b60006020820190508181036000830152612b3c81612862565b9050919050565b60006020820190508181036000830152612b5c81612885565b9050919050565b60006020820190508181036000830152612b7c816128a8565b9050919050565b60006020820190508181036000830152612b9c816128cb565b9050919050565b6000604082019050612bb860008301846128ee565b92915050565b6000602082019050612bd3600083018461294a565b92915050565b6000604082019050612bee600083018561294a565b612bfb602083018461292c565b9392505050565b6000608082019050612c17600083018761294a565b612c24602083018661292c565b612c31604083018561292c565b612c3e60608301846127c7565b95945050505050565b6000608082019050612c5c600083018761294a565b612c69602083018661294a565b612c76604083018561294a565b612c8360608301846127a1565b95945050505050565b6000602082019050612ca16000830184612970565b92915050565b6000612cb1612cc2565b9050612cbd8282612f5e565b919050565b6000604051905090565b600067ffffffffffffffff821115612ce757612ce66130d5565b5b612cf082613118565b9050602081019050919050565b600082825260208201905092915050565b6000612d1982612e34565b9150612d2483612e34565b92508261ffff03821115612d3b57612d3a613048565b5b828201905092915050565b6000612d5182612e62565b9150612d5c83612e62565b9250827fffffffffffffffffffffffffffffffffffffffffffffffffffffffffffffffff03821115612d9157612d90613048565b5b828201905092915050565b6000612da782612e34565b9150612db283612e34565b925082821015612dc557612dc4613048565b5b828203905092915050565b6000612ddb82612e62565b9150612de683612e62565b925082821015612df957612df8613048565b5b828203905092915050565b6000612e0f82612e42565b9050919050565b6000612e2182612e42565b9050919050565b60008115159050919050565b600061ffff82169050919050565b600073ffffffffffffffffffffffffffffffffffffffff82169050919050565b6000819050919050565b600063ffffffff82169050919050565b600060ff82169050919050565b6000612e9482612f07565b9050919050565b6000612ea682612e62565b9050919050565b6000612eb882612e62565b9050919050565b6000612eca82612e62565b9050919050565b6000612edc82612e62565b9050919050565b6000612eee82612e62565b9050919050565b6000612f0082612e62565b9050919050565b6000612f1282612f19565b9050919050565b6000612f2482612e42565b9050919050565b60005b83811015612f49578082015181840152602081019050612f2e565b83811115612f58576000848401525b50505050565b612f6782613118565b810181811067ffffffffffffffff82111715612f8657612f856130d5565b5b80604052505050565b6000612f9a82612e34565b915061ffff821415612faf57612fae613048565b5b600182019050919050565b6000612fc582612fcc565b9050919050565b6000612fd782613129565b9050919050565b6000819050919050565b6000612ff382612e62565b9150612ffe83612e62565b92508261300e5761300d613077565b5b828206905092915050565b7f4e487b7100000000000000000000000000000000000000000000000000000000600052600160045260246000fd5b7f4e487b7100000000000000000000000000000000000000000000000000000000600052601160045260246000fd5b7f4e487b7100000000000000000000000000000000000000000000000000000000600052601260045260246000fd5b7f4e487b7100000000000000000000000000000000000000000000000000000000600052603260045260246000fd5b7f4e487b7100000000000000000000000000000000000000000000000000000000600052604160045260246000fd5b600080fd5b600080fd5b600080fd5b600080fd5b6000601f19601f8301169050919050565b60008160601b9050919050565b7f5468697320676f6c6620636c7562206e6565647320746f20626520726570616960008201527f7265640000000000000000000000000000000000000000000000000000000000602082015250565b7f56616c75652073656e74206973206e6f7420636f72726563742e000000000000600082015250565b7f5468697320676f6c6620636c7562206973206e6f7420726561647920746f207060008201527f6c6179207965742e000000000000000000000000000000000000000000000000602082015250565b7f596f75206e65656420746f2066696e642061206e65772067616d65206669727360008201527f74206265666f726520706c6179696e672e000000000000000000000000000000602082015250565b7f4e6f7420746865204e4654206f776e65722e0000000000000000000000000000600082015250565b61327e81612e04565b811461328957600080fd5b50565b61329581612e16565b81146132a057600080fd5b50565b6132ac81612e34565b81146132b757600080fd5b50565b6132c381612e62565b81146132ce57600080fd5b50565b6132da81612e6c565b81146132e557600080fd5b50565b6132f181612e7c565b81146132fc57600080fd5b5056fea2646970667358221220ff2f4a9950dc2dd38e8151c29799a9865cdd3b2a14c5312162c021e4a8f861de64736f6c63430008070033",
			"opcodes": "PUSH1 0x80 PUSH1 0x40 MSTORE PUSH8 0xDE0B6B3A7640000 PUSH1 0x1 SSTORE PUSH7 0x354A6BA7A18000 PUSH1 0x2 SSTORE PUSH1 0x0 PUSH1 0x4 SSTORE PUSH8 0x214E8348C4F0000 PUSH1 0x5 SSTORE PUSH1 0x40 MLOAD DUP1 PUSH1 0xC0 ADD PUSH1 0x40 MSTORE DUP1 PUSH1 0x0 PUSH1 0xFF AND DUP2 MSTORE PUSH1 0x20 ADD PUSH1 0x10 PUSH1 0xFF AND DUP2 MSTORE PUSH1 0x20 ADD PUSH1 0x20 PUSH1 0xFF AND DUP2 MSTORE PUSH1 0x20 ADD PUSH1 0x30 PUSH1 0xFF AND DUP2 MSTORE PUSH1 0x20 ADD PUSH1 0x40 PUSH1 0xFF AND DUP2 MSTORE PUSH1 0x20 ADD PUSH1 0x50 PUSH1 0xFF AND DUP2 MSTORE POP PUSH1 0x6 SWAP1 PUSH1 0x6 PUSH3 0x83 SWAP3 SWAP2 SWAP1 PUSH3 0x248 JUMP JUMPDEST POP PUSH7 0x354A6BA7A18000 PUSH1 0xC SSTORE PUSH3 0x15180 PUSH1 0xD SSTORE PUSH1 0x1 PUSH1 0xE SSTORE PUSH1 0x0 PUSH1 0xF SSTORE PUSH1 0x12 PUSH1 0x10 PUSH1 0x0 PUSH2 0x100 EXP DUP2 SLOAD DUP2 PUSH2 0xFFFF MUL NOT AND SWAP1 DUP4 PUSH2 0xFFFF AND MUL OR SWAP1 SSTORE POP PUSH2 0x3E8 PUSH1 0x10 PUSH1 0x2 PUSH2 0x100 EXP DUP2 SLOAD DUP2 PUSH2 0xFFFF MUL NOT AND SWAP1 DUP4 PUSH2 0xFFFF AND MUL OR SWAP1 SSTORE POP PUSH1 0x40 MLOAD DUP1 PUSH1 0xA0 ADD PUSH1 0x40 MSTORE DUP1 PUSH1 0x2D PUSH1 0xFF AND DUP2 MSTORE PUSH1 0x20 ADD PUSH1 0x32 PUSH1 0xFF AND DUP2 MSTORE PUSH1 0x20 ADD PUSH1 0x39 PUSH1 0xFF AND DUP2 MSTORE PUSH1 0x20 ADD PUSH1 0x44 PUSH1 0xFF AND DUP2 MSTORE PUSH1 0x20 ADD PUSH1 0x50 PUSH1 0xFF AND DUP2 MSTORE POP PUSH1 0x11 SWAP1 PUSH1 0x5 PUSH3 0x12A SWAP3 SWAP2 SWAP1 PUSH3 0x2F6 JUMP JUMPDEST POP PUSH1 0x40 MLOAD DUP1 PUSH1 0xA0 ADD PUSH1 0x40 MSTORE DUP1 PUSH1 0x5 PUSH1 0xFF AND DUP2 MSTORE PUSH1 0x20 ADD PUSH1 0x4 PUSH1 0xFF AND DUP2 MSTORE PUSH1 0x20 ADD PUSH1 0x3 PUSH1 0xFF AND DUP2 MSTORE PUSH1 0x20 ADD PUSH1 0x2 PUSH1 0xFF AND DUP2 MSTORE PUSH1 0x20 ADD PUSH1 0x1 PUSH1 0xFF AND DUP2 MSTORE POP PUSH1 0x12 SWAP1 PUSH1 0x5 PUSH3 0x178 SWAP3 SWAP2 SWAP1 PUSH3 0x2F6 JUMP JUMPDEST POP CALLVALUE DUP1 ISZERO PUSH3 0x186 JUMPI PUSH1 0x0 DUP1 REVERT JUMPDEST POP CALLER PUSH1 0x0 DUP1 PUSH2 0x100 EXP DUP2 SLOAD DUP2 PUSH20 0xFFFFFFFFFFFFFFFFFFFFFFFFFFFFFFFFFFFFFFFF MUL NOT AND SWAP1 DUP4 PUSH20 0xFFFFFFFFFFFFFFFFFFFFFFFFFFFFFFFFFFFFFFFF AND MUL OR SWAP1 SSTORE POP PUSH1 0x0 DUP1 SLOAD SWAP1 PUSH2 0x100 EXP SWAP1 DIV PUSH20 0xFFFFFFFFFFFFFFFFFFFFFFFFFFFFFFFFFFFFFFFF AND PUSH20 0xFFFFFFFFFFFFFFFFFFFFFFFFFFFFFFFFFFFFFFFF AND PUSH1 0x0 PUSH20 0xFFFFFFFFFFFFFFFFFFFFFFFFFFFFFFFFFFFFFFFF AND PUSH32 0x8BE0079C531659141344CD1FD0A4F28419497F9722A3DAAFE3B4186F6B6457E0 PUSH1 0x40 MLOAD PUSH1 0x40 MLOAD DUP1 SWAP2 SUB SWAP1 LOG3 PUSH3 0x3C3 JUMP JUMPDEST DUP3 DUP1 SLOAD DUP3 DUP3 SSTORE SWAP1 PUSH1 0x0 MSTORE PUSH1 0x20 PUSH1 0x0 KECCAK256 SWAP1 PUSH1 0x1F ADD PUSH1 0x20 SWAP1 DIV DUP2 ADD SWAP3 DUP3 ISZERO PUSH3 0x2E3 JUMPI SWAP2 PUSH1 0x20 MUL DUP3 ADD PUSH1 0x0 JUMPDEST DUP4 DUP3 GT ISZERO PUSH3 0x2B2 JUMPI DUP4 MLOAD DUP4 DUP3 PUSH2 0x100 EXP DUP2 SLOAD DUP2 PUSH1 0xFF MUL NOT AND SWAP1 DUP4 PUSH1 0xFF AND MUL OR SWAP1 SSTORE POP SWAP3 PUSH1 0x20 ADD SWAP3 PUSH1 0x1 ADD PUSH1 0x20 DUP2 PUSH1 0x0 ADD DIV SWAP3 DUP4 ADD SWAP3 PUSH1 0x1 SUB MUL PUSH3 0x272 JUMP JUMPDEST DUP1 ISZERO PUSH3 0x2E1 JUMPI DUP3 DUP2 PUSH2 0x100 EXP DUP2 SLOAD SWAP1 PUSH1 0xFF MUL NOT AND SWAP1 SSTORE PUSH1 0x1 ADD PUSH1 0x20 DUP2 PUSH1 0x0 ADD DIV SWAP3 DUP4 ADD SWAP3 PUSH1 0x1 SUB MUL PUSH3 0x2B2 JUMP JUMPDEST POP JUMPDEST POP SWAP1 POP PUSH3 0x2F2 SWAP2 SWAP1 PUSH3 0x3A4 JUMP JUMPDEST POP SWAP1 JUMP JUMPDEST DUP3 DUP1 SLOAD DUP3 DUP3 SSTORE SWAP1 PUSH1 0x0 MSTORE PUSH1 0x20 PUSH1 0x0 KECCAK256 SWAP1 PUSH1 0x1F ADD PUSH1 0x20 SWAP1 DIV DUP2 ADD SWAP3 DUP3 ISZERO PUSH3 0x391 JUMPI SWAP2 PUSH1 0x20 MUL DUP3 ADD PUSH1 0x0 JUMPDEST DUP4 DUP3 GT ISZERO PUSH3 0x360 JUMPI DUP4 MLOAD DUP4 DUP3 PUSH2 0x100 EXP DUP2 SLOAD DUP2 PUSH1 0xFF MUL NOT AND SWAP1 DUP4 PUSH1 0xFF AND MUL OR SWAP1 SSTORE POP SWAP3 PUSH1 0x20 ADD SWAP3 PUSH1 0x1 ADD PUSH1 0x20 DUP2 PUSH1 0x0 ADD DIV SWAP3 DUP4 ADD SWAP3 PUSH1 0x1 SUB MUL PUSH3 0x320 JUMP JUMPDEST DUP1 ISZERO PUSH3 0x38F JUMPI DUP3 DUP2 PUSH2 0x100 EXP DUP2 SLOAD SWAP1 PUSH1 0xFF MUL NOT AND SWAP1 SSTORE PUSH1 0x1 ADD PUSH1 0x20 DUP2 PUSH1 0x0 ADD DIV SWAP3 DUP4 ADD SWAP3 PUSH1 0x1 SUB MUL PUSH3 0x360 JUMP JUMPDEST POP JUMPDEST POP SWAP1 POP PUSH3 0x3A0 SWAP2 SWAP1 PUSH3 0x3A4 JUMP JUMPDEST POP SWAP1 JUMP JUMPDEST JUMPDEST DUP1 DUP3 GT ISZERO PUSH3 0x3BF JUMPI PUSH1 0x0 DUP2 PUSH1 0x0 SWAP1 SSTORE POP PUSH1 0x1 ADD PUSH3 0x3A5 JUMP JUMPDEST POP SWAP1 JUMP JUMPDEST PUSH2 0x3335 DUP1 PUSH3 0x3D3 PUSH1 0x0 CODECOPY PUSH1 0x0 RETURN INVALID PUSH1 0x80 PUSH1 0x40 MSTORE PUSH1 0x4 CALLDATASIZE LT PUSH2 0x1C2 JUMPI PUSH1 0x0 CALLDATALOAD PUSH1 0xE0 SHR DUP1 PUSH4 0x7B303965 GT PUSH2 0xF7 JUMPI DUP1 PUSH4 0xB633E4CD GT PUSH2 0x95 JUMPI DUP1 PUSH4 0xD9DC0BAA GT PUSH2 0x64 JUMPI DUP1 PUSH4 0xD9DC0BAA EQ PUSH2 0x676 JUMPI DUP1 PUSH4 0xDCC75CA5 EQ PUSH2 0x69F JUMPI DUP1 PUSH4 0xED7653E7 EQ PUSH2 0x6CA JUMPI DUP1 PUSH4 0xF2FDE38B EQ PUSH2 0x707 JUMPI PUSH2 0x1C2 JUMP JUMPDEST DUP1 PUSH4 0xB633E4CD EQ PUSH2 0x5C9 JUMPI DUP1 PUSH4 0xBECCCFBC EQ PUSH2 0x606 JUMPI DUP1 PUSH4 0xC61E5EC2 EQ PUSH2 0x62F JUMPI DUP1 PUSH4 0xD544577D EQ PUSH2 0x66C JUMPI PUSH2 0x1C2 JUMP JUMPDEST DUP1 PUSH4 0x9FBF8EC3 GT PUSH2 0xD1 JUMPI DUP1 PUSH4 0x9FBF8EC3 EQ PUSH2 0x4D5 JUMPI DUP1 PUSH4 0xA147D432 EQ PUSH2 0x512 JUMPI DUP1 PUSH4 0xA2B5351B EQ PUSH2 0x54F JUMPI DUP1 PUSH4 0xA7ED8A52 EQ PUSH2 0x58C JUMPI PUSH2 0x1C2 JUMP JUMPDEST DUP1 PUSH4 0x7B303965 EQ PUSH2 0x442 JUMPI DUP1 PUSH4 0x8DA5CB5B EQ PUSH2 0x47F JUMPI DUP1 PUSH4 0x8F32D59B EQ PUSH2 0x4AA JUMPI PUSH2 0x1C2 JUMP JUMPDEST DUP1 PUSH4 0x38AF79C4 GT PUSH2 0x164 JUMPI DUP1 PUSH4 0x59346523 GT PUSH2 0x13E JUMPI DUP1 PUSH4 0x59346523 EQ PUSH2 0x3BB JUMPI DUP1 PUSH4 0x611F64A6 EQ PUSH2 0x3F8 JUMPI DUP1 PUSH4 0x713F5E4D EQ PUSH2 0x421 JUMPI DUP1 PUSH4 0x715018A6 EQ PUSH2 0x42B JUMPI PUSH2 0x1C2 JUMP JUMPDEST DUP1 PUSH4 0x38AF79C4 EQ PUSH2 0x32A JUMPI DUP1 PUSH4 0x3CEB4035 EQ PUSH2 0x341 JUMPI DUP1 PUSH4 0x4BC54773 EQ PUSH2 0x37E JUMPI PUSH2 0x1C2 JUMP JUMPDEST DUP1 PUSH4 0x1351D0CD GT PUSH2 0x1A0 JUMPI DUP1 PUSH4 0x1351D0CD EQ PUSH2 0x26B JUMPI DUP1 PUSH4 0x21DF0DA7 EQ PUSH2 0x2A8 JUMPI DUP1 PUSH4 0x2768A49F EQ PUSH2 0x2D3 JUMPI DUP1 PUSH4 0x372500AB EQ PUSH2 0x313 JUMPI PUSH2 0x1C2 JUMP JUMPDEST DUP1 PUSH4 0x19E485E EQ PUSH2 0x1C7 JUMPI DUP1 PUSH4 0x839511A EQ PUSH2 0x1F0 JUMPI DUP1 PUSH4 0xB9F8A1F EQ PUSH2 0x22D JUMPI JUMPDEST PUSH1 0x0 DUP1 REVERT JUMPDEST CALLVALUE DUP1 ISZERO PUSH2 0x1D3 JUMPI PUSH1 0x0 DUP1 REVERT JUMPDEST POP PUSH2 0x1EE PUSH1 0x4 DUP1 CALLDATASIZE SUB DUP2 ADD SWAP1 PUSH2 0x1E9 SWAP2 SWAP1 PUSH2 0x26A2 JUMP JUMPDEST PUSH2 0x730 JUMP JUMPDEST STOP JUMPDEST CALLVALUE DUP1 ISZERO PUSH2 0x1FC JUMPI PUSH1 0x0 DUP1 REVERT JUMPDEST POP PUSH2 0x217 PUSH1 0x4 DUP1 CALLDATASIZE SUB DUP2 ADD SWAP1 PUSH2 0x212 SWAP2 SWAP1 PUSH2 0x259B JUMP JUMPDEST PUSH2 0xD22 JUMP JUMPDEST PUSH1 0x40 MLOAD PUSH2 0x224 SWAP2 SWAP1 PUSH2 0x2BBE JUMP JUMPDEST PUSH1 0x40 MLOAD DUP1 SWAP2 SUB SWAP1 RETURN JUMPDEST CALLVALUE DUP1 ISZERO PUSH2 0x239 JUMPI PUSH1 0x0 DUP1 REVERT JUMPDEST POP PUSH2 0x254 PUSH1 0x4 DUP1 CALLDATASIZE SUB DUP2 ADD SWAP1 PUSH2 0x24F SWAP2 SWAP1 PUSH2 0x26A2 JUMP JUMPDEST PUSH2 0xD3A JUMP JUMPDEST PUSH1 0x40 MLOAD PUSH2 0x262 SWAP3 SWAP2 SWAP1 PUSH2 0x2BD9 JUMP JUMPDEST PUSH1 0x40 MLOAD DUP1 SWAP2 SUB SWAP1 RETURN JUMPDEST CALLVALUE DUP1 ISZERO PUSH2 0x277 JUMPI PUSH1 0x0 DUP1 REVERT JUMPDEST POP PUSH2 0x292 PUSH1 0x4 DUP1 CALLDATASIZE SUB DUP2 ADD SWAP1 PUSH2 0x28D SWAP2 SWAP1 PUSH2 0x259B JUMP JUMPDEST PUSH2 0xD73 JUMP JUMPDEST PUSH1 0x40 MLOAD PUSH2 0x29F SWAP2 SWAP1 PUSH2 0x2BBE JUMP JUMPDEST PUSH1 0x40 MLOAD DUP1 SWAP2 SUB SWAP1 RETURN JUMPDEST CALLVALUE DUP1 ISZERO PUSH2 0x2B4 JUMPI PUSH1 0x0 DUP1 REVERT JUMPDEST POP PUSH2 0x2BD PUSH2 0xD8B JUMP JUMPDEST PUSH1 0x40 MLOAD PUSH2 0x2CA SWAP2 SWAP1 PUSH2 0x2AE8 JUMP JUMPDEST PUSH1 0x40 MLOAD DUP1 SWAP2 SUB SWAP1 RETURN JUMPDEST CALLVALUE DUP1 ISZERO PUSH2 0x2DF JUMPI PUSH1 0x0 DUP1 REVERT JUMPDEST POP PUSH2 0x2FA PUSH1 0x4 DUP1 CALLDATASIZE SUB DUP2 ADD SWAP1 PUSH2 0x2F5 SWAP2 SWAP1 PUSH2 0x2635 JUMP JUMPDEST PUSH2 0xDB5 JUMP JUMPDEST PUSH1 0x40 MLOAD PUSH2 0x30A SWAP5 SWAP4 SWAP3 SWAP2 SWAP1 PUSH2 0x2C02 JUMP JUMPDEST PUSH1 0x40 MLOAD DUP1 SWAP2 SUB SWAP1 RETURN JUMPDEST CALLVALUE DUP1 ISZERO PUSH2 0x31F JUMPI PUSH1 0x0 DUP1 REVERT JUMPDEST POP PUSH2 0x328 PUSH2 0xE2B JUMP JUMPDEST STOP JUMPDEST CALLVALUE DUP1 ISZERO PUSH2 0x336 JUMPI PUSH1 0x0 DUP1 REVERT JUMPDEST POP PUSH2 0x33F PUSH2 0xF07 JUMP JUMPDEST STOP JUMPDEST CALLVALUE DUP1 ISZERO PUSH2 0x34D JUMPI PUSH1 0x0 DUP1 REVERT JUMPDEST POP PUSH2 0x368 PUSH1 0x4 DUP1 CALLDATASIZE SUB DUP2 ADD SWAP1 PUSH2 0x363 SWAP2 SWAP1 PUSH2 0x259B JUMP JUMPDEST PUSH2 0x1429 JUMP JUMPDEST PUSH1 0x40 MLOAD PUSH2 0x375 SWAP2 SWAP1 PUSH2 0x2BBE JUMP JUMPDEST PUSH1 0x40 MLOAD DUP1 SWAP2 SUB SWAP1 RETURN JUMPDEST CALLVALUE DUP1 ISZERO PUSH2 0x38A JUMPI PUSH1 0x0 DUP1 REVERT JUMPDEST POP PUSH2 0x3A5 PUSH1 0x4 DUP1 CALLDATASIZE SUB DUP2 ADD SWAP1 PUSH2 0x3A0 SWAP2 SWAP1 PUSH2 0x26A2 JUMP JUMPDEST PUSH2 0x1441 JUMP JUMPDEST PUSH1 0x40 MLOAD PUSH2 0x3B2 SWAP2 SWAP1 PUSH2 0x2C8C JUMP JUMPDEST PUSH1 0x40 MLOAD DUP1 SWAP2 SUB SWAP1 RETURN JUMPDEST CALLVALUE DUP1 ISZERO PUSH2 0x3C7 JUMPI PUSH1 0x0 DUP1 REVERT JUMPDEST POP PUSH2 0x3E2 PUSH1 0x4 DUP1 CALLDATASIZE SUB DUP2 ADD SWAP1 PUSH2 0x3DD SWAP2 SWAP1 PUSH2 0x26A2 JUMP JUMPDEST PUSH2 0x1475 JUMP JUMPDEST PUSH1 0x40 MLOAD PUSH2 0x3EF SWAP2 SWAP1 PUSH2 0x2ACD JUMP JUMPDEST PUSH1 0x40 MLOAD DUP1 SWAP2 SUB SWAP1 RETURN JUMPDEST CALLVALUE DUP1 ISZERO PUSH2 0x404 JUMPI PUSH1 0x0 DUP1 REVERT JUMPDEST POP PUSH2 0x41F PUSH1 0x4 DUP1 CALLDATASIZE SUB DUP2 ADD SWAP1 PUSH2 0x41A SWAP2 SWAP1 PUSH2 0x259B JUMP JUMPDEST PUSH2 0x1495 JUMP JUMPDEST STOP JUMPDEST PUSH2 0x429 PUSH2 0x14EA JUMP JUMPDEST STOP JUMPDEST CALLVALUE DUP1 ISZERO PUSH2 0x437 JUMPI PUSH1 0x0 DUP1 REVERT JUMPDEST POP PUSH2 0x440 PUSH2 0x14FB JUMP JUMPDEST STOP JUMPDEST CALLVALUE DUP1 ISZERO PUSH2 0x44E JUMPI PUSH1 0x0 DUP1 REVERT JUMPDEST POP PUSH2 0x469 PUSH1 0x4 DUP1 CALLDATASIZE SUB DUP2 ADD SWAP1 PUSH2 0x464 SWAP2 SWAP1 PUSH2 0x26A2 JUMP JUMPDEST PUSH2 0x15CA JUMP JUMPDEST PUSH1 0x40 MLOAD PUSH2 0x476 SWAP2 SWAP1 PUSH2 0x2BA3 JUMP JUMPDEST PUSH1 0x40 MLOAD DUP1 SWAP2 SUB SWAP1 RETURN JUMPDEST CALLVALUE DUP1 ISZERO PUSH2 0x48B JUMPI PUSH1 0x0 DUP1 REVERT JUMPDEST POP PUSH2 0x494 PUSH2 0x1685 JUMP JUMPDEST PUSH1 0x40 MLOAD PUSH2 0x4A1 SWAP2 SWAP1 PUSH2 0x29BC JUMP JUMPDEST PUSH1 0x40 MLOAD DUP1 SWAP2 SUB SWAP1 RETURN JUMPDEST CALLVALUE DUP1 ISZERO PUSH2 0x4B6 JUMPI PUSH1 0x0 DUP1 REVERT JUMPDEST POP PUSH2 0x4BF PUSH2 0x16AE JUMP JUMPDEST PUSH1 0x40 MLOAD PUSH2 0x4CC SWAP2 SWAP1 PUSH2 0x2ACD JUMP JUMPDEST PUSH1 0x40 MLOAD DUP1 SWAP2 SUB SWAP1 RETURN JUMPDEST CALLVALUE DUP1 ISZERO PUSH2 0x4E1 JUMPI PUSH1 0x0 DUP1 REVERT JUMPDEST POP PUSH2 0x4FC PUSH1 0x4 DUP1 CALLDATASIZE SUB DUP2 ADD SWAP1 PUSH2 0x4F7 SWAP2 SWAP1 PUSH2 0x26A2 JUMP JUMPDEST PUSH2 0x1705 JUMP JUMPDEST PUSH1 0x40 MLOAD PUSH2 0x509 SWAP2 SWAP1 PUSH2 0x2BBE JUMP JUMPDEST PUSH1 0x40 MLOAD DUP1 SWAP2 SUB SWAP1 RETURN JUMPDEST CALLVALUE DUP1 ISZERO PUSH2 0x51E JUMPI PUSH1 0x0 DUP1 REVERT JUMPDEST POP PUSH2 0x539 PUSH1 0x4 DUP1 CALLDATASIZE SUB DUP2 ADD SWAP1 PUSH2 0x534 SWAP2 SWAP1 PUSH2 0x259B JUMP JUMPDEST PUSH2 0x1759 JUMP JUMPDEST PUSH1 0x40 MLOAD PUSH2 0x546 SWAP2 SWAP1 PUSH2 0x2BBE JUMP JUMPDEST PUSH1 0x40 MLOAD DUP1 SWAP2 SUB SWAP1 RETURN JUMPDEST CALLVALUE DUP1 ISZERO PUSH2 0x55B JUMPI PUSH1 0x0 DUP1 REVERT JUMPDEST POP PUSH2 0x576 PUSH1 0x4 DUP1 CALLDATASIZE SUB DUP2 ADD SWAP1 PUSH2 0x571 SWAP2 SWAP1 PUSH2 0x26A2 JUMP JUMPDEST PUSH2 0x1771 JUMP JUMPDEST PUSH1 0x40 MLOAD PUSH2 0x583 SWAP2 SWAP1 PUSH2 0x2C8C JUMP JUMPDEST PUSH1 0x40 MLOAD DUP1 SWAP2 SUB SWAP1 RETURN JUMPDEST CALLVALUE DUP1 ISZERO PUSH2 0x598 JUMPI PUSH1 0x0 DUP1 REVERT JUMPDEST POP PUSH2 0x5B3 PUSH1 0x4 DUP1 CALLDATASIZE SUB DUP2 ADD SWAP1 PUSH2 0x5AE SWAP2 SWAP1 PUSH2 0x259B JUMP JUMPDEST PUSH2 0x17A5 JUMP JUMPDEST PUSH1 0x40 MLOAD PUSH2 0x5C0 SWAP2 SWAP1 PUSH2 0x2BBE JUMP JUMPDEST PUSH1 0x40 MLOAD DUP1 SWAP2 SUB SWAP1 RETURN JUMPDEST CALLVALUE DUP1 ISZERO PUSH2 0x5D5 JUMPI PUSH1 0x0 DUP1 REVERT JUMPDEST POP PUSH2 0x5F0 PUSH1 0x4 DUP1 CALLDATASIZE SUB DUP2 ADD SWAP1 PUSH2 0x5EB SWAP2 SWAP1 PUSH2 0x259B JUMP JUMPDEST PUSH2 0x17BD JUMP JUMPDEST PUSH1 0x40 MLOAD PUSH2 0x5FD SWAP2 SWAP1 PUSH2 0x2BBE JUMP JUMPDEST PUSH1 0x40 MLOAD DUP1 SWAP2 SUB SWAP1 RETURN JUMPDEST CALLVALUE DUP1 ISZERO PUSH2 0x612 JUMPI PUSH1 0x0 DUP1 REVERT JUMPDEST POP PUSH2 0x62D PUSH1 0x4 DUP1 CALLDATASIZE SUB DUP2 ADD SWAP1 PUSH2 0x628 SWAP2 SWAP1 PUSH2 0x25F5 JUMP JUMPDEST PUSH2 0x17D5 JUMP JUMPDEST STOP JUMPDEST CALLVALUE DUP1 ISZERO PUSH2 0x63B JUMPI PUSH1 0x0 DUP1 REVERT JUMPDEST POP PUSH2 0x656 PUSH1 0x4 DUP1 CALLDATASIZE SUB DUP2 ADD SWAP1 PUSH2 0x651 SWAP2 SWAP1 PUSH2 0x26A2 JUMP JUMPDEST PUSH2 0x1831 JUMP JUMPDEST PUSH1 0x40 MLOAD PUSH2 0x663 SWAP2 SWAP1 PUSH2 0x2C8C JUMP JUMPDEST PUSH1 0x40 MLOAD DUP1 SWAP2 SUB SWAP1 RETURN JUMPDEST PUSH2 0x674 PUSH2 0x1865 JUMP JUMPDEST STOP JUMPDEST CALLVALUE DUP1 ISZERO PUSH2 0x682 JUMPI PUSH1 0x0 DUP1 REVERT JUMPDEST POP PUSH2 0x69D PUSH1 0x4 DUP1 CALLDATASIZE SUB DUP2 ADD SWAP1 PUSH2 0x698 SWAP2 SWAP1 PUSH2 0x26A2 JUMP JUMPDEST PUSH2 0x1B79 JUMP JUMPDEST STOP JUMPDEST CALLVALUE DUP1 ISZERO PUSH2 0x6AB JUMPI PUSH1 0x0 DUP1 REVERT JUMPDEST POP PUSH2 0x6B4 PUSH2 0x1BEE JUMP JUMPDEST PUSH1 0x40 MLOAD PUSH2 0x6C1 SWAP2 SWAP1 PUSH2 0x29BC JUMP JUMPDEST PUSH1 0x40 MLOAD DUP1 SWAP2 SUB SWAP1 RETURN JUMPDEST CALLVALUE DUP1 ISZERO PUSH2 0x6D6 JUMPI PUSH1 0x0 DUP1 REVERT JUMPDEST POP PUSH2 0x6F1 PUSH1 0x4 DUP1 CALLDATASIZE SUB DUP2 ADD SWAP1 PUSH2 0x6EC SWAP2 SWAP1 PUSH2 0x259B JUMP JUMPDEST PUSH2 0x1C18 JUMP JUMPDEST PUSH1 0x40 MLOAD PUSH2 0x6FE SWAP2 SWAP1 PUSH2 0x2BBE JUMP JUMPDEST PUSH1 0x40 MLOAD DUP1 SWAP2 SUB SWAP1 RETURN JUMPDEST CALLVALUE DUP1 ISZERO PUSH2 0x713 JUMPI PUSH1 0x0 DUP1 REVERT JUMPDEST POP PUSH2 0x72E PUSH1 0x4 DUP1 CALLDATASIZE SUB DUP2 ADD SWAP1 PUSH2 0x729 SWAP2 SWAP1 PUSH2 0x259B JUMP JUMPDEST PUSH2 0x1C30 JUMP JUMPDEST STOP JUMPDEST DUP1 PUSH2 0x739 PUSH2 0xD8B JUMP JUMPDEST PUSH20 0xFFFFFFFFFFFFFFFFFFFFFFFFFFFFFFFFFFFFFFFF AND PUSH4 0x6352211E DUP3 PUSH1 0x40 MLOAD DUP3 PUSH4 0xFFFFFFFF AND PUSH1 0xE0 SHL DUP2 MSTORE PUSH1 0x4 ADD PUSH2 0x771 SWAP2 SWAP1 PUSH2 0x2BBE JUMP JUMPDEST PUSH1 0x20 PUSH1 0x40 MLOAD DUP1 DUP4 SUB DUP2 DUP7 DUP1 EXTCODESIZE ISZERO DUP1 ISZERO PUSH2 0x789 JUMPI PUSH1 0x0 DUP1 REVERT JUMPDEST POP GAS STATICCALL ISZERO DUP1 ISZERO PUSH2 0x79D JUMPI RETURNDATASIZE PUSH1 0x0 DUP1 RETURNDATACOPY RETURNDATASIZE PUSH1 0x0 REVERT JUMPDEST POP POP POP POP PUSH1 0x40 MLOAD RETURNDATASIZE PUSH1 0x1F NOT PUSH1 0x1F DUP3 ADD AND DUP3 ADD DUP1 PUSH1 0x40 MSTORE POP DUP2 ADD SWAP1 PUSH2 0x7C1 SWAP2 SWAP1 PUSH2 0x25C8 JUMP JUMPDEST PUSH20 0xFFFFFFFFFFFFFFFFFFFFFFFFFFFFFFFFFFFFFFFF AND CALLER PUSH20 0xFFFFFFFFFFFFFFFFFFFFFFFFFFFFFFFFFFFFFFFF AND EQ PUSH2 0x82E JUMPI PUSH1 0x40 MLOAD PUSH32 0x8C379A000000000000000000000000000000000000000000000000000000000 DUP2 MSTORE PUSH1 0x4 ADD PUSH2 0x825 SWAP1 PUSH2 0x2B83 JUMP JUMPDEST PUSH1 0x40 MLOAD DUP1 SWAP2 SUB SWAP1 REVERT JUMPDEST DUP2 PUSH1 0x0 PUSH2 0x839 PUSH2 0xD8B JUMP JUMPDEST PUSH20 0xFFFFFFFFFFFFFFFFFFFFFFFFFFFFFFFFFFFFFFFF AND PUSH4 0xDB07DBB6 DUP4 PUSH1 0x40 MLOAD DUP3 PUSH4 0xFFFFFFFF AND PUSH1 0xE0 SHL DUP2 MSTORE PUSH1 0x4 ADD PUSH2 0x871 SWAP2 SWAP1 PUSH2 0x2BBE JUMP JUMPDEST PUSH1 0x0 PUSH1 0x40 MLOAD DUP1 DUP4 SUB DUP2 DUP7 DUP1 EXTCODESIZE ISZERO DUP1 ISZERO PUSH2 0x889 JUMPI PUSH1 0x0 DUP1 REVERT JUMPDEST POP GAS STATICCALL ISZERO DUP1 ISZERO PUSH2 0x89D JUMPI RETURNDATASIZE PUSH1 0x0 DUP1 RETURNDATACOPY RETURNDATASIZE PUSH1 0x0 REVERT JUMPDEST POP POP POP POP PUSH1 0x40 MLOAD RETURNDATASIZE PUSH1 0x0 DUP3 RETURNDATACOPY RETURNDATASIZE PUSH1 0x1F NOT PUSH1 0x1F DUP3 ADD AND DUP3 ADD DUP1 PUSH1 0x40 MSTORE POP DUP2 ADD SWAP1 PUSH2 0x8C6 SWAP2 SWAP1 PUSH2 0x26CF JUMP JUMPDEST POP SWAP7 POP POP POP POP POP POP POP TIMESTAMP PUSH2 0x8D9 DUP4 PUSH2 0x15CA JUMP JUMPDEST PUSH1 0x0 ADD MLOAD GT ISZERO PUSH2 0x91E JUMPI PUSH1 0x40 MLOAD PUSH32 0x8C379A000000000000000000000000000000000000000000000000000000000 DUP2 MSTORE PUSH1 0x4 ADD PUSH2 0x915 SWAP1 PUSH2 0x2B43 JUMP JUMPDEST PUSH1 0x40 MLOAD DUP1 SWAP2 SUB SWAP1 REVERT JUMPDEST PUSH1 0x12 DUP2 PUSH1 0xFF AND DUP2 SLOAD DUP2 LT PUSH2 0x935 JUMPI PUSH2 0x934 PUSH2 0x30A6 JUMP JUMPDEST JUMPDEST SWAP1 PUSH1 0x0 MSTORE PUSH1 0x20 PUSH1 0x0 KECCAK256 SWAP1 PUSH1 0x20 SWAP2 DUP3 DUP3 DIV ADD SWAP2 SWAP1 MOD SWAP1 SLOAD SWAP1 PUSH2 0x100 EXP SWAP1 DIV PUSH1 0xFF AND PUSH1 0xFF AND PUSH2 0x961 DUP4 PUSH2 0x15CA JUMP JUMPDEST PUSH1 0x20 ADD MLOAD PUSH2 0xFFFF AND LT ISZERO PUSH2 0x9AA JUMPI PUSH1 0x40 MLOAD PUSH32 0x8C379A000000000000000000000000000000000000000000000000000000000 DUP2 MSTORE PUSH1 0x4 ADD PUSH2 0x9A1 SWAP1 PUSH2 0x2B03 JUMP JUMPDEST PUSH1 0x40 MLOAD DUP1 SWAP2 SUB SWAP1 REVERT JUMPDEST PUSH1 0x0 PUSH1 0x16 PUSH1 0x0 CALLER PUSH20 0xFFFFFFFFFFFFFFFFFFFFFFFFFFFFFFFFFFFFFFFF AND PUSH20 0xFFFFFFFFFFFFFFFFFFFFFFFFFFFFFFFFFFFFFFFF AND DUP2 MSTORE PUSH1 0x20 ADD SWAP1 DUP2 MSTORE PUSH1 0x20 ADD PUSH1 0x0 KECCAK256 DUP1 SLOAD SWAP1 POP GT DUP1 ISZERO PUSH2 0xAAE JUMPI POP PUSH1 0x0 ISZERO ISZERO PUSH1 0x16 PUSH1 0x0 CALLER PUSH20 0xFFFFFFFFFFFFFFFFFFFFFFFFFFFFFFFFFFFFFFFF AND PUSH20 0xFFFFFFFFFFFFFFFFFFFFFFFFFFFFFFFFFFFFFFFF AND DUP2 MSTORE PUSH1 0x20 ADD SWAP1 DUP2 MSTORE PUSH1 0x20 ADD PUSH1 0x0 KECCAK256 PUSH1 0x14 PUSH1 0x0 CALLER PUSH20 0xFFFFFFFFFFFFFFFFFFFFFFFFFFFFFFFFFFFFFFFF AND PUSH20 0xFFFFFFFFFFFFFFFFFFFFFFFFFFFFFFFFFFFFFFFF AND DUP2 MSTORE PUSH1 0x20 ADD SWAP1 DUP2 MSTORE PUSH1 0x20 ADD PUSH1 0x0 KECCAK256 SLOAD DUP2 SLOAD DUP2 LT PUSH2 0xA8B JUMPI PUSH2 0xA8A PUSH2 0x30A6 JUMP JUMPDEST JUMPDEST SWAP1 PUSH1 0x0 MSTORE PUSH1 0x20 PUSH1 0x0 KECCAK256 SWAP1 PUSH1 0x2 MUL ADD PUSH1 0x1 ADD PUSH1 0x4 SWAP1 SLOAD SWAP1 PUSH2 0x100 EXP SWAP1 DIV PUSH1 0xFF AND ISZERO ISZERO EQ JUMPDEST PUSH2 0xAED JUMPI PUSH1 0x40 MLOAD PUSH32 0x8C379A000000000000000000000000000000000000000000000000000000000 DUP2 MSTORE PUSH1 0x4 ADD PUSH2 0xAE4 SWAP1 PUSH2 0x2B63 JUMP JUMPDEST PUSH1 0x40 MLOAD DUP1 SWAP2 SUB SWAP1 REVERT JUMPDEST PUSH1 0x0 PUSH1 0x16 PUSH1 0x0 CALLER PUSH20 0xFFFFFFFFFFFFFFFFFFFFFFFFFFFFFFFFFFFFFFFF AND PUSH20 0xFFFFFFFFFFFFFFFFFFFFFFFFFFFFFFFFFFFFFFFF AND DUP2 MSTORE PUSH1 0x20 ADD SWAP1 DUP2 MSTORE PUSH1 0x20 ADD PUSH1 0x0 KECCAK256 PUSH1 0x14 PUSH1 0x0 CALLER PUSH20 0xFFFFFFFFFFFFFFFFFFFFFFFFFFFFFFFFFFFFFFFF AND PUSH20 0xFFFFFFFFFFFFFFFFFFFFFFFFFFFFFFFFFFFFFFFF AND DUP2 MSTORE PUSH1 0x20 ADD SWAP1 DUP2 MSTORE PUSH1 0x20 ADD PUSH1 0x0 KECCAK256 SLOAD DUP2 SLOAD DUP2 LT PUSH2 0xB7F JUMPI PUSH2 0xB7E PUSH2 0x30A6 JUMP JUMPDEST JUMPDEST SWAP1 PUSH1 0x0 MSTORE PUSH1 0x20 PUSH1 0x0 KECCAK256 SWAP1 PUSH1 0x2 MUL ADD PUSH1 0x40 MLOAD DUP1 PUSH1 0x80 ADD PUSH1 0x40 MSTORE SWAP1 DUP2 PUSH1 0x0 DUP3 ADD SLOAD DUP2 MSTORE PUSH1 0x20 ADD PUSH1 0x1 DUP3 ADD PUSH1 0x0 SWAP1 SLOAD SWAP1 PUSH2 0x100 EXP SWAP1 DIV PUSH2 0xFFFF AND PUSH2 0xFFFF AND PUSH2 0xFFFF AND DUP2 MSTORE PUSH1 0x20 ADD PUSH1 0x1 DUP3 ADD PUSH1 0x2 SWAP1 SLOAD SWAP1 PUSH2 0x100 EXP SWAP1 DIV PUSH2 0xFFFF AND PUSH2 0xFFFF AND PUSH2 0xFFFF AND DUP2 MSTORE PUSH1 0x20 ADD PUSH1 0x1 DUP3 ADD PUSH1 0x4 SWAP1 SLOAD SWAP1 PUSH2 0x100 EXP SWAP1 DIV PUSH1 0xFF AND ISZERO ISZERO ISZERO ISZERO DUP2 MSTORE POP POP SWAP1 POP PUSH1 0x0 PUSH2 0xC0B DUP7 DUP4 PUSH2 0x1C4D JUMP JUMPDEST SWAP1 POP PUSH1 0x1 DUP2 EQ ISZERO PUSH2 0xC9C JUMPI PUSH2 0xC1E PUSH2 0xD8B JUMP JUMPDEST PUSH20 0xFFFFFFFFFFFFFFFFFFFFFFFFFFFFFFFFFFFFFFFF AND PUSH3 0x49F6D5 DUP8 PUSH1 0x40 MLOAD DUP3 PUSH4 0xFFFFFFFF AND PUSH1 0xE0 SHL DUP2 MSTORE PUSH1 0x4 ADD PUSH2 0xC55 SWAP2 SWAP1 PUSH2 0x2BBE JUMP JUMPDEST PUSH1 0x0 PUSH1 0x40 MLOAD DUP1 DUP4 SUB DUP2 PUSH1 0x0 DUP8 DUP1 EXTCODESIZE ISZERO DUP1 ISZERO PUSH2 0xC6F JUMPI PUSH1 0x0 DUP1 REVERT JUMPDEST POP GAS CALL ISZERO DUP1 ISZERO PUSH2 0xC83 JUMPI RETURNDATASIZE PUSH1 0x0 DUP1 RETURNDATACOPY RETURNDATASIZE PUSH1 0x0 REVERT JUMPDEST POP POP POP POP PUSH2 0xC8F PUSH2 0x1D98 JUMP JUMPDEST PUSH2 0xC97 PUSH2 0x1E31 JUMP JUMPDEST PUSH2 0xD0F JUMP JUMPDEST PUSH2 0xCA4 PUSH2 0xD8B JUMP JUMPDEST PUSH20 0xFFFFFFFFFFFFFFFFFFFFFFFFFFFFFFFFFFFFFFFF AND PUSH4 0xB4079732 DUP8 PUSH1 0x40 MLOAD DUP3 PUSH4 0xFFFFFFFF AND PUSH1 0xE0 SHL DUP2 MSTORE PUSH1 0x4 ADD PUSH2 0xCDC SWAP2 SWAP1 PUSH2 0x2BBE JUMP JUMPDEST PUSH1 0x0 PUSH1 0x40 MLOAD DUP1 DUP4 SUB DUP2 PUSH1 0x0 DUP8 DUP1 EXTCODESIZE ISZERO DUP1 ISZERO PUSH2 0xCF6 JUMPI PUSH1 0x0 DUP1 REVERT JUMPDEST POP GAS CALL ISZERO DUP1 ISZERO PUSH2 0xD0A JUMPI RETURNDATASIZE PUSH1 0x0 DUP1 RETURNDATACOPY RETURNDATASIZE PUSH1 0x0 REVERT JUMPDEST POP POP POP POP JUMPDEST PUSH2 0xD1A DUP7 DUP3 DUP5 PUSH2 0x1F83 JUMP JUMPDEST POP POP POP POP POP POP JUMP JUMPDEST PUSH1 0x7 PUSH1 0x20 MSTORE DUP1 PUSH1 0x0 MSTORE PUSH1 0x40 PUSH1 0x0 KECCAK256 PUSH1 0x0 SWAP2 POP SWAP1 POP SLOAD DUP2 JUMP JUMPDEST PUSH1 0x17 DUP2 PUSH2 0x2710 DUP2 LT PUSH2 0xD4B JUMPI PUSH1 0x0 DUP1 REVERT JUMPDEST PUSH1 0x2 MUL ADD PUSH1 0x0 SWAP2 POP SWAP1 POP DUP1 PUSH1 0x0 ADD SLOAD SWAP1 DUP1 PUSH1 0x1 ADD PUSH1 0x0 SWAP1 SLOAD SWAP1 PUSH2 0x100 EXP SWAP1 DIV PUSH2 0xFFFF AND SWAP1 POP DUP3 JUMP JUMPDEST PUSH1 0x8 PUSH1 0x20 MSTORE DUP1 PUSH1 0x0 MSTORE PUSH1 0x40 PUSH1 0x0 KECCAK256 PUSH1 0x0 SWAP2 POP SWAP1 POP SLOAD DUP2 JUMP JUMPDEST PUSH1 0x0 PUSH1 0xB PUSH1 0x0 SWAP1 SLOAD SWAP1 PUSH2 0x100 EXP SWAP1 DIV PUSH20 0xFFFFFFFFFFFFFFFFFFFFFFFFFFFFFFFFFFFFFFFF AND SWAP1 POP SWAP1 JUMP JUMPDEST PUSH1 0x16 PUSH1 0x20 MSTORE DUP2 PUSH1 0x0 MSTORE PUSH1 0x40 PUSH1 0x0 KECCAK256 DUP2 DUP2 SLOAD DUP2 LT PUSH2 0xDD1 JUMPI PUSH1 0x0 DUP1 REVERT JUMPDEST SWAP1 PUSH1 0x0 MSTORE PUSH1 0x20 PUSH1 0x0 KECCAK256 SWAP1 PUSH1 0x2 MUL ADD PUSH1 0x0 SWAP2 POP SWAP2 POP POP DUP1 PUSH1 0x0 ADD SLOAD SWAP1 DUP1 PUSH1 0x1 ADD PUSH1 0x0 SWAP1 SLOAD SWAP1 PUSH2 0x100 EXP SWAP1 DIV PUSH2 0xFFFF AND SWAP1 DUP1 PUSH1 0x1 ADD PUSH1 0x2 SWAP1 SLOAD SWAP1 PUSH2 0x100 EXP SWAP1 DIV PUSH2 0xFFFF AND SWAP1 DUP1 PUSH1 0x1 ADD PUSH1 0x4 SWAP1 SLOAD SWAP1 PUSH2 0x100 EXP SWAP1 DIV PUSH1 0xFF AND SWAP1 POP DUP5 JUMP JUMPDEST PUSH1 0x0 PUSH1 0x3 PUSH1 0x0 CALLER PUSH20 0xFFFFFFFFFFFFFFFFFFFFFFFFFFFFFFFFFFFFFFFF AND PUSH20 0xFFFFFFFFFFFFFFFFFFFFFFFFFFFFFFFFFFFFFFFF AND DUP2 MSTORE PUSH1 0x20 ADD SWAP1 DUP2 MSTORE PUSH1 0x20 ADD PUSH1 0x0 KECCAK256 SLOAD GT PUSH2 0xE77 JUMPI PUSH1 0x0 DUP1 REVERT JUMPDEST PUSH2 0xEC0 CALLER PUSH1 0x3 PUSH1 0x0 CALLER PUSH20 0xFFFFFFFFFFFFFFFFFFFFFFFFFFFFFFFFFFFFFFFF AND PUSH20 0xFFFFFFFFFFFFFFFFFFFFFFFFFFFFFFFFFFFFFFFF AND DUP2 MSTORE PUSH1 0x20 ADD SWAP1 DUP2 MSTORE PUSH1 0x20 ADD PUSH1 0x0 KECCAK256 SLOAD PUSH2 0x217F JUMP JUMPDEST PUSH1 0x0 PUSH1 0x3 PUSH1 0x0 CALLER PUSH20 0xFFFFFFFFFFFFFFFFFFFFFFFFFFFFFFFFFFFFFFFF AND PUSH20 0xFFFFFFFFFFFFFFFFFFFFFFFFFFFFFFFFFFFFFFFF AND DUP2 MSTORE PUSH1 0x20 ADD SWAP1 DUP2 MSTORE PUSH1 0x20 ADD PUSH1 0x0 KECCAK256 DUP2 SWAP1 SSTORE POP JUMP JUMPDEST PUSH1 0x0 PUSH2 0xF13 PUSH1 0x64 PUSH2 0x21CA JUMP JUMPDEST SWAP1 POP PUSH1 0x6 PUSH1 0x5 DUP2 SLOAD DUP2 LT PUSH2 0xF2A JUMPI PUSH2 0xF29 PUSH2 0x30A6 JUMP JUMPDEST JUMPDEST SWAP1 PUSH1 0x0 MSTORE PUSH1 0x20 PUSH1 0x0 KECCAK256 SWAP1 PUSH1 0x20 SWAP2 DUP3 DUP3 DIV ADD SWAP2 SWAP1 MOD SWAP1 SLOAD SWAP1 PUSH2 0x100 EXP SWAP1 DIV PUSH1 0xFF AND PUSH1 0xFF AND DUP2 LT PUSH2 0x1029 JUMPI PUSH2 0xFA6 PUSH1 0x1 PUSH1 0x7 PUSH1 0x0 CALLER PUSH20 0xFFFFFFFFFFFFFFFFFFFFFFFFFFFFFFFFFFFFFFFF AND PUSH20 0xFFFFFFFFFFFFFFFFFFFFFFFFFFFFFFFFFFFFFFFF AND DUP2 MSTORE PUSH1 0x20 ADD SWAP1 DUP2 MSTORE PUSH1 0x20 ADD PUSH1 0x0 KECCAK256 SLOAD PUSH2 0x222A SWAP1 SWAP2 SWAP1 PUSH4 0xFFFFFFFF AND JUMP JUMPDEST PUSH1 0x7 PUSH1 0x0 CALLER PUSH20 0xFFFFFFFFFFFFFFFFFFFFFFFFFFFFFFFFFFFFFFFF AND PUSH20 0xFFFFFFFFFFFFFFFFFFFFFFFFFFFFFFFFFFFFFFFF AND DUP2 MSTORE PUSH1 0x20 ADD SWAP1 DUP2 MSTORE PUSH1 0x20 ADD PUSH1 0x0 KECCAK256 DUP2 SWAP1 SSTORE POP PUSH32 0x6FDDB25BB38C47B7BFE9CD004ED00E6DF440D5D1473CC67AD6BCDAD8A99014EE CALLER PUSH1 0x5 PUSH1 0x40 MLOAD PUSH2 0x101B SWAP3 SWAP2 SWAP1 PUSH2 0x2AA4 JUMP JUMPDEST PUSH1 0x40 MLOAD DUP1 SWAP2 SUB SWAP1 LOG1 POP PUSH2 0x1427 JUMP JUMPDEST PUSH1 0x6 PUSH1 0x4 DUP2 SLOAD DUP2 LT PUSH2 0x103E JUMPI PUSH2 0x103D PUSH2 0x30A6 JUMP JUMPDEST JUMPDEST SWAP1 PUSH1 0x0 MSTORE PUSH1 0x20 PUSH1 0x0 KECCAK256 SWAP1 PUSH1 0x20 SWAP2 DUP3 DUP3 DIV ADD SWAP2 SWAP1 MOD SWAP1 SLOAD SWAP1 PUSH2 0x100 EXP SWAP1 DIV PUSH1 0xFF AND PUSH1 0xFF AND DUP2 LT PUSH2 0x113D JUMPI PUSH2 0x10BA PUSH1 0x1 PUSH1 0x8 PUSH1 0x0 CALLER PUSH20 0xFFFFFFFFFFFFFFFFFFFFFFFFFFFFFFFFFFFFFFFF AND PUSH20 0xFFFFFFFFFFFFFFFFFFFFFFFFFFFFFFFFFFFFFFFF AND DUP2 MSTORE PUSH1 0x20 ADD SWAP1 DUP2 MSTORE PUSH1 0x20 ADD PUSH1 0x0 KECCAK256 SLOAD PUSH2 0x222A SWAP1 SWAP2 SWAP1 PUSH4 0xFFFFFFFF AND JUMP JUMPDEST PUSH1 0x8 PUSH1 0x0 CALLER PUSH20 0xFFFFFFFFFFFFFFFFFFFFFFFFFFFFFFFFFFFFFFFF AND PUSH20 0xFFFFFFFFFFFFFFFFFFFFFFFFFFFFFFFFFFFFFFFF AND DUP2 MSTORE PUSH1 0x20 ADD SWAP1 DUP2 MSTORE PUSH1 0x20 ADD PUSH1 0x0 KECCAK256 DUP2 SWAP1 SSTORE POP PUSH32 0x6FDDB25BB38C47B7BFE9CD004ED00E6DF440D5D1473CC67AD6BCDAD8A99014EE CALLER PUSH1 0x4 PUSH1 0x40 MLOAD PUSH2 0x112F SWAP3 SWAP2 SWAP1 PUSH2 0x2A7B JUMP JUMPDEST PUSH1 0x40 MLOAD DUP1 SWAP2 SUB SWAP1 LOG1 POP PUSH2 0x1427 JUMP JUMPDEST PUSH1 0x6 PUSH1 0x3 DUP2 SLOAD DUP2 LT PUSH2 0x1152 JUMPI PUSH2 0x1151 PUSH2 0x30A6 JUMP JUMPDEST JUMPDEST SWAP1 PUSH1 0x0 MSTORE PUSH1 0x20 PUSH1 0x0 KECCAK256 SWAP1 PUSH1 0x20 SWAP2 DUP3 DUP3 DIV ADD SWAP2 SWAP1 MOD SWAP1 SLOAD SWAP1 PUSH2 0x100 EXP SWAP1 DIV PUSH1 0xFF AND PUSH1 0xFF AND DUP2 LT PUSH2 0x11C3 JUMPI PUSH2 0x1183 PUSH2 0x1D98 JUMP JUMPDEST PUSH32 0x6FDDB25BB38C47B7BFE9CD004ED00E6DF440D5D1473CC67AD6BCDAD8A99014EE CALLER PUSH1 0x3 PUSH1 0x40 MLOAD PUSH2 0x11B5 SWAP3 SWAP2 SWAP1 PUSH2 0x2A52 JUMP JUMPDEST PUSH1 0x40 MLOAD DUP1 SWAP2 SUB SWAP1 LOG1 POP PUSH2 0x1427 JUMP JUMPDEST PUSH1 0x6 PUSH1 0x2 DUP2 SLOAD DUP2 LT PUSH2 0x11D8 JUMPI PUSH2 0x11D7 PUSH2 0x30A6 JUMP JUMPDEST JUMPDEST SWAP1 PUSH1 0x0 MSTORE PUSH1 0x20 PUSH1 0x0 KECCAK256 SWAP1 PUSH1 0x20 SWAP2 DUP3 DUP3 DIV ADD SWAP2 SWAP1 MOD SWAP1 SLOAD SWAP1 PUSH2 0x100 EXP SWAP1 DIV PUSH1 0xFF AND PUSH1 0xFF AND DUP2 LT PUSH2 0x12D7 JUMPI PUSH2 0x1254 PUSH1 0x1 PUSH1 0x9 PUSH1 0x0 CALLER PUSH20 0xFFFFFFFFFFFFFFFFFFFFFFFFFFFFFFFFFFFFFFFF AND PUSH20 0xFFFFFFFFFFFFFFFFFFFFFFFFFFFFFFFFFFFFFFFF AND DUP2 MSTORE PUSH1 0x20 ADD SWAP1 DUP2 MSTORE PUSH1 0x20 ADD PUSH1 0x0 KECCAK256 SLOAD PUSH2 0x222A SWAP1 SWAP2 SWAP1 PUSH4 0xFFFFFFFF AND JUMP JUMPDEST PUSH1 0x9 PUSH1 0x0 CALLER PUSH20 0xFFFFFFFFFFFFFFFFFFFFFFFFFFFFFFFFFFFFFFFF AND PUSH20 0xFFFFFFFFFFFFFFFFFFFFFFFFFFFFFFFFFFFFFFFF AND DUP2 MSTORE PUSH1 0x20 ADD SWAP1 DUP2 MSTORE PUSH1 0x20 ADD PUSH1 0x0 KECCAK256 DUP2 SWAP1 SSTORE POP PUSH32 0x6FDDB25BB38C47B7BFE9CD004ED00E6DF440D5D1473CC67AD6BCDAD8A99014EE CALLER PUSH1 0x2 PUSH1 0x40 MLOAD PUSH2 0x12C9 SWAP3 SWAP2 SWAP1 PUSH2 0x2A29 JUMP JUMPDEST PUSH1 0x40 MLOAD DUP1 SWAP2 SUB SWAP1 LOG1 POP PUSH2 0x1427 JUMP JUMPDEST PUSH1 0x6 PUSH1 0x1 DUP2 SLOAD DUP2 LT PUSH2 0x12EC JUMPI PUSH2 0x12EB PUSH2 0x30A6 JUMP JUMPDEST JUMPDEST SWAP1 PUSH1 0x0 MSTORE PUSH1 0x20 PUSH1 0x0 KECCAK256 SWAP1 PUSH1 0x20 SWAP2 DUP3 DUP3 DIV ADD SWAP2 SWAP1 MOD SWAP1 SLOAD SWAP1 PUSH2 0x100 EXP SWAP1 DIV PUSH1 0xFF AND PUSH1 0xFF AND DUP2 LT PUSH2 0x13EB JUMPI PUSH2 0x1368 PUSH1 0x1 PUSH1 0xA PUSH1 0x0 CALLER PUSH20 0xFFFFFFFFFFFFFFFFFFFFFFFFFFFFFFFFFFFFFFFF AND PUSH20 0xFFFFFFFFFFFFFFFFFFFFFFFFFFFFFFFFFFFFFFFF AND DUP2 MSTORE PUSH1 0x20 ADD SWAP1 DUP2 MSTORE PUSH1 0x20 ADD PUSH1 0x0 KECCAK256 SLOAD PUSH2 0x222A SWAP1 SWAP2 SWAP1 PUSH4 0xFFFFFFFF AND JUMP JUMPDEST PUSH1 0xA PUSH1 0x0 CALLER PUSH20 0xFFFFFFFFFFFFFFFFFFFFFFFFFFFFFFFFFFFFFFFF AND PUSH20 0xFFFFFFFFFFFFFFFFFFFFFFFFFFFFFFFFFFFFFFFF AND DUP2 MSTORE PUSH1 0x20 ADD SWAP1 DUP2 MSTORE PUSH1 0x20 ADD PUSH1 0x0 KECCAK256 DUP2 SWAP1 SSTORE POP PUSH32 0x6FDDB25BB38C47B7BFE9CD004ED00E6DF440D5D1473CC67AD6BCDAD8A99014EE CALLER PUSH1 0x1 PUSH1 0x40 MLOAD PUSH2 0x13DD SWAP3 SWAP2 SWAP1 PUSH2 0x2A00 JUMP JUMPDEST PUSH1 0x40 MLOAD DUP1 SWAP2 SUB SWAP1 LOG1 POP PUSH2 0x1427 JUMP JUMPDEST PUSH32 0x6FDDB25BB38C47B7BFE9CD004ED00E6DF440D5D1473CC67AD6BCDAD8A99014EE CALLER PUSH1 0x0 PUSH1 0x40 MLOAD PUSH2 0x141D SWAP3 SWAP2 SWAP1 PUSH2 0x29D7 JUMP JUMPDEST PUSH1 0x40 MLOAD DUP1 SWAP2 SUB SWAP1 LOG1 POP JUMPDEST JUMP JUMPDEST PUSH1 0x15 PUSH1 0x20 MSTORE DUP1 PUSH1 0x0 MSTORE PUSH1 0x40 PUSH1 0x0 KECCAK256 PUSH1 0x0 SWAP2 POP SWAP1 POP SLOAD DUP2 JUMP JUMPDEST PUSH1 0x6 DUP2 DUP2 SLOAD DUP2 LT PUSH2 0x1451 JUMPI PUSH1 0x0 DUP1 REVERT JUMPDEST SWAP1 PUSH1 0x0 MSTORE PUSH1 0x20 PUSH1 0x0 KECCAK256 SWAP1 PUSH1 0x20 SWAP2 DUP3 DUP3 DIV ADD SWAP2 SWAP1 MOD SWAP2 POP SLOAD SWAP1 PUSH2 0x100 EXP SWAP1 DIV PUSH1 0xFF AND DUP2 JUMP JUMPDEST PUSH1 0x13 PUSH1 0x20 MSTORE DUP1 PUSH1 0x0 MSTORE PUSH1 0x40 PUSH1 0x0 KECCAK256 PUSH1 0x0 SWAP2 POP SLOAD SWAP1 PUSH2 0x100 EXP SWAP1 DIV PUSH1 0xFF AND DUP2 JUMP JUMPDEST PUSH2 0x149D PUSH2 0x16AE JUMP JUMPDEST PUSH2 0x14A6 JUMPI PUSH1 0x0 DUP1 REVERT JUMPDEST DUP1 PUSH1 0xB PUSH1 0x0 PUSH2 0x100 EXP DUP2 SLOAD DUP2 PUSH20 0xFFFFFFFFFFFFFFFFFFFFFFFFFFFFFFFFFFFFFFFF MUL NOT AND SWAP1 DUP4 PUSH20 0xFFFFFFFFFFFFFFFFFFFFFFFFFFFFFFFFFFFFFFFF AND MUL OR SWAP1 SSTORE POP POP JUMP JUMPDEST PUSH1 0x1 SLOAD CALLVALUE LT ISZERO PUSH2 0x14F9 JUMPI PUSH1 0x0 DUP1 REVERT JUMPDEST JUMP JUMPDEST PUSH2 0x1503 PUSH2 0x16AE JUMP JUMPDEST PUSH2 0x150C JUMPI PUSH1 0x0 DUP1 REVERT JUMPDEST PUSH1 0x0 PUSH20 0xFFFFFFFFFFFFFFFFFFFFFFFFFFFFFFFFFFFFFFFF AND PUSH1 0x0 DUP1 SLOAD SWAP1 PUSH2 0x100 EXP SWAP1 DIV PUSH20 0xFFFFFFFFFFFFFFFFFFFFFFFFFFFFFFFFFFFFFFFF AND PUSH20 0xFFFFFFFFFFFFFFFFFFFFFFFFFFFFFFFFFFFFFFFF AND PUSH32 0x8BE0079C531659141344CD1FD0A4F28419497F9722A3DAAFE3B4186F6B6457E0 PUSH1 0x40 MLOAD PUSH1 0x40 MLOAD DUP1 SWAP2 SUB SWAP1 LOG3 PUSH1 0x0 DUP1 PUSH1 0x0 PUSH2 0x100 EXP DUP2 SLOAD DUP2 PUSH20 0xFFFFFFFFFFFFFFFFFFFFFFFFFFFFFFFFFFFFFFFF MUL NOT AND SWAP1 DUP4 PUSH20 0xFFFFFFFFFFFFFFFFFFFFFFFFFFFFFFFFFFFFFFFF AND MUL OR SWAP1 SSTORE POP JUMP JUMPDEST PUSH2 0x15D2 PUSH2 0x2465 JUMP JUMPDEST PUSH1 0x0 ISZERO ISZERO PUSH1 0x13 PUSH1 0x0 DUP5 DUP2 MSTORE PUSH1 0x20 ADD SWAP1 DUP2 MSTORE PUSH1 0x20 ADD PUSH1 0x0 KECCAK256 PUSH1 0x0 SWAP1 SLOAD SWAP1 PUSH2 0x100 EXP SWAP1 DIV PUSH1 0xFF AND ISZERO ISZERO EQ ISZERO PUSH2 0x162F JUMPI PUSH1 0x40 MLOAD DUP1 PUSH1 0x40 ADD PUSH1 0x40 MSTORE DUP1 TIMESTAMP DUP2 MSTORE PUSH1 0x20 ADD PUSH1 0x10 PUSH1 0x2 SWAP1 SLOAD SWAP1 PUSH2 0x100 EXP SWAP1 DIV PUSH2 0xFFFF AND PUSH2 0xFFFF AND DUP2 MSTORE POP SWAP1 POP PUSH2 0x1680 JUMP JUMPDEST PUSH1 0x17 DUP3 PUSH2 0x2710 DUP2 LT PUSH2 0x1644 JUMPI PUSH2 0x1643 PUSH2 0x30A6 JUMP JUMPDEST JUMPDEST PUSH1 0x2 MUL ADD PUSH1 0x40 MLOAD DUP1 PUSH1 0x40 ADD PUSH1 0x40 MSTORE SWAP1 DUP2 PUSH1 0x0 DUP3 ADD SLOAD DUP2 MSTORE PUSH1 0x20 ADD PUSH1 0x1 DUP3 ADD PUSH1 0x0 SWAP1 SLOAD SWAP1 PUSH2 0x100 EXP SWAP1 DIV PUSH2 0xFFFF AND PUSH2 0xFFFF AND PUSH2 0xFFFF AND DUP2 MSTORE POP POP SWAP1 POP JUMPDEST SWAP2 SWAP1 POP JUMP JUMPDEST PUSH1 0x0 DUP1 PUSH1 0x0 SWAP1 SLOAD SWAP1 PUSH2 0x100 EXP SWAP1 DIV PUSH20 0xFFFFFFFFFFFFFFFFFFFFFFFFFFFFFFFFFFFFFFFF AND SWAP1 POP SWAP1 JUMP JUMPDEST PUSH1 0x0 DUP1 PUSH1 0x0 SWAP1 SLOAD SWAP1 PUSH2 0x100 EXP SWAP1 DIV PUSH20 0xFFFFFFFFFFFFFFFFFFFFFFFFFFFFFFFFFFFFFFFF AND PUSH20 0xFFFFFFFFFFFFFFFFFFFFFFFFFFFFFFFFFFFFFFFF AND CALLER PUSH20 0xFFFFFFFFFFFFFFFFFFFFFFFFFFFFFFFFFFFFFFFF AND EQ SWAP1 POP SWAP1 JUMP JUMPDEST PUSH1 0x0 PUSH2 0x1710 DUP3 PUSH2 0x15CA JUMP JUMPDEST PUSH1 0x0 ADD MLOAD TIMESTAMP LT PUSH2 0x1723 JUMPI PUSH1 0x0 SWAP1 POP PUSH2 0x1754 JUMP JUMPDEST PUSH1 0x0 TIMESTAMP PUSH1 0x17 DUP5 PUSH2 0x2710 DUP2 LT PUSH2 0x173B JUMPI PUSH2 0x173A PUSH2 0x30A6 JUMP JUMPDEST JUMPDEST PUSH1 0x2 MUL ADD PUSH1 0x0 ADD SLOAD PUSH2 0x174D SWAP2 SWAP1 PUSH2 0x2DD0 JUMP JUMPDEST SWAP1 POP DUP1 SWAP2 POP POP JUMPDEST SWAP2 SWAP1 POP JUMP JUMPDEST PUSH1 0xA PUSH1 0x20 MSTORE DUP1 PUSH1 0x0 MSTORE PUSH1 0x40 PUSH1 0x0 KECCAK256 PUSH1 0x0 SWAP2 POP SWAP1 POP SLOAD DUP2 JUMP JUMPDEST PUSH1 0x11 DUP2 DUP2 SLOAD DUP2 LT PUSH2 0x1781 JUMPI PUSH1 0x0 DUP1 REVERT JUMPDEST SWAP1 PUSH1 0x0 MSTORE PUSH1 0x20 PUSH1 0x0 KECCAK256 SWAP1 PUSH1 0x20 SWAP2 DUP3 DUP3 DIV ADD SWAP2 SWAP1 MOD SWAP2 POP SLOAD SWAP1 PUSH2 0x100 EXP SWAP1 DIV PUSH1 0xFF AND DUP2 JUMP JUMPDEST PUSH1 0x14 PUSH1 0x20 MSTORE DUP1 PUSH1 0x0 MSTORE PUSH1 0x40 PUSH1 0x0 KECCAK256 PUSH1 0x0 SWAP2 POP SWAP1 POP SLOAD DUP2 JUMP JUMPDEST PUSH1 0x3 PUSH1 0x20 MSTORE DUP1 PUSH1 0x0 MSTORE PUSH1 0x40 PUSH1 0x0 KECCAK256 PUSH1 0x0 SWAP2 POP SWAP1 POP SLOAD DUP2 JUMP JUMPDEST PUSH2 0x17DD PUSH2 0x16AE JUMP JUMPDEST PUSH2 0x17E6 JUMPI PUSH1 0x0 DUP1 REVERT JUMPDEST DUP2 PUSH20 0xFFFFFFFFFFFFFFFFFFFFFFFFFFFFFFFFFFFFFFFF AND PUSH2 0x8FC DUP3 SWAP1 DUP2 ISZERO MUL SWAP1 PUSH1 0x40 MLOAD PUSH1 0x0 PUSH1 0x40 MLOAD DUP1 DUP4 SUB DUP2 DUP6 DUP9 DUP9 CALL SWAP4 POP POP POP POP ISZERO DUP1 ISZERO PUSH2 0x182C JUMPI RETURNDATASIZE PUSH1 0x0 DUP1 RETURNDATACOPY RETURNDATASIZE PUSH1 0x0 REVERT JUMPDEST POP POP POP JUMP JUMPDEST PUSH1 0x12 DUP2 DUP2 SLOAD DUP2 LT PUSH2 0x1841 JUMPI PUSH1 0x0 DUP1 REVERT JUMPDEST SWAP1 PUSH1 0x0 MSTORE PUSH1 0x20 PUSH1 0x0 KECCAK256 SWAP1 PUSH1 0x20 SWAP2 DUP3 DUP3 DIV ADD SWAP2 SWAP1 MOD SWAP2 POP SLOAD SWAP1 PUSH2 0x100 EXP SWAP1 DIV PUSH1 0xFF AND DUP2 JUMP JUMPDEST PUSH1 0xC SLOAD CALLVALUE EQ PUSH2 0x18A9 JUMPI PUSH1 0x40 MLOAD PUSH32 0x8C379A000000000000000000000000000000000000000000000000000000000 DUP2 MSTORE PUSH1 0x4 ADD PUSH2 0x18A0 SWAP1 PUSH2 0x2B23 JUMP JUMPDEST PUSH1 0x40 MLOAD DUP1 SWAP2 SUB SWAP1 REVERT JUMPDEST PUSH1 0x0 JUMPDEST PUSH1 0x10 PUSH1 0x0 SWAP1 SLOAD SWAP1 PUSH2 0x100 EXP SWAP1 DIV PUSH2 0xFFFF AND PUSH2 0xFFFF AND DUP2 PUSH2 0xFFFF AND LT ISZERO PUSH2 0x1ACD JUMPI PUSH2 0x18E2 PUSH1 0x1 PUSH1 0x4 SLOAD PUSH2 0x222A SWAP1 SWAP2 SWAP1 PUSH4 0xFFFFFFFF AND JUMP JUMPDEST PUSH1 0x4 DUP2 SWAP1 SSTORE POP PUSH1 0x0 PUSH2 0x18F2 PUSH2 0xD8B JUMP JUMPDEST PUSH20 0xFFFFFFFFFFFFFFFFFFFFFFFFFFFFFFFFFFFFFFFF AND PUSH4 0xBEB0F133 PUSH1 0x4 SLOAD PUSH1 0x40 MLOAD DUP3 PUSH4 0xFFFFFFFF AND PUSH1 0xE0 SHL DUP2 MSTORE PUSH1 0x4 ADD PUSH2 0x192C SWAP2 SWAP1 PUSH2 0x2BBE JUMP JUMPDEST PUSH1 0x20 PUSH1 0x40 MLOAD DUP1 DUP4 SUB DUP2 DUP7 DUP1 EXTCODESIZE ISZERO DUP1 ISZERO PUSH2 0x1944 JUMPI PUSH1 0x0 DUP1 REVERT JUMPDEST POP GAS STATICCALL ISZERO DUP1 ISZERO PUSH2 0x1958 JUMPI RETURNDATASIZE PUSH1 0x0 DUP1 RETURNDATACOPY RETURNDATASIZE PUSH1 0x0 REVERT JUMPDEST POP POP POP POP PUSH1 0x40 MLOAD RETURNDATASIZE PUSH1 0x1F NOT PUSH1 0x1F DUP3 ADD AND DUP3 ADD DUP1 PUSH1 0x40 MSTORE POP DUP2 ADD SWAP1 PUSH2 0x197C SWAP2 SWAP1 PUSH2 0x2675 JUMP JUMPDEST SWAP1 POP PUSH1 0x16 PUSH1 0x0 CALLER PUSH20 0xFFFFFFFFFFFFFFFFFFFFFFFFFFFFFFFFFFFFFFFF AND PUSH20 0xFFFFFFFFFFFFFFFFFFFFFFFFFFFFFFFFFFFFFFFF AND DUP2 MSTORE PUSH1 0x20 ADD SWAP1 DUP2 MSTORE PUSH1 0x20 ADD PUSH1 0x0 KECCAK256 PUSH1 0x40 MLOAD DUP1 PUSH1 0x80 ADD PUSH1 0x40 MSTORE DUP1 PUSH1 0xF SLOAD DUP2 MSTORE PUSH1 0x20 ADD DUP4 PUSH2 0xFFFF AND DUP2 MSTORE PUSH1 0x20 ADD PUSH2 0x19F2 PUSH1 0x1 DUP7 PUSH2 0xFFFF AND PUSH2 0x2256 SWAP1 SWAP2 SWAP1 PUSH4 0xFFFFFFFF AND JUMP JUMPDEST PUSH2 0xFFFF AND DUP2 MSTORE PUSH1 0x20 ADD PUSH1 0x0 ISZERO ISZERO DUP2 MSTORE POP SWAP1 DUP1 PUSH1 0x1 DUP2 SLOAD ADD DUP1 DUP3 SSTORE DUP1 SWAP2 POP POP PUSH1 0x1 SWAP1 SUB SWAP1 PUSH1 0x0 MSTORE PUSH1 0x20 PUSH1 0x0 KECCAK256 SWAP1 PUSH1 0x2 MUL ADD PUSH1 0x0 SWAP1 SWAP2 SWAP1 SWAP2 SWAP1 SWAP2 POP PUSH1 0x0 DUP3 ADD MLOAD DUP2 PUSH1 0x0 ADD SSTORE PUSH1 0x20 DUP3 ADD MLOAD DUP2 PUSH1 0x1 ADD PUSH1 0x0 PUSH2 0x100 EXP DUP2 SLOAD DUP2 PUSH2 0xFFFF MUL NOT AND SWAP1 DUP4 PUSH2 0xFFFF AND MUL OR SWAP1 SSTORE POP PUSH1 0x40 DUP3 ADD MLOAD DUP2 PUSH1 0x1 ADD PUSH1 0x2 PUSH2 0x100 EXP DUP2 SLOAD DUP2 PUSH2 0xFFFF MUL NOT AND SWAP1 DUP4 PUSH2 0xFFFF AND MUL OR SWAP1 SSTORE POP PUSH1 0x60 DUP3 ADD MLOAD DUP2 PUSH1 0x1 ADD PUSH1 0x4 PUSH2 0x100 EXP DUP2 SLOAD DUP2 PUSH1 0xFF MUL NOT AND SWAP1 DUP4 ISZERO ISZERO MUL OR SWAP1 SSTORE POP POP POP PUSH2 0x1AB3 PUSH1 0x1 PUSH1 0xF SLOAD PUSH2 0x222A SWAP1 SWAP2 SWAP1 PUSH4 0xFFFFFFFF AND JUMP JUMPDEST PUSH1 0xF DUP2 SWAP1 SSTORE POP POP DUP1 DUP1 PUSH2 0x1AC5 SWAP1 PUSH2 0x2F8F JUMP JUMPDEST SWAP2 POP POP PUSH2 0x18AC JUMP JUMPDEST POP PUSH2 0x1B34 PUSH1 0x10 PUSH1 0x0 SWAP1 SLOAD SWAP1 PUSH2 0x100 EXP SWAP1 DIV PUSH2 0xFFFF AND PUSH2 0xFFFF AND PUSH1 0x15 PUSH1 0x0 CALLER PUSH20 0xFFFFFFFFFFFFFFFFFFFFFFFFFFFFFFFFFFFFFFFF AND PUSH20 0xFFFFFFFFFFFFFFFFFFFFFFFFFFFFFFFFFFFFFFFF AND DUP2 MSTORE PUSH1 0x20 ADD SWAP1 DUP2 MSTORE PUSH1 0x20 ADD PUSH1 0x0 KECCAK256 SLOAD PUSH2 0x222A SWAP1 SWAP2 SWAP1 PUSH4 0xFFFFFFFF AND JUMP JUMPDEST PUSH1 0x15 PUSH1 0x0 CALLER PUSH20 0xFFFFFFFFFFFFFFFFFFFFFFFFFFFFFFFFFFFFFFFF AND PUSH20 0xFFFFFFFFFFFFFFFFFFFFFFFFFFFFFFFFFFFFFFFF AND DUP2 MSTORE PUSH1 0x20 ADD SWAP1 DUP2 MSTORE PUSH1 0x20 ADD PUSH1 0x0 KECCAK256 DUP2 SWAP1 SSTORE POP JUMP JUMPDEST PUSH1 0x40 MLOAD DUP1 PUSH1 0x40 ADD PUSH1 0x40 MSTORE DUP1 TIMESTAMP DUP2 MSTORE PUSH1 0x20 ADD PUSH1 0x10 PUSH1 0x2 SWAP1 SLOAD SWAP1 PUSH2 0x100 EXP SWAP1 DIV PUSH2 0xFFFF AND PUSH2 0xFFFF AND DUP2 MSTORE POP PUSH1 0x17 DUP3 PUSH2 0x2710 DUP2 LT PUSH2 0x1BB7 JUMPI PUSH2 0x1BB6 PUSH2 0x30A6 JUMP JUMPDEST JUMPDEST PUSH1 0x2 MUL ADD PUSH1 0x0 DUP3 ADD MLOAD DUP2 PUSH1 0x0 ADD SSTORE PUSH1 0x20 DUP3 ADD MLOAD DUP2 PUSH1 0x1 ADD PUSH1 0x0 PUSH2 0x100 EXP DUP2 SLOAD DUP2 PUSH2 0xFFFF MUL NOT AND SWAP1 DUP4 PUSH2 0xFFFF AND MUL OR SWAP1 SSTORE POP SWAP1 POP POP POP JUMP JUMPDEST PUSH1 0x0 PUSH1 0xB PUSH1 0x0 SWAP1 SLOAD SWAP1 PUSH2 0x100 EXP SWAP1 DIV PUSH20 0xFFFFFFFFFFFFFFFFFFFFFFFFFFFFFFFFFFFFFFFF AND SWAP1 POP SWAP1 JUMP JUMPDEST PUSH1 0x9 PUSH1 0x20 MSTORE DUP1 PUSH1 0x0 MSTORE PUSH1 0x40 PUSH1 0x0 KECCAK256 PUSH1 0x0 SWAP2 POP SWAP1 POP SLOAD DUP2 JUMP JUMPDEST PUSH2 0x1C38 PUSH2 0x16AE JUMP JUMPDEST PUSH2 0x1C41 JUMPI PUSH1 0x0 DUP1 REVERT JUMPDEST PUSH2 0x1C4A DUP2 PUSH2 0x228A JUMP JUMPDEST POP JUMP JUMPDEST PUSH1 0x0 DUP1 PUSH2 0x1C5A PUSH1 0x64 PUSH2 0x21CA JUMP JUMPDEST SWAP1 POP PUSH1 0x0 DUP1 DUP1 PUSH2 0x1C68 PUSH2 0xD8B JUMP JUMPDEST PUSH20 0xFFFFFFFFFFFFFFFFFFFFFFFFFFFFFFFFFFFFFFFF AND PUSH4 0xDB07DBB6 DUP9 PUSH1 0x40 MLOAD DUP3 PUSH4 0xFFFFFFFF AND PUSH1 0xE0 SHL DUP2 MSTORE PUSH1 0x4 ADD PUSH2 0x1CA0 SWAP2 SWAP1 PUSH2 0x2BBE JUMP JUMPDEST PUSH1 0x0 PUSH1 0x40 MLOAD DUP1 DUP4 SUB DUP2 DUP7 DUP1 EXTCODESIZE ISZERO DUP1 ISZERO PUSH2 0x1CB8 JUMPI PUSH1 0x0 DUP1 REVERT JUMPDEST POP GAS STATICCALL ISZERO DUP1 ISZERO PUSH2 0x1CCC JUMPI RETURNDATASIZE PUSH1 0x0 DUP1 RETURNDATACOPY RETURNDATASIZE PUSH1 0x0 REVERT JUMPDEST POP POP POP POP PUSH1 0x40 MLOAD RETURNDATASIZE PUSH1 0x0 DUP3 RETURNDATACOPY RETURNDATASIZE PUSH1 0x1F NOT PUSH1 0x1F DUP3 ADD AND DUP3 ADD DUP1 PUSH1 0x40 MSTORE POP DUP2 ADD SWAP1 PUSH2 0x1CF5 SWAP2 SWAP1 PUSH2 0x26CF JUMP JUMPDEST POP SWAP7 POP SWAP7 POP POP POP POP POP POP DUP2 PUSH2 0xFFFF AND DUP7 PUSH1 0x20 ADD MLOAD PUSH2 0xFFFF AND EQ ISZERO PUSH2 0x1D2A JUMPI PUSH2 0x1D28 PUSH1 0xE SLOAD DUP5 PUSH2 0x222A SWAP1 SWAP2 SWAP1 PUSH4 0xFFFFFFFF AND JUMP JUMPDEST POP JUMPDEST PUSH1 0x0 DUP4 PUSH1 0x11 DUP4 PUSH1 0xFF AND DUP2 SLOAD DUP2 LT PUSH2 0x1D44 JUMPI PUSH2 0x1D43 PUSH2 0x30A6 JUMP JUMPDEST JUMPDEST SWAP1 PUSH1 0x0 MSTORE PUSH1 0x20 PUSH1 0x0 KECCAK256 SWAP1 PUSH1 0x20 SWAP2 DUP3 DUP3 DIV ADD SWAP2 SWAP1 MOD SWAP1 SLOAD SWAP1 PUSH2 0x100 EXP SWAP1 DIV PUSH1 0xFF AND PUSH1 0xFF AND PUSH2 0x1D71 SWAP2 SWAP1 PUSH2 0x2D46 JUMP JUMPDEST SWAP1 POP DUP5 DUP2 LT PUSH2 0x1D88 JUMPI PUSH1 0x1 SWAP6 POP POP POP POP POP POP PUSH2 0x1D92 JUMP JUMPDEST PUSH1 0x0 SWAP6 POP POP POP POP POP POP JUMPDEST SWAP3 SWAP2 POP POP JUMP JUMPDEST PUSH2 0x1DEC PUSH1 0x2 SLOAD PUSH1 0x3 PUSH1 0x0 CALLER PUSH20 0xFFFFFFFFFFFFFFFFFFFFFFFFFFFFFFFFFFFFFFFF AND PUSH20 0xFFFFFFFFFFFFFFFFFFFFFFFFFFFFFFFFFFFFFFFF AND DUP2 MSTORE PUSH1 0x20 ADD SWAP1 DUP2 MSTORE PUSH1 0x20 ADD PUSH1 0x0 KECCAK256 SLOAD PUSH2 0x222A SWAP1 SWAP2 SWAP1 PUSH4 0xFFFFFFFF AND JUMP JUMPDEST PUSH1 0x3 PUSH1 0x0 CALLER PUSH20 0xFFFFFFFFFFFFFFFFFFFFFFFFFFFFFFFFFFFFFFFF AND PUSH20 0xFFFFFFFFFFFFFFFFFFFFFFFFFFFFFFFFFFFFFFFF AND DUP2 MSTORE PUSH1 0x20 ADD SWAP1 DUP2 MSTORE PUSH1 0x20 ADD PUSH1 0x0 KECCAK256 DUP2 SWAP1 SSTORE POP JUMP JUMPDEST PUSH1 0x1 PUSH1 0x16 PUSH1 0x0 CALLER PUSH20 0xFFFFFFFFFFFFFFFFFFFFFFFFFFFFFFFFFFFFFFFF AND PUSH20 0xFFFFFFFFFFFFFFFFFFFFFFFFFFFFFFFFFFFFFFFF AND DUP2 MSTORE PUSH1 0x20 ADD SWAP1 DUP2 MSTORE PUSH1 0x20 ADD PUSH1 0x0 KECCAK256 PUSH1 0x14 PUSH1 0x0 CALLER PUSH20 0xFFFFFFFFFFFFFFFFFFFFFFFFFFFFFFFFFFFFFFFF AND PUSH20 0xFFFFFFFFFFFFFFFFFFFFFFFFFFFFFFFFFFFFFFFF AND DUP2 MSTORE PUSH1 0x20 ADD SWAP1 DUP2 MSTORE PUSH1 0x20 ADD PUSH1 0x0 KECCAK256 SLOAD DUP2 SLOAD DUP2 LT PUSH2 0x1EC3 JUMPI PUSH2 0x1EC2 PUSH2 0x30A6 JUMP JUMPDEST JUMPDEST SWAP1 PUSH1 0x0 MSTORE PUSH1 0x20 PUSH1 0x0 KECCAK256 SWAP1 PUSH1 0x2 MUL ADD PUSH1 0x1 ADD PUSH1 0x4 PUSH2 0x100 EXP DUP2 SLOAD DUP2 PUSH1 0xFF MUL NOT AND SWAP1 DUP4 ISZERO ISZERO MUL OR SWAP1 SSTORE POP PUSH2 0x1F3E PUSH1 0x1 PUSH1 0x14 PUSH1 0x0 CALLER PUSH20 0xFFFFFFFFFFFFFFFFFFFFFFFFFFFFFFFFFFFFFFFF AND PUSH20 0xFFFFFFFFFFFFFFFFFFFFFFFFFFFFFFFFFFFFFFFF AND DUP2 MSTORE PUSH1 0x20 ADD SWAP1 DUP2 MSTORE PUSH1 0x20 ADD PUSH1 0x0 KECCAK256 SLOAD PUSH2 0x222A SWAP1 SWAP2 SWAP1 PUSH4 0xFFFFFFFF AND JUMP JUMPDEST PUSH1 0x14 PUSH1 0x0 CALLER PUSH20 0xFFFFFFFFFFFFFFFFFFFFFFFFFFFFFFFFFFFFFFFF AND PUSH20 0xFFFFFFFFFFFFFFFFFFFFFFFFFFFFFFFFFFFFFFFF AND DUP2 MSTORE PUSH1 0x20 ADD SWAP1 DUP2 MSTORE PUSH1 0x20 ADD PUSH1 0x0 KECCAK256 DUP2 SWAP1 SSTORE POP JUMP JUMPDEST PUSH1 0x0 ISZERO ISZERO PUSH1 0x13 PUSH1 0x0 DUP6 DUP2 MSTORE PUSH1 0x20 ADD SWAP1 DUP2 MSTORE PUSH1 0x20 ADD PUSH1 0x0 KECCAK256 PUSH1 0x0 SWAP1 SLOAD SWAP1 PUSH2 0x100 EXP SWAP1 DIV PUSH1 0xFF AND ISZERO ISZERO EQ ISZERO PUSH2 0x204F JUMPI PUSH1 0x40 MLOAD DUP1 PUSH1 0x40 ADD PUSH1 0x40 MSTORE DUP1 TIMESTAMP DUP2 MSTORE PUSH1 0x20 ADD PUSH1 0x10 PUSH1 0x2 SWAP1 SLOAD SWAP1 PUSH2 0x100 EXP SWAP1 DIV PUSH2 0xFFFF AND PUSH2 0xFFFF AND DUP2 MSTORE POP PUSH1 0x17 DUP5 PUSH2 0x2710 DUP2 LT PUSH2 0x1FEE JUMPI PUSH2 0x1FED PUSH2 0x30A6 JUMP JUMPDEST JUMPDEST PUSH1 0x2 MUL ADD PUSH1 0x0 DUP3 ADD MLOAD DUP2 PUSH1 0x0 ADD SSTORE PUSH1 0x20 DUP3 ADD MLOAD DUP2 PUSH1 0x1 ADD PUSH1 0x0 PUSH2 0x100 EXP DUP2 SLOAD DUP2 PUSH2 0xFFFF MUL NOT AND SWAP1 DUP4 PUSH2 0xFFFF AND MUL OR SWAP1 SSTORE POP SWAP1 POP POP PUSH1 0x1 PUSH1 0x13 PUSH1 0x0 DUP6 DUP2 MSTORE PUSH1 0x20 ADD SWAP1 DUP2 MSTORE PUSH1 0x20 ADD PUSH1 0x0 KECCAK256 PUSH1 0x0 PUSH2 0x100 EXP DUP2 SLOAD DUP2 PUSH1 0xFF MUL NOT AND SWAP1 DUP4 ISZERO ISZERO MUL OR SWAP1 SSTORE POP JUMPDEST PUSH1 0x0 PUSH2 0x2059 PUSH2 0xD8B JUMP JUMPDEST PUSH20 0xFFFFFFFFFFFFFFFFFFFFFFFFFFFFFFFFFFFFFFFF AND PUSH4 0xDB07DBB6 DUP6 PUSH1 0x40 MLOAD DUP3 PUSH4 0xFFFFFFFF AND PUSH1 0xE0 SHL DUP2 MSTORE PUSH1 0x4 ADD PUSH2 0x2091 SWAP2 SWAP1 PUSH2 0x2BBE JUMP JUMPDEST PUSH1 0x0 PUSH1 0x40 MLOAD DUP1 DUP4 SUB DUP2 DUP7 DUP1 EXTCODESIZE ISZERO DUP1 ISZERO PUSH2 0x20A9 JUMPI PUSH1 0x0 DUP1 REVERT JUMPDEST POP GAS STATICCALL ISZERO DUP1 ISZERO PUSH2 0x20BD JUMPI RETURNDATASIZE PUSH1 0x0 DUP1 RETURNDATACOPY RETURNDATASIZE PUSH1 0x0 REVERT JUMPDEST POP POP POP POP PUSH1 0x40 MLOAD RETURNDATASIZE PUSH1 0x0 DUP3 RETURNDATACOPY RETURNDATASIZE PUSH1 0x1F NOT PUSH1 0x1F DUP3 ADD AND DUP3 ADD DUP1 PUSH1 0x40 MSTORE POP DUP2 ADD SWAP1 PUSH2 0x20E6 SWAP2 SWAP1 PUSH2 0x26CF JUMP JUMPDEST POP SWAP7 POP POP POP POP POP POP POP PUSH2 0x212F DUP5 PUSH1 0x12 DUP4 PUSH1 0xFF AND DUP2 SLOAD DUP2 LT PUSH2 0x210A JUMPI PUSH2 0x2109 PUSH2 0x30A6 JUMP JUMPDEST JUMPDEST SWAP1 PUSH1 0x0 MSTORE PUSH1 0x20 PUSH1 0x0 KECCAK256 SWAP1 PUSH1 0x20 SWAP2 DUP3 DUP3 DIV ADD SWAP2 SWAP1 MOD SWAP1 SLOAD SWAP1 PUSH2 0x100 EXP SWAP1 DIV PUSH1 0xFF AND PUSH2 0x2381 JUMP JUMPDEST PUSH2 0x2138 DUP5 PUSH2 0x23FF JUMP JUMPDEST PUSH32 0xD2B6B22444768B00D18E4A1C242DC398D49E330C1BAE790CAD9DCD86DA2E20C3 DUP5 DUP5 DUP5 PUSH1 0x0 ADD MLOAD CALLER PUSH1 0x40 MLOAD PUSH2 0x2171 SWAP5 SWAP4 SWAP3 SWAP2 SWAP1 PUSH2 0x2C47 JUMP JUMPDEST PUSH1 0x40 MLOAD DUP1 SWAP2 SUB SWAP1 LOG1 POP POP POP POP JUMP JUMPDEST DUP2 PUSH20 0xFFFFFFFFFFFFFFFFFFFFFFFFFFFFFFFFFFFFFFFF AND PUSH2 0x8FC DUP3 SWAP1 DUP2 ISZERO MUL SWAP1 PUSH1 0x40 MLOAD PUSH1 0x0 PUSH1 0x40 MLOAD DUP1 DUP4 SUB DUP2 DUP6 DUP9 DUP9 CALL SWAP4 POP POP POP POP ISZERO DUP1 ISZERO PUSH2 0x21C5 JUMPI RETURNDATASIZE PUSH1 0x0 DUP1 RETURNDATACOPY RETURNDATASIZE PUSH1 0x0 REVERT JUMPDEST POP POP POP JUMP JUMPDEST PUSH1 0x0 PUSH2 0x21E2 PUSH1 0x1 PUSH1 0x4 SLOAD PUSH2 0x222A SWAP1 SWAP2 SWAP1 PUSH4 0xFFFFFFFF AND JUMP JUMPDEST PUSH1 0x4 DUP2 SWAP1 SSTORE POP DUP2 TIMESTAMP CALLER PUSH1 0x4 SLOAD PUSH1 0x40 MLOAD PUSH1 0x20 ADD PUSH2 0x2200 SWAP4 SWAP3 SWAP2 SWAP1 PUSH2 0x297F JUMP JUMPDEST PUSH1 0x40 MLOAD PUSH1 0x20 DUP2 DUP4 SUB SUB DUP2 MSTORE SWAP1 PUSH1 0x40 MSTORE DUP1 MLOAD SWAP1 PUSH1 0x20 ADD KECCAK256 PUSH1 0x0 SHR PUSH2 0x2223 SWAP2 SWAP1 PUSH2 0x2FE8 JUMP JUMPDEST SWAP1 POP SWAP2 SWAP1 POP JUMP JUMPDEST PUSH1 0x0 DUP1 DUP3 DUP5 PUSH2 0x2239 SWAP2 SWAP1 PUSH2 0x2D46 JUMP JUMPDEST SWAP1 POP DUP4 DUP2 LT ISZERO PUSH2 0x224C JUMPI PUSH2 0x224B PUSH2 0x3019 JUMP JUMPDEST JUMPDEST DUP1 SWAP2 POP POP SWAP3 SWAP2 POP POP JUMP JUMPDEST PUSH1 0x0 DUP1 DUP3 DUP5 PUSH2 0x2265 SWAP2 SWAP1 PUSH2 0x2D0E JUMP JUMPDEST SWAP1 POP DUP4 PUSH2 0xFFFF AND DUP2 PUSH2 0xFFFF AND LT ISZERO PUSH2 0x2280 JUMPI PUSH2 0x227F PUSH2 0x3019 JUMP JUMPDEST JUMPDEST DUP1 SWAP2 POP POP SWAP3 SWAP2 POP POP JUMP JUMPDEST PUSH1 0x0 PUSH20 0xFFFFFFFFFFFFFFFFFFFFFFFFFFFFFFFFFFFFFFFF AND DUP2 PUSH20 0xFFFFFFFFFFFFFFFFFFFFFFFFFFFFFFFFFFFFFFFF AND EQ ISZERO PUSH2 0x22C4 JUMPI PUSH1 0x0 DUP1 REVERT JUMPDEST DUP1 PUSH20 0xFFFFFFFFFFFFFFFFFFFFFFFFFFFFFFFFFFFFFFFF AND PUSH1 0x0 DUP1 SLOAD SWAP1 PUSH2 0x100 EXP SWAP1 DIV PUSH20 0xFFFFFFFFFFFFFFFFFFFFFFFFFFFFFFFFFFFFFFFF AND PUSH20 0xFFFFFFFFFFFFFFFFFFFFFFFFFFFFFFFFFFFFFFFF AND PUSH32 0x8BE0079C531659141344CD1FD0A4F28419497F9722A3DAAFE3B4186F6B6457E0 PUSH1 0x40 MLOAD PUSH1 0x40 MLOAD DUP1 SWAP2 SUB SWAP1 LOG3 DUP1 PUSH1 0x0 DUP1 PUSH2 0x100 EXP DUP2 SLOAD DUP2 PUSH20 0xFFFFFFFFFFFFFFFFFFFFFFFFFFFFFFFFFFFFFFFF MUL NOT AND SWAP1 DUP4 PUSH20 0xFFFFFFFFFFFFFFFFFFFFFFFFFFFFFFFFFFFFFFFF AND MUL OR SWAP1 SSTORE POP POP JUMP JUMPDEST PUSH2 0x23C5 DUP2 PUSH1 0xFF AND PUSH1 0x17 DUP5 PUSH2 0x2710 DUP2 LT PUSH2 0x239D JUMPI PUSH2 0x239C PUSH2 0x30A6 JUMP JUMPDEST JUMPDEST PUSH1 0x2 MUL ADD PUSH1 0x1 ADD PUSH1 0x0 SWAP1 SLOAD SWAP1 PUSH2 0x100 EXP SWAP1 DIV PUSH2 0xFFFF AND PUSH2 0xFFFF AND PUSH2 0x2436 SWAP1 SWAP2 SWAP1 PUSH4 0xFFFFFFFF AND JUMP JUMPDEST PUSH1 0x17 DUP4 PUSH2 0x2710 DUP2 LT PUSH2 0x23DA JUMPI PUSH2 0x23D9 PUSH2 0x30A6 JUMP JUMPDEST JUMPDEST PUSH1 0x2 MUL ADD PUSH1 0x1 ADD PUSH1 0x0 PUSH2 0x100 EXP DUP2 SLOAD DUP2 PUSH2 0xFFFF MUL NOT AND SWAP1 DUP4 PUSH2 0xFFFF AND MUL OR SWAP1 SSTORE POP POP POP JUMP JUMPDEST TIMESTAMP PUSH1 0xD SLOAD PUSH2 0x240D SWAP2 SWAP1 PUSH2 0x2D46 JUMP JUMPDEST PUSH4 0xFFFFFFFF AND PUSH1 0x17 DUP3 PUSH2 0x2710 DUP2 LT PUSH2 0x2428 JUMPI PUSH2 0x2427 PUSH2 0x30A6 JUMP JUMPDEST JUMPDEST PUSH1 0x2 MUL ADD PUSH1 0x0 ADD DUP2 SWAP1 SSTORE POP POP JUMP JUMPDEST PUSH1 0x0 DUP3 PUSH2 0xFFFF AND DUP3 PUSH2 0xFFFF AND GT ISZERO PUSH2 0x2451 JUMPI PUSH2 0x2450 PUSH2 0x3019 JUMP JUMPDEST JUMPDEST DUP2 DUP4 PUSH2 0x245D SWAP2 SWAP1 PUSH2 0x2D9C JUMP JUMPDEST SWAP1 POP SWAP3 SWAP2 POP POP JUMP JUMPDEST PUSH1 0x40 MLOAD DUP1 PUSH1 0x40 ADD PUSH1 0x40 MSTORE DUP1 PUSH1 0x0 DUP2 MSTORE PUSH1 0x20 ADD PUSH1 0x0 PUSH2 0xFFFF AND DUP2 MSTORE POP SWAP1 JUMP JUMPDEST PUSH1 0x0 PUSH2 0x2496 PUSH2 0x2491 DUP5 PUSH2 0x2CCC JUMP JUMPDEST PUSH2 0x2CA7 JUMP JUMPDEST SWAP1 POP DUP3 DUP2 MSTORE PUSH1 0x20 DUP2 ADD DUP5 DUP5 DUP5 ADD GT ISZERO PUSH2 0x24B2 JUMPI PUSH2 0x24B1 PUSH2 0x3109 JUMP JUMPDEST JUMPDEST PUSH2 0x24BD DUP5 DUP3 DUP6 PUSH2 0x2F2B JUMP JUMPDEST POP SWAP4 SWAP3 POP POP POP JUMP JUMPDEST PUSH1 0x0 DUP2 CALLDATALOAD SWAP1 POP PUSH2 0x24D4 DUP2 PUSH2 0x3275 JUMP JUMPDEST SWAP3 SWAP2 POP POP JUMP JUMPDEST PUSH1 0x0 DUP2 MLOAD SWAP1 POP PUSH2 0x24E9 DUP2 PUSH2 0x3275 JUMP JUMPDEST SWAP3 SWAP2 POP POP JUMP JUMPDEST PUSH1 0x0 DUP2 CALLDATALOAD SWAP1 POP PUSH2 0x24FE DUP2 PUSH2 0x328C JUMP JUMPDEST SWAP3 SWAP2 POP POP JUMP JUMPDEST PUSH1 0x0 DUP3 PUSH1 0x1F DUP4 ADD SLT PUSH2 0x2519 JUMPI PUSH2 0x2518 PUSH2 0x3104 JUMP JUMPDEST JUMPDEST DUP2 MLOAD PUSH2 0x2529 DUP5 DUP3 PUSH1 0x20 DUP7 ADD PUSH2 0x2483 JUMP JUMPDEST SWAP2 POP POP SWAP3 SWAP2 POP POP JUMP JUMPDEST PUSH1 0x0 DUP2 MLOAD SWAP1 POP PUSH2 0x2541 DUP2 PUSH2 0x32A3 JUMP JUMPDEST SWAP3 SWAP2 POP POP JUMP JUMPDEST PUSH1 0x0 DUP2 CALLDATALOAD SWAP1 POP PUSH2 0x2556 DUP2 PUSH2 0x32BA JUMP JUMPDEST SWAP3 SWAP2 POP POP JUMP JUMPDEST PUSH1 0x0 DUP2 MLOAD SWAP1 POP PUSH2 0x256B DUP2 PUSH2 0x32BA JUMP JUMPDEST SWAP3 SWAP2 POP POP JUMP JUMPDEST PUSH1 0x0 DUP2 MLOAD SWAP1 POP PUSH2 0x2580 DUP2 PUSH2 0x32D1 JUMP JUMPDEST SWAP3 SWAP2 POP POP JUMP JUMPDEST PUSH1 0x0 DUP2 MLOAD SWAP1 POP PUSH2 0x2595 DUP2 PUSH2 0x32E8 JUMP JUMPDEST SWAP3 SWAP2 POP POP JUMP JUMPDEST PUSH1 0x0 PUSH1 0x20 DUP3 DUP5 SUB SLT ISZERO PUSH2 0x25B1 JUMPI PUSH2 0x25B0 PUSH2 0x3113 JUMP JUMPDEST JUMPDEST PUSH1 0x0 PUSH2 0x25BF DUP5 DUP3 DUP6 ADD PUSH2 0x24C5 JUMP JUMPDEST SWAP2 POP POP SWAP3 SWAP2 POP POP JUMP JUMPDEST PUSH1 0x0 PUSH1 0x20 DUP3 DUP5 SUB SLT ISZERO PUSH2 0x25DE JUMPI PUSH2 0x25DD PUSH2 0x3113 JUMP JUMPDEST JUMPDEST PUSH1 0x0 PUSH2 0x25EC DUP5 DUP3 DUP6 ADD PUSH2 0x24DA JUMP JUMPDEST SWAP2 POP POP SWAP3 SWAP2 POP POP JUMP JUMPDEST PUSH1 0x0 DUP1 PUSH1 0x40 DUP4 DUP6 SUB SLT ISZERO PUSH2 0x260C JUMPI PUSH2 0x260B PUSH2 0x3113 JUMP JUMPDEST JUMPDEST PUSH1 0x0 PUSH2 0x261A DUP6 DUP3 DUP7 ADD PUSH2 0x24EF JUMP JUMPDEST SWAP3 POP POP PUSH1 0x20 PUSH2 0x262B DUP6 DUP3 DUP7 ADD PUSH2 0x2547 JUMP JUMPDEST SWAP2 POP POP SWAP3 POP SWAP3 SWAP1 POP JUMP JUMPDEST PUSH1 0x0 DUP1 PUSH1 0x40 DUP4 DUP6 SUB SLT ISZERO PUSH2 0x264C JUMPI PUSH2 0x264B PUSH2 0x3113 JUMP JUMPDEST JUMPDEST PUSH1 0x0 PUSH2 0x265A DUP6 DUP3 DUP7 ADD PUSH2 0x24C5 JUMP JUMPDEST SWAP3 POP POP PUSH1 0x20 PUSH2 0x266B DUP6 DUP3 DUP7 ADD PUSH2 0x2547 JUMP JUMPDEST SWAP2 POP POP SWAP3 POP SWAP3 SWAP1 POP JUMP JUMPDEST PUSH1 0x0 PUSH1 0x20 DUP3 DUP5 SUB SLT ISZERO PUSH2 0x268B JUMPI PUSH2 0x268A PUSH2 0x3113 JUMP JUMPDEST JUMPDEST PUSH1 0x0 PUSH2 0x2699 DUP5 DUP3 DUP6 ADD PUSH2 0x2532 JUMP JUMPDEST SWAP2 POP POP SWAP3 SWAP2 POP POP JUMP JUMPDEST PUSH1 0x0 PUSH1 0x20 DUP3 DUP5 SUB SLT ISZERO PUSH2 0x26B8 JUMPI PUSH2 0x26B7 PUSH2 0x3113 JUMP JUMPDEST JUMPDEST PUSH1 0x0 PUSH2 0x26C6 DUP5 DUP3 DUP6 ADD PUSH2 0x2547 JUMP JUMPDEST SWAP2 POP POP SWAP3 SWAP2 POP POP JUMP JUMPDEST PUSH1 0x0 DUP1 PUSH1 0x0 DUP1 PUSH1 0x0 DUP1 PUSH1 0x0 DUP1 PUSH2 0x100 DUP10 DUP12 SUB SLT ISZERO PUSH2 0x26F0 JUMPI PUSH2 0x26EF PUSH2 0x3113 JUMP JUMPDEST JUMPDEST PUSH1 0x0 PUSH2 0x26FE DUP12 DUP3 DUP13 ADD PUSH2 0x255C JUMP JUMPDEST SWAP9 POP POP PUSH1 0x20 PUSH2 0x270F DUP12 DUP3 DUP13 ADD PUSH2 0x255C JUMP JUMPDEST SWAP8 POP POP PUSH1 0x40 PUSH2 0x2720 DUP12 DUP3 DUP13 ADD PUSH2 0x2571 JUMP JUMPDEST SWAP7 POP POP PUSH1 0x60 PUSH2 0x2731 DUP12 DUP3 DUP13 ADD PUSH2 0x2532 JUMP JUMPDEST SWAP6 POP POP PUSH1 0x80 PUSH2 0x2742 DUP12 DUP3 DUP13 ADD PUSH2 0x2532 JUMP JUMPDEST SWAP5 POP POP PUSH1 0xA0 PUSH2 0x2753 DUP12 DUP3 DUP13 ADD PUSH2 0x2532 JUMP JUMPDEST SWAP4 POP POP PUSH1 0xC0 PUSH2 0x2764 DUP12 DUP3 DUP13 ADD PUSH2 0x2586 JUMP JUMPDEST SWAP3 POP POP PUSH1 0xE0 DUP10 ADD MLOAD PUSH8 0xFFFFFFFFFFFFFFFF DUP2 GT ISZERO PUSH2 0x2785 JUMPI PUSH2 0x2784 PUSH2 0x310E JUMP JUMPDEST JUMPDEST PUSH2 0x2791 DUP12 DUP3 DUP13 ADD PUSH2 0x2504 JUMP JUMPDEST SWAP2 POP POP SWAP3 SWAP6 SWAP9 POP SWAP3 SWAP6 SWAP9 SWAP1 SWAP4 SWAP7 POP JUMP JUMPDEST PUSH2 0x27AA DUP2 PUSH2 0x2E04 JUMP JUMPDEST DUP3 MSTORE POP POP JUMP JUMPDEST PUSH2 0x27C1 PUSH2 0x27BC DUP3 PUSH2 0x2E04 JUMP JUMPDEST PUSH2 0x2FBA JUMP JUMPDEST DUP3 MSTORE POP POP JUMP JUMPDEST PUSH2 0x27D0 DUP2 PUSH2 0x2E28 JUMP JUMPDEST DUP3 MSTORE POP POP JUMP JUMPDEST PUSH2 0x27DF DUP2 PUSH2 0x2E89 JUMP JUMPDEST DUP3 MSTORE POP POP JUMP JUMPDEST PUSH2 0x27EE DUP2 PUSH2 0x2E9B JUMP JUMPDEST DUP3 MSTORE POP POP JUMP JUMPDEST PUSH2 0x27FD DUP2 PUSH2 0x2EAD JUMP JUMPDEST DUP3 MSTORE POP POP JUMP JUMPDEST PUSH2 0x280C DUP2 PUSH2 0x2EBF JUMP JUMPDEST DUP3 MSTORE POP POP JUMP JUMPDEST PUSH2 0x281B DUP2 PUSH2 0x2ED1 JUMP JUMPDEST DUP3 MSTORE POP POP JUMP JUMPDEST PUSH2 0x282A DUP2 PUSH2 0x2EE3 JUMP JUMPDEST DUP3 MSTORE POP POP JUMP JUMPDEST PUSH2 0x2839 DUP2 PUSH2 0x2EF5 JUMP JUMPDEST DUP3 MSTORE POP POP JUMP JUMPDEST PUSH1 0x0 PUSH2 0x284C PUSH1 0x23 DUP4 PUSH2 0x2CFD JUMP JUMPDEST SWAP2 POP PUSH2 0x2857 DUP3 PUSH2 0x3136 JUMP JUMPDEST PUSH1 0x40 DUP3 ADD SWAP1 POP SWAP2 SWAP1 POP JUMP JUMPDEST PUSH1 0x0 PUSH2 0x286F PUSH1 0x1A DUP4 PUSH2 0x2CFD JUMP JUMPDEST SWAP2 POP PUSH2 0x287A DUP3 PUSH2 0x3185 JUMP JUMPDEST PUSH1 0x20 DUP3 ADD SWAP1 POP SWAP2 SWAP1 POP JUMP JUMPDEST PUSH1 0x0 PUSH2 0x2892 PUSH1 0x28 DUP4 PUSH2 0x2CFD JUMP JUMPDEST SWAP2 POP PUSH2 0x289D DUP3 PUSH2 0x31AE JUMP JUMPDEST PUSH1 0x40 DUP3 ADD SWAP1 POP SWAP2 SWAP1 POP JUMP JUMPDEST PUSH1 0x0 PUSH2 0x28B5 PUSH1 0x31 DUP4 PUSH2 0x2CFD JUMP JUMPDEST SWAP2 POP PUSH2 0x28C0 DUP3 PUSH2 0x31FD JUMP JUMPDEST PUSH1 0x40 DUP3 ADD SWAP1 POP SWAP2 SWAP1 POP JUMP JUMPDEST PUSH1 0x0 PUSH2 0x28D8 PUSH1 0x12 DUP4 PUSH2 0x2CFD JUMP JUMPDEST SWAP2 POP PUSH2 0x28E3 DUP3 PUSH2 0x324C JUMP JUMPDEST PUSH1 0x20 DUP3 ADD SWAP1 POP SWAP2 SWAP1 POP JUMP JUMPDEST PUSH1 0x40 DUP3 ADD PUSH1 0x0 DUP3 ADD MLOAD PUSH2 0x2904 PUSH1 0x0 DUP6 ADD DUP3 PUSH2 0x293B JUMP JUMPDEST POP PUSH1 0x20 DUP3 ADD MLOAD PUSH2 0x2917 PUSH1 0x20 DUP6 ADD DUP3 PUSH2 0x291D JUMP JUMPDEST POP POP POP POP JUMP JUMPDEST PUSH2 0x2926 DUP2 PUSH2 0x2E34 JUMP JUMPDEST DUP3 MSTORE POP POP JUMP JUMPDEST PUSH2 0x2935 DUP2 PUSH2 0x2E34 JUMP JUMPDEST DUP3 MSTORE POP POP JUMP JUMPDEST PUSH2 0x2944 DUP2 PUSH2 0x2E62 JUMP JUMPDEST DUP3 MSTORE POP POP JUMP JUMPDEST PUSH2 0x2953 DUP2 PUSH2 0x2E62 JUMP JUMPDEST DUP3 MSTORE POP POP JUMP JUMPDEST PUSH2 0x296A PUSH2 0x2965 DUP3 PUSH2 0x2E62 JUMP JUMPDEST PUSH2 0x2FDE JUMP JUMPDEST DUP3 MSTORE POP POP JUMP JUMPDEST PUSH2 0x2979 DUP2 PUSH2 0x2E7C JUMP JUMPDEST DUP3 MSTORE POP POP JUMP JUMPDEST PUSH1 0x0 PUSH2 0x298B DUP3 DUP7 PUSH2 0x2959 JUMP JUMPDEST PUSH1 0x20 DUP3 ADD SWAP2 POP PUSH2 0x299B DUP3 DUP6 PUSH2 0x27B0 JUMP JUMPDEST PUSH1 0x14 DUP3 ADD SWAP2 POP PUSH2 0x29AB DUP3 DUP5 PUSH2 0x2959 JUMP JUMPDEST PUSH1 0x20 DUP3 ADD SWAP2 POP DUP2 SWAP1 POP SWAP5 SWAP4 POP POP POP POP JUMP JUMPDEST PUSH1 0x0 PUSH1 0x20 DUP3 ADD SWAP1 POP PUSH2 0x29D1 PUSH1 0x0 DUP4 ADD DUP5 PUSH2 0x27A1 JUMP JUMPDEST SWAP3 SWAP2 POP POP JUMP JUMPDEST PUSH1 0x0 PUSH1 0x40 DUP3 ADD SWAP1 POP PUSH2 0x29EC PUSH1 0x0 DUP4 ADD DUP6 PUSH2 0x27A1 JUMP JUMPDEST PUSH2 0x29F9 PUSH1 0x20 DUP4 ADD DUP5 PUSH2 0x27E5 JUMP JUMPDEST SWAP4 SWAP3 POP POP POP JUMP JUMPDEST PUSH1 0x0 PUSH1 0x40 DUP3 ADD SWAP1 POP PUSH2 0x2A15 PUSH1 0x0 DUP4 ADD DUP6 PUSH2 0x27A1 JUMP JUMPDEST PUSH2 0x2A22 PUSH1 0x20 DUP4 ADD DUP5 PUSH2 0x27F4 JUMP JUMPDEST SWAP4 SWAP3 POP POP POP JUMP JUMPDEST PUSH1 0x0 PUSH1 0x40 DUP3 ADD SWAP1 POP PUSH2 0x2A3E PUSH1 0x0 DUP4 ADD DUP6 PUSH2 0x27A1 JUMP JUMPDEST PUSH2 0x2A4B PUSH1 0x20 DUP4 ADD DUP5 PUSH2 0x2803 JUMP JUMPDEST SWAP4 SWAP3 POP POP POP JUMP JUMPDEST PUSH1 0x0 PUSH1 0x40 DUP3 ADD SWAP1 POP PUSH2 0x2A67 PUSH1 0x0 DUP4 ADD DUP6 PUSH2 0x27A1 JUMP JUMPDEST PUSH2 0x2A74 PUSH1 0x20 DUP4 ADD DUP5 PUSH2 0x2812 JUMP JUMPDEST SWAP4 SWAP3 POP POP POP JUMP JUMPDEST PUSH1 0x0 PUSH1 0x40 DUP3 ADD SWAP1 POP PUSH2 0x2A90 PUSH1 0x0 DUP4 ADD DUP6 PUSH2 0x27A1 JUMP JUMPDEST PUSH2 0x2A9D PUSH1 0x20 DUP4 ADD DUP5 PUSH2 0x2821 JUMP JUMPDEST SWAP4 SWAP3 POP POP POP JUMP JUMPDEST PUSH1 0x0 PUSH1 0x40 DUP3 ADD SWAP1 POP PUSH2 0x2AB9 PUSH1 0x0 DUP4 ADD DUP6 PUSH2 0x27A1 JUMP JUMPDEST PUSH2 0x2AC6 PUSH1 0x20 DUP4 ADD DUP5 PUSH2 0x2830 JUMP JUMPDEST SWAP4 SWAP3 POP POP POP JUMP JUMPDEST PUSH1 0x0 PUSH1 0x20 DUP3 ADD SWAP1 POP PUSH2 0x2AE2 PUSH1 0x0 DUP4 ADD DUP5 PUSH2 0x27C7 JUMP JUMPDEST SWAP3 SWAP2 POP POP JUMP JUMPDEST PUSH1 0x0 PUSH1 0x20 DUP3 ADD SWAP1 POP PUSH2 0x2AFD PUSH1 0x0 DUP4 ADD DUP5 PUSH2 0x27D6 JUMP JUMPDEST SWAP3 SWAP2 POP POP JUMP JUMPDEST PUSH1 0x0 PUSH1 0x20 DUP3 ADD SWAP1 POP DUP2 DUP2 SUB PUSH1 0x0 DUP4 ADD MSTORE PUSH2 0x2B1C DUP2 PUSH2 0x283F JUMP JUMPDEST SWAP1 POP SWAP2 SWAP1 POP JUMP JUMPDEST PUSH1 0x0 PUSH1 0x20 DUP3 ADD SWAP1 POP DUP2 DUP2 SUB PUSH1 0x0 DUP4 ADD MSTORE PUSH2 0x2B3C DUP2 PUSH2 0x2862 JUMP JUMPDEST SWAP1 POP SWAP2 SWAP1 POP JUMP JUMPDEST PUSH1 0x0 PUSH1 0x20 DUP3 ADD SWAP1 POP DUP2 DUP2 SUB PUSH1 0x0 DUP4 ADD MSTORE PUSH2 0x2B5C DUP2 PUSH2 0x2885 JUMP JUMPDEST SWAP1 POP SWAP2 SWAP1 POP JUMP JUMPDEST PUSH1 0x0 PUSH1 0x20 DUP3 ADD SWAP1 POP DUP2 DUP2 SUB PUSH1 0x0 DUP4 ADD MSTORE PUSH2 0x2B7C DUP2 PUSH2 0x28A8 JUMP JUMPDEST SWAP1 POP SWAP2 SWAP1 POP JUMP JUMPDEST PUSH1 0x0 PUSH1 0x20 DUP3 ADD SWAP1 POP DUP2 DUP2 SUB PUSH1 0x0 DUP4 ADD MSTORE PUSH2 0x2B9C DUP2 PUSH2 0x28CB JUMP JUMPDEST SWAP1 POP SWAP2 SWAP1 POP JUMP JUMPDEST PUSH1 0x0 PUSH1 0x40 DUP3 ADD SWAP1 POP PUSH2 0x2BB8 PUSH1 0x0 DUP4 ADD DUP5 PUSH2 0x28EE JUMP JUMPDEST SWAP3 SWAP2 POP POP JUMP JUMPDEST PUSH1 0x0 PUSH1 0x20 DUP3 ADD SWAP1 POP PUSH2 0x2BD3 PUSH1 0x0 DUP4 ADD DUP5 PUSH2 0x294A JUMP JUMPDEST SWAP3 SWAP2 POP POP JUMP JUMPDEST PUSH1 0x0 PUSH1 0x40 DUP3 ADD SWAP1 POP PUSH2 0x2BEE PUSH1 0x0 DUP4 ADD DUP6 PUSH2 0x294A JUMP JUMPDEST PUSH2 0x2BFB PUSH1 0x20 DUP4 ADD DUP5 PUSH2 0x292C JUMP JUMPDEST SWAP4 SWAP3 POP POP POP JUMP JUMPDEST PUSH1 0x0 PUSH1 0x80 DUP3 ADD SWAP1 POP PUSH2 0x2C17 PUSH1 0x0 DUP4 ADD DUP8 PUSH2 0x294A JUMP JUMPDEST PUSH2 0x2C24 PUSH1 0x20 DUP4 ADD DUP7 PUSH2 0x292C JUMP JUMPDEST PUSH2 0x2C31 PUSH1 0x40 DUP4 ADD DUP6 PUSH2 0x292C JUMP JUMPDEST PUSH2 0x2C3E PUSH1 0x60 DUP4 ADD DUP5 PUSH2 0x27C7 JUMP JUMPDEST SWAP6 SWAP5 POP POP POP POP POP JUMP JUMPDEST PUSH1 0x0 PUSH1 0x80 DUP3 ADD SWAP1 POP PUSH2 0x2C5C PUSH1 0x0 DUP4 ADD DUP8 PUSH2 0x294A JUMP JUMPDEST PUSH2 0x2C69 PUSH1 0x20 DUP4 ADD DUP7 PUSH2 0x294A JUMP JUMPDEST PUSH2 0x2C76 PUSH1 0x40 DUP4 ADD DUP6 PUSH2 0x294A JUMP JUMPDEST PUSH2 0x2C83 PUSH1 0x60 DUP4 ADD DUP5 PUSH2 0x27A1 JUMP JUMPDEST SWAP6 SWAP5 POP POP POP POP POP JUMP JUMPDEST PUSH1 0x0 PUSH1 0x20 DUP3 ADD SWAP1 POP PUSH2 0x2CA1 PUSH1 0x0 DUP4 ADD DUP5 PUSH2 0x2970 JUMP JUMPDEST SWAP3 SWAP2 POP POP JUMP JUMPDEST PUSH1 0x0 PUSH2 0x2CB1 PUSH2 0x2CC2 JUMP JUMPDEST SWAP1 POP PUSH2 0x2CBD DUP3 DUP3 PUSH2 0x2F5E JUMP JUMPDEST SWAP2 SWAP1 POP JUMP JUMPDEST PUSH1 0x0 PUSH1 0x40 MLOAD SWAP1 POP SWAP1 JUMP JUMPDEST PUSH1 0x0 PUSH8 0xFFFFFFFFFFFFFFFF DUP3 GT ISZERO PUSH2 0x2CE7 JUMPI PUSH2 0x2CE6 PUSH2 0x30D5 JUMP JUMPDEST JUMPDEST PUSH2 0x2CF0 DUP3 PUSH2 0x3118 JUMP JUMPDEST SWAP1 POP PUSH1 0x20 DUP2 ADD SWAP1 POP SWAP2 SWAP1 POP JUMP JUMPDEST PUSH1 0x0 DUP3 DUP3 MSTORE PUSH1 0x20 DUP3 ADD SWAP1 POP SWAP3 SWAP2 POP POP JUMP JUMPDEST PUSH1 0x0 PUSH2 0x2D19 DUP3 PUSH2 0x2E34 JUMP JUMPDEST SWAP2 POP PUSH2 0x2D24 DUP4 PUSH2 0x2E34 JUMP JUMPDEST SWAP3 POP DUP3 PUSH2 0xFFFF SUB DUP3 GT ISZERO PUSH2 0x2D3B JUMPI PUSH2 0x2D3A PUSH2 0x3048 JUMP JUMPDEST JUMPDEST DUP3 DUP3 ADD SWAP1 POP SWAP3 SWAP2 POP POP JUMP JUMPDEST PUSH1 0x0 PUSH2 0x2D51 DUP3 PUSH2 0x2E62 JUMP JUMPDEST SWAP2 POP PUSH2 0x2D5C DUP4 PUSH2 0x2E62 JUMP JUMPDEST SWAP3 POP DUP3 PUSH32 0xFFFFFFFFFFFFFFFFFFFFFFFFFFFFFFFFFFFFFFFFFFFFFFFFFFFFFFFFFFFFFFFF SUB DUP3 GT ISZERO PUSH2 0x2D91 JUMPI PUSH2 0x2D90 PUSH2 0x3048 JUMP JUMPDEST JUMPDEST DUP3 DUP3 ADD SWAP1 POP SWAP3 SWAP2 POP POP JUMP JUMPDEST PUSH1 0x0 PUSH2 0x2DA7 DUP3 PUSH2 0x2E34 JUMP JUMPDEST SWAP2 POP PUSH2 0x2DB2 DUP4 PUSH2 0x2E34 JUMP JUMPDEST SWAP3 POP DUP3 DUP3 LT ISZERO PUSH2 0x2DC5 JUMPI PUSH2 0x2DC4 PUSH2 0x3048 JUMP JUMPDEST JUMPDEST DUP3 DUP3 SUB SWAP1 POP SWAP3 SWAP2 POP POP JUMP JUMPDEST PUSH1 0x0 PUSH2 0x2DDB DUP3 PUSH2 0x2E62 JUMP JUMPDEST SWAP2 POP PUSH2 0x2DE6 DUP4 PUSH2 0x2E62 JUMP JUMPDEST SWAP3 POP DUP3 DUP3 LT ISZERO PUSH2 0x2DF9 JUMPI PUSH2 0x2DF8 PUSH2 0x3048 JUMP JUMPDEST JUMPDEST DUP3 DUP3 SUB SWAP1 POP SWAP3 SWAP2 POP POP JUMP JUMPDEST PUSH1 0x0 PUSH2 0x2E0F DUP3 PUSH2 0x2E42 JUMP JUMPDEST SWAP1 POP SWAP2 SWAP1 POP JUMP JUMPDEST PUSH1 0x0 PUSH2 0x2E21 DUP3 PUSH2 0x2E42 JUMP JUMPDEST SWAP1 POP SWAP2 SWAP1 POP JUMP JUMPDEST PUSH1 0x0 DUP2 ISZERO ISZERO SWAP1 POP SWAP2 SWAP1 POP JUMP JUMPDEST PUSH1 0x0 PUSH2 0xFFFF DUP3 AND SWAP1 POP SWAP2 SWAP1 POP JUMP JUMPDEST PUSH1 0x0 PUSH20 0xFFFFFFFFFFFFFFFFFFFFFFFFFFFFFFFFFFFFFFFF DUP3 AND SWAP1 POP SWAP2 SWAP1 POP JUMP JUMPDEST PUSH1 0x0 DUP2 SWAP1 POP SWAP2 SWAP1 POP JUMP JUMPDEST PUSH1 0x0 PUSH4 0xFFFFFFFF DUP3 AND SWAP1 POP SWAP2 SWAP1 POP JUMP JUMPDEST PUSH1 0x0 PUSH1 0xFF DUP3 AND SWAP1 POP SWAP2 SWAP1 POP JUMP JUMPDEST PUSH1 0x0 PUSH2 0x2E94 DUP3 PUSH2 0x2F07 JUMP JUMPDEST SWAP1 POP SWAP2 SWAP1 POP JUMP JUMPDEST PUSH1 0x0 PUSH2 0x2EA6 DUP3 PUSH2 0x2E62 JUMP JUMPDEST SWAP1 POP SWAP2 SWAP1 POP JUMP JUMPDEST PUSH1 0x0 PUSH2 0x2EB8 DUP3 PUSH2 0x2E62 JUMP JUMPDEST SWAP1 POP SWAP2 SWAP1 POP JUMP JUMPDEST PUSH1 0x0 PUSH2 0x2ECA DUP3 PUSH2 0x2E62 JUMP JUMPDEST SWAP1 POP SWAP2 SWAP1 POP JUMP JUMPDEST PUSH1 0x0 PUSH2 0x2EDC DUP3 PUSH2 0x2E62 JUMP JUMPDEST SWAP1 POP SWAP2 SWAP1 POP JUMP JUMPDEST PUSH1 0x0 PUSH2 0x2EEE DUP3 PUSH2 0x2E62 JUMP JUMPDEST SWAP1 POP SWAP2 SWAP1 POP JUMP JUMPDEST PUSH1 0x0 PUSH2 0x2F00 DUP3 PUSH2 0x2E62 JUMP JUMPDEST SWAP1 POP SWAP2 SWAP1 POP JUMP JUMPDEST PUSH1 0x0 PUSH2 0x2F12 DUP3 PUSH2 0x2F19 JUMP JUMPDEST SWAP1 POP SWAP2 SWAP1 POP JUMP JUMPDEST PUSH1 0x0 PUSH2 0x2F24 DUP3 PUSH2 0x2E42 JUMP JUMPDEST SWAP1 POP SWAP2 SWAP1 POP JUMP JUMPDEST PUSH1 0x0 JUMPDEST DUP4 DUP2 LT ISZERO PUSH2 0x2F49 JUMPI DUP1 DUP3 ADD MLOAD DUP2 DUP5 ADD MSTORE PUSH1 0x20 DUP2 ADD SWAP1 POP PUSH2 0x2F2E JUMP JUMPDEST DUP4 DUP2 GT ISZERO PUSH2 0x2F58 JUMPI PUSH1 0x0 DUP5 DUP5 ADD MSTORE JUMPDEST POP POP POP POP JUMP JUMPDEST PUSH2 0x2F67 DUP3 PUSH2 0x3118 JUMP JUMPDEST DUP2 ADD DUP2 DUP2 LT PUSH8 0xFFFFFFFFFFFFFFFF DUP3 GT OR ISZERO PUSH2 0x2F86 JUMPI PUSH2 0x2F85 PUSH2 0x30D5 JUMP JUMPDEST JUMPDEST DUP1 PUSH1 0x40 MSTORE POP POP POP JUMP JUMPDEST PUSH1 0x0 PUSH2 0x2F9A DUP3 PUSH2 0x2E34 JUMP JUMPDEST SWAP2 POP PUSH2 0xFFFF DUP3 EQ ISZERO PUSH2 0x2FAF JUMPI PUSH2 0x2FAE PUSH2 0x3048 JUMP JUMPDEST JUMPDEST PUSH1 0x1 DUP3 ADD SWAP1 POP SWAP2 SWAP1 POP JUMP JUMPDEST PUSH1 0x0 PUSH2 0x2FC5 DUP3 PUSH2 0x2FCC JUMP JUMPDEST SWAP1 POP SWAP2 SWAP1 POP JUMP JUMPDEST PUSH1 0x0 PUSH2 0x2FD7 DUP3 PUSH2 0x3129 JUMP JUMPDEST SWAP1 POP SWAP2 SWAP1 POP JUMP JUMPDEST PUSH1 0x0 DUP2 SWAP1 POP SWAP2 SWAP1 POP JUMP JUMPDEST PUSH1 0x0 PUSH2 0x2FF3 DUP3 PUSH2 0x2E62 JUMP JUMPDEST SWAP2 POP PUSH2 0x2FFE DUP4 PUSH2 0x2E62 JUMP JUMPDEST SWAP3 POP DUP3 PUSH2 0x300E JUMPI PUSH2 0x300D PUSH2 0x3077 JUMP JUMPDEST JUMPDEST DUP3 DUP3 MOD SWAP1 POP SWAP3 SWAP2 POP POP JUMP JUMPDEST PUSH32 0x4E487B7100000000000000000000000000000000000000000000000000000000 PUSH1 0x0 MSTORE PUSH1 0x1 PUSH1 0x4 MSTORE PUSH1 0x24 PUSH1 0x0 REVERT JUMPDEST PUSH32 0x4E487B7100000000000000000000000000000000000000000000000000000000 PUSH1 0x0 MSTORE PUSH1 0x11 PUSH1 0x4 MSTORE PUSH1 0x24 PUSH1 0x0 REVERT JUMPDEST PUSH32 0x4E487B7100000000000000000000000000000000000000000000000000000000 PUSH1 0x0 MSTORE PUSH1 0x12 PUSH1 0x4 MSTORE PUSH1 0x24 PUSH1 0x0 REVERT JUMPDEST PUSH32 0x4E487B7100000000000000000000000000000000000000000000000000000000 PUSH1 0x0 MSTORE PUSH1 0x32 PUSH1 0x4 MSTORE PUSH1 0x24 PUSH1 0x0 REVERT JUMPDEST PUSH32 0x4E487B7100000000000000000000000000000000000000000000000000000000 PUSH1 0x0 MSTORE PUSH1 0x41 PUSH1 0x4 MSTORE PUSH1 0x24 PUSH1 0x0 REVERT JUMPDEST PUSH1 0x0 DUP1 REVERT JUMPDEST PUSH1 0x0 DUP1 REVERT JUMPDEST PUSH1 0x0 DUP1 REVERT JUMPDEST PUSH1 0x0 DUP1 REVERT JUMPDEST PUSH1 0x0 PUSH1 0x1F NOT PUSH1 0x1F DUP4 ADD AND SWAP1 POP SWAP2 SWAP1 POP JUMP JUMPDEST PUSH1 0x0 DUP2 PUSH1 0x60 SHL SWAP1 POP SWAP2 SWAP1 POP JUMP JUMPDEST PUSH32 0x5468697320676F6C6620636C7562206E6565647320746F206265207265706169 PUSH1 0x0 DUP3 ADD MSTORE PUSH32 0x7265640000000000000000000000000000000000000000000000000000000000 PUSH1 0x20 DUP3 ADD MSTORE POP JUMP JUMPDEST PUSH32 0x56616C75652073656E74206973206E6F7420636F72726563742E000000000000 PUSH1 0x0 DUP3 ADD MSTORE POP JUMP JUMPDEST PUSH32 0x5468697320676F6C6620636C7562206973206E6F7420726561647920746F2070 PUSH1 0x0 DUP3 ADD MSTORE PUSH32 0x6C6179207965742E000000000000000000000000000000000000000000000000 PUSH1 0x20 DUP3 ADD MSTORE POP JUMP JUMPDEST PUSH32 0x596F75206E65656420746F2066696E642061206E65772067616D652066697273 PUSH1 0x0 DUP3 ADD MSTORE PUSH32 0x74206265666F726520706C6179696E672E000000000000000000000000000000 PUSH1 0x20 DUP3 ADD MSTORE POP JUMP JUMPDEST PUSH32 0x4E6F7420746865204E4654206F776E65722E0000000000000000000000000000 PUSH1 0x0 DUP3 ADD MSTORE POP JUMP JUMPDEST PUSH2 0x327E DUP2 PUSH2 0x2E04 JUMP JUMPDEST DUP2 EQ PUSH2 0x3289 JUMPI PUSH1 0x0 DUP1 REVERT JUMPDEST POP JUMP JUMPDEST PUSH2 0x3295 DUP2 PUSH2 0x2E16 JUMP JUMPDEST DUP2 EQ PUSH2 0x32A0 JUMPI PUSH1 0x0 DUP1 REVERT JUMPDEST POP JUMP JUMPDEST PUSH2 0x32AC DUP2 PUSH2 0x2E34 JUMP JUMPDEST DUP2 EQ PUSH2 0x32B7 JUMPI PUSH1 0x0 DUP1 REVERT JUMPDEST POP JUMP JUMPDEST PUSH2 0x32C3 DUP2 PUSH2 0x2E62 JUMP JUMPDEST DUP2 EQ PUSH2 0x32CE JUMPI PUSH1 0x0 DUP1 REVERT JUMPDEST POP JUMP JUMPDEST PUSH2 0x32DA DUP2 PUSH2 0x2E6C JUMP JUMPDEST DUP2 EQ PUSH2 0x32E5 JUMPI PUSH1 0x0 DUP1 REVERT JUMPDEST POP JUMP JUMPDEST PUSH2 0x32F1 DUP2 PUSH2 0x2E7C JUMP JUMPDEST DUP2 EQ PUSH2 0x32FC JUMPI PUSH1 0x0 DUP1 REVERT JUMPDEST POP JUMP INVALID LOG2 PUSH5 0x6970667358 0x22 SLT KECCAK256 SELFDESTRUCT 0x2F 0x4A SWAP10 POP 0xDC 0x2D 0xD3 DUP15 DUP2 MLOAD 0xC2 SWAP8 SWAP10 0xA9 DUP7 0x5C 0xDD EXTCODESIZE 0x2A EQ 0xC5 BALANCE 0x21 PUSH3 0xC021E4 0xA8 0xF8 PUSH2 0xDE64 PUSH20 0x6F6C634300080700330000000000000000000000 "
		},
		"gasEstimates": {
			"creation": {
				"codeDepositCost": "2621800",
				"executionCost": "infinite",
				"totalCost": "infinite"
			},
			"external": {
				"claimBalance(address)": "2859",
				"claimNFTBalance(address)": "2860",
				"claimRewards()": "infinite",
				"durabilityDropRate(uint256)": "6630",
				"energyBalance(address)": "2902",
				"findGame()": "infinite",
				"getGolfClubContractAddress()": "2588",
				"getStats(uint256)": "infinite",
				"getToken()": "2676",
				"golfClubStats(uint256)": "infinite",
				"havePlayed(uint256)": "2841",
				"isOwner()": "2586",
				"owner()": "2590",
				"playRound(uint256)": "infinite",
				"playerRounds(address,uint256)": "infinite",
				"randomRoulletPrize()": "infinite",
				"renounceOwnership()": "30405",
				"repairBalance(address)": "2881",
				"roulettePrizePercentages(uint256)": "6631",
				"secondsToPlay(uint256)": "infinite",
				"sendEthFromContract(address,uint256)": "infinite",
				"sendEthToContract()": "2334",
				"setGolfClubContract(address)": "26994",
				"setGolfClubStats(uint256)": "49150",
				"totalRounds(address)": "2882",
				"transferOwnership(address)": "30782",
				"upgradeBalance(address)": "2883",
				"victories(address)": "2925",
				"victoryProbability(uint256)": "6630"
			},
			"internal": {
				"_decreaseDurability(uint256,uint8)": "infinite",
				"_getMatchResult(uint256,struct GolfClubGameplay.Round memory)": "infinite",
				"_triggerCooldown(uint256)": "infinite",
				"addRoundWin()": "infinite",
				"afterEachGame(uint256,uint256,struct GolfClubGameplay.Round memory)": "infinite"
			}
		},
		"methodIdentifiers": {
			"claimBalance(address)": "b633e4cd",
			"claimNFTBalance(address)": "1351d0cd",
			"claimRewards()": "372500ab",
			"durabilityDropRate(uint256)": "c61e5ec2",
			"energyBalance(address)": "ed7653e7",
			"findGame()": "d544577d",
			"getGolfClubContractAddress()": "dcc75ca5",
			"getStats(uint256)": "7b303965",
			"getToken()": "21df0da7",
			"golfClubStats(uint256)": "0b9f8a1f",
			"havePlayed(uint256)": "59346523",
			"isOwner()": "8f32d59b",
			"owner()": "8da5cb5b",
			"playRound(uint256)": "019e485e",
			"playerRounds(address,uint256)": "2768a49f",
			"randomRoulletPrize()": "38af79c4",
			"renounceOwnership()": "715018a6",
			"repairBalance(address)": "a147d432",
			"roulettePrizePercentages(uint256)": "4bc54773",
			"secondsToPlay(uint256)": "9fbf8ec3",
			"sendEthFromContract(address,uint256)": "becccfbc",
			"sendEthToContract()": "713f5e4d",
			"setGolfClubContract(address)": "611f64a6",
			"setGolfClubStats(uint256)": "d9dc0baa",
			"totalRounds(address)": "3ceb4035",
			"transferOwnership(address)": "f2fde38b",
			"upgradeBalance(address)": "0839511a",
			"victories(address)": "a7ed8a52",
			"victoryProbability(uint256)": "a2b5351b"
		}
	},
	"abi": [
		{
			"anonymous": false,
			"inputs": [
				{
					"indexed": true,
					"internalType": "address",
					"name": "previousOwner",
					"type": "address"
				},
				{
					"indexed": true,
					"internalType": "address",
					"name": "newOwner",
					"type": "address"
				}
			],
			"name": "OwnershipTransferred",
			"type": "event"
		},
		{
			"anonymous": false,
			"inputs": [
				{
					"indexed": false,
					"internalType": "address",
					"name": "_owner",
					"type": "address"
				},
				{
					"indexed": false,
					"internalType": "uint256",
					"name": "prizeId",
					"type": "uint256"
				}
			],
			"name": "RoulletPrize",
			"type": "event"
		},
		{
			"anonymous": false,
			"inputs": [
				{
					"indexed": false,
					"internalType": "uint256",
					"name": "_golfClubId",
					"type": "uint256"
				},
				{
					"indexed": false,
					"internalType": "uint256",
					"name": "_matchResult",
					"type": "uint256"
				},
				{
					"indexed": false,
					"internalType": "uint256",
					"name": "_roundId",
					"type": "uint256"
				},
				{
					"indexed": false,
					"internalType": "address",
					"name": "_owner",
					"type": "address"
				}
			],
			"name": "RoundPlayed",
			"type": "event"
		},
		{
			"inputs": [
				{
					"internalType": "address",
					"name": "",
					"type": "address"
				}
			],
			"name": "claimBalance",
			"outputs": [
				{
					"internalType": "uint256",
					"name": "",
					"type": "uint256"
				}
			],
			"stateMutability": "view",
			"type": "function"
		},
		{
			"inputs": [
				{
					"internalType": "address",
					"name": "",
					"type": "address"
				}
			],
			"name": "claimNFTBalance",
			"outputs": [
				{
					"internalType": "uint256",
					"name": "",
					"type": "uint256"
				}
			],
			"stateMutability": "view",
			"type": "function"
		},
		{
			"inputs": [],
			"name": "claimRewards",
			"outputs": [],
			"stateMutability": "nonpayable",
			"type": "function"
		},
		{
			"inputs": [
				{
					"internalType": "uint256",
					"name": "",
					"type": "uint256"
				}
			],
			"name": "durabilityDropRate",
			"outputs": [
				{
					"internalType": "uint8",
					"name": "",
					"type": "uint8"
				}
			],
			"stateMutability": "view",
			"type": "function"
		},
		{
			"inputs": [
				{
					"internalType": "address",
					"name": "",
					"type": "address"
				}
			],
			"name": "energyBalance",
			"outputs": [
				{
					"internalType": "uint256",
					"name": "",
					"type": "uint256"
				}
			],
			"stateMutability": "view",
			"type": "function"
		},
		{
			"inputs": [],
			"name": "findGame",
			"outputs": [],
			"stateMutability": "payable",
			"type": "function"
		},
		{
			"inputs": [],
			"name": "getGolfClubContractAddress",
			"outputs": [
				{
					"internalType": "address",
					"name": "",
					"type": "address"
				}
			],
			"stateMutability": "view",
			"type": "function"
		},
		{
			"inputs": [
				{
					"internalType": "uint256",
					"name": "_golfClubId",
					"type": "uint256"
				}
			],
			"name": "getStats",
			"outputs": [
				{
					"components": [
						{
							"internalType": "uint256",
							"name": "readyTime",
							"type": "uint256"
						},
						{
							"internalType": "uint16",
							"name": "durability",
							"type": "uint16"
						}
					],
					"internalType": "struct GolfClubGameplay.Stats",
					"name": "",
					"type": "tuple"
				}
			],
			"stateMutability": "view",
			"type": "function"
		},
		{
			"inputs": [],
			"name": "getToken",
			"outputs": [
				{
					"internalType": "contract GolfClubNFT",
					"name": "",
					"type": "address"
				}
			],
			"stateMutability": "view",
			"type": "function"
		},
		{
			"inputs": [
				{
					"internalType": "uint256",
					"name": "",
					"type": "uint256"
				}
			],
			"name": "golfClubStats",
			"outputs": [
				{
					"internalType": "uint256",
					"name": "readyTime",
					"type": "uint256"
				},
				{
					"internalType": "uint16",
					"name": "durability",
					"type": "uint16"
				}
			],
			"stateMutability": "view",
			"type": "function"
		},
		{
			"inputs": [
				{
					"internalType": "uint256",
					"name": "",
					"type": "uint256"
				}
			],
			"name": "havePlayed",
			"outputs": [
				{
					"internalType": "bool",
					"name": "",
					"type": "bool"
				}
			],
			"stateMutability": "view",
			"type": "function"
		},
		{
			"inputs": [],
			"name": "isOwner",
			"outputs": [
				{
					"internalType": "bool",
					"name": "",
					"type": "bool"
				}
			],
			"stateMutability": "view",
			"type": "function"
		},
		{
			"inputs": [],
			"name": "owner",
			"outputs": [
				{
					"internalType": "address",
					"name": "",
					"type": "address"
				}
			],
			"stateMutability": "view",
			"type": "function"
		},
		{
			"inputs": [
				{
					"internalType": "uint256",
					"name": "_golfClubId",
					"type": "uint256"
				}
			],
			"name": "playRound",
			"outputs": [],
			"stateMutability": "nonpayable",
			"type": "function"
		},
		{
			"inputs": [
				{
					"internalType": "address",
					"name": "",
					"type": "address"
				},
				{
					"internalType": "uint256",
					"name": "",
					"type": "uint256"
				}
			],
			"name": "playerRounds",
			"outputs": [
				{
					"internalType": "uint256",
					"name": "id",
					"type": "uint256"
				},
				{
					"internalType": "uint16",
					"name": "bonusPerkType",
					"type": "uint16"
				},
				{
					"internalType": "uint16",
					"name": "hole",
					"type": "uint16"
				},
				{
					"internalType": "bool",
					"name": "victory",
					"type": "bool"
				}
			],
			"stateMutability": "view",
			"type": "function"
		},
		{
			"inputs": [],
			"name": "randomRoulletPrize",
			"outputs": [],
			"stateMutability": "nonpayable",
			"type": "function"
		},
		{
			"inputs": [],
			"name": "renounceOwnership",
			"outputs": [],
			"stateMutability": "nonpayable",
			"type": "function"
		},
		{
			"inputs": [
				{
					"internalType": "address",
					"name": "",
					"type": "address"
				}
			],
			"name": "repairBalance",
			"outputs": [
				{
					"internalType": "uint256",
					"name": "",
					"type": "uint256"
				}
			],
			"stateMutability": "view",
			"type": "function"
		},
		{
			"inputs": [
				{
					"internalType": "uint256",
					"name": "",
					"type": "uint256"
				}
			],
			"name": "roulettePrizePercentages",
			"outputs": [
				{
					"internalType": "uint8",
					"name": "",
					"type": "uint8"
				}
			],
			"stateMutability": "view",
			"type": "function"
		},
		{
			"inputs": [
				{
					"internalType": "uint256",
					"name": "_golfClubId",
					"type": "uint256"
				}
			],
			"name": "secondsToPlay",
			"outputs": [
				{
					"internalType": "uint256",
					"name": "",
					"type": "uint256"
				}
			],
			"stateMutability": "view",
			"type": "function"
		},
		{
			"inputs": [
				{
					"internalType": "address payable",
					"name": "_to",
					"type": "address"
				},
				{
					"internalType": "uint256",
					"name": "_amount",
					"type": "uint256"
				}
			],
			"name": "sendEthFromContract",
			"outputs": [],
			"stateMutability": "nonpayable",
			"type": "function"
		},
		{
			"inputs": [],
			"name": "sendEthToContract",
			"outputs": [],
			"stateMutability": "payable",
			"type": "function"
		},
		{
			"inputs": [
				{
					"internalType": "address",
					"name": "_contractAddress",
					"type": "address"
				}
			],
			"name": "setGolfClubContract",
			"outputs": [],
			"stateMutability": "nonpayable",
			"type": "function"
		},
		{
			"inputs": [
				{
					"internalType": "uint256",
					"name": "_golfClubId",
					"type": "uint256"
				}
			],
			"name": "setGolfClubStats",
			"outputs": [],
			"stateMutability": "nonpayable",
			"type": "function"
		},
		{
			"inputs": [
				{
					"internalType": "address",
					"name": "",
					"type": "address"
				}
			],
			"name": "totalRounds",
			"outputs": [
				{
					"internalType": "uint256",
					"name": "",
					"type": "uint256"
				}
			],
			"stateMutability": "view",
			"type": "function"
		},
		{
			"inputs": [
				{
					"internalType": "address",
					"name": "newOwner",
					"type": "address"
				}
			],
			"name": "transferOwnership",
			"outputs": [],
			"stateMutability": "nonpayable",
			"type": "function"
		},
		{
			"inputs": [
				{
					"internalType": "address",
					"name": "",
					"type": "address"
				}
			],
			"name": "upgradeBalance",
			"outputs": [
				{
					"internalType": "uint256",
					"name": "",
					"type": "uint256"
				}
			],
			"stateMutability": "view",
			"type": "function"
		},
		{
			"inputs": [
				{
					"internalType": "address",
					"name": "",
					"type": "address"
				}
			],
			"name": "victories",
			"outputs": [
				{
					"internalType": "uint256",
					"name": "",
					"type": "uint256"
				}
			],
			"stateMutability": "view",
			"type": "function"
		},
		{
			"inputs": [
				{
					"internalType": "uint256",
					"name": "",
					"type": "uint256"
				}
			],
			"name": "victoryProbability",
			"outputs": [
				{
					"internalType": "uint8",
					"name": "",
					"type": "uint8"
				}
			],
			"stateMutability": "view",
			"type": "function"
		}
	]
}